:100000000C942B060C9472060C9472060C9480309F
:100010000C9472060C9472060C9472060C94720680
:100020000C9472060C9472060C94031D0C94B81B6D
:100030000C94961E0C9472060C9472060C94720624
:100040000C9472060C9472060C9472060C94720650
:100050000C9472060C94491E0C9472060C94720651
:100060000C9472060C9472060C9472060C94720630
:100070000C9472060C9472060C9472060C94720620
:100080000C9472060C9472060C9472060C94720610
:100090000C9472060C9472060C9472060C94720600
:1000A0000C9472060C9472060C947206AF0AAF0A96
:1000B000E10AE10A530B6F0B060D060D7A0B580C83
:1000C000690C690C84119411871194118A1194118F
:1000D000941194118D1194119411941194119411FF
:1000E00094119411901194119011941190119411F4
:1000F0009011482848285B285B2851285B285B28FA
:100100005B284828482856285B285B285628E72C77
:100110000E2DA62E0E2DA62E562D792DA62E682E2E
:100120007B2E00DA0281FFD9F1DB20A4A62EAF00DE
:10013000A0C000A1C800AED580A81FD300408D1478
:1001400020001E0F0500047F3F1F64321464321428
:10015000783C1E1E140A0541646A757374004E755E
:100160006D7061640053796D626F6C73004E6176DF
:10017000696761746500517765727479004C6179C3
:1001800065723A2000808182838485868788898A87
:100190008B8C8D8E8F9091929394A0A1A2A3A4A5F5
:1001A000A6A7A8A9AAABACADAEAFB0B1B2B3B4C06C
:1001B000C1C2C3C4C5C6C7C8C9CACBCCCDCECFD0B7
:1001C000D1D2D3D4002223252628292A2C2D2F3022
:1001D00032333536383A3B3D3E4042434547494A43
:1001E0004C4E5051535557595A5C5E606264666874
:1001F000696B6D6F71737577797B7D7F818385877F
:10020000898A8C8E90929496989A9C9E9FA1A3A581
:10021000A7A8AAACAEAFB1B3B4B6B8B9BBBCBEBFA9
:10022000C1C2C3C5C6C7C9CACBCCCDCED0D1D2D22C
:10023000D3D4D5D6D7D7D8D9D9DADADBDBDBDCDC37
:10024000DCDCDCDDDDDDDDDCDCDCDCDCDBDBDBDAEF
:10025000DAD9D9D8D7D7D6D5D4D3D2D2D1D0CECD5A
:10026000CCCBCAC9C7C6C5C3C2C1BFBEBCBBB9B867
:10027000B6B4B3B1AFAEACAAA8A7A5A3A19F9E9CEC
:100280009A98969492908E8C8A89878583817F7DB7
:100290007B79777573716F6D6B6968666462605E98
:1002A0005C5A5957555351504E4C4A494745434261
:1002B000403E3D3B3A3836353332302F2D2C2A29FB
:1002C000282625232200AF00AE0001010101010113
:1002D00001010102020202020202020203030303FD
:1002E00003030303040404040404040505050505CD
:1002F000060606060607070707070808080809098B
:1003000009090A0A0A0B0B0B0C0C0C0D0D0D0E0E35
:100310000E0F0F0F101011111112121313141415C8
:100320001516161717181819191A1A1B1B1C1D1D3C
:100330001E1E1F2020212222232424252626272892
:1003400029292A2B2C2D2D2E2F30313232333435C2
:10035000363738393A3B3C3D3E3F404142434445C5
:10036000464748494A4C4D4E4F50515354555658A4
:10037000595A5B5D5E5F616264656668696B6C6D4E
:100380006F7072737577787A7B7D7E8082838587C4
:10039000888A8C8E8F91939596989A9C9EA0A2A302
:1003A000A5A7A9ABADAFB1B3B5B7BABCBEC0C2C407
:1003B000C6C9CBCDCFD1D4D6D8DBDDDFE2E4E7E9C7
:1003C000EBEEF0F3F5F8FAFDFFFFAA7F55402B00A6
:1003D00014001A00080015001700E10004001600C0
:1003E000070009000A00E0001D001B0006001900BC
:1003F0000500000000000000E343E2412C002A0059
:10040000130012000C0018001C00340033000F0011
:100410000E000D000B0029003800370036001000D8
:100420001100000000000000E60028422C002B0014
:100430001E001F00200021002200E10014001A000D
:10044000080009000000E000040016000700190081
:100450000000000000000000000001002C0000006F
:1004600000000000520000000000000000004F00EB
:100470005100500000004C004D004A004E004B005F
:100480000000000000000000E60004512C003100D4
:100490001E021F022F0230022202E100210223026B
:1004A0002602270200000000360237022F0030002B
:1004B0000000000000000000E30004512C003500A3
:1004C0002E00200225023800240235020000000020
:1004D00000000000000000002D00000000000000EF
:1004E0000000000000000000E60000002C000000FA
:1004F00000000000000000000000000000000000FC
:1005000000000000000000000000000000000000EB
:100510000000000000000000000000002C0053005C
:100520002D0026002500240057000000380023007D
:100530002200210056000000000020001F001E00C5
:100540002700000000000000000000002C00005CFC
:1005500000000000000000000000C35CC65CC85C36
:10056000CA5C00000000C45CC75CC95CCB5C0000D6
:100570000000000000000000E30000002C00A900C3
:1005800000000000000000000000AA0000000000C1
:10059000000000000000A8000000000000000000B3
:1005A0000000000000000000000000002C00050119
:1005B0000902A10185020901A10005091901290803
:1005C00015002501950875018102050109300931E1
:1005D0001581257F95027508810609381581257FCB
:1005E000950175088106050C0A38021581257F954D
:1005F0000175088106C0C005010980A101850319A4
:10060000012AB700150126B700950175108100C0B9
:10061000050C0901A101850419012AA00215012672
:10062000A002950175108100C005010906A1018590
:1006300006050719E029E7150025019508750181D0
:10064000020507190029EF1500250195F0750181B4
:100650000205081901290595057501910295017595
:10066000039101C005010906A101050719E029E769
:100670001500250195087501810295017508810114
:100680000507190029FF150026FF0095067508814A
:100690000005081901290595057501910295017557
:1006A000039101C009023B00020100A0FA09040005
:1006B000000103010100092111010001224000078E
:1006C00005810308000A0904010001030000000974
:1006D000211101000122B6000705820320000A1241
:1006E0000100020000000853460100010001020061
:1006F000010C0343006F0072006E006500000010E3
:100700000366006F006F007300740061006E0000EC
:1007100000040309040000000000003E5B4F5B3E44
:10072000003E6B4F6B3E001C3E7C3E1C00183C7E26
:100730003C18001C577D571C001C5E7F5E1C00008F
:10074000183C180000FFE7C3E7FF0000182418005A
:1007500000FFE7DBE7FF0030483A060E0026297964
:10076000292600407F05050700407F05253F005AE8
:100770003CE73C5A007F3E1C1C0800081C1C3E7FC6
:100780000014227F2214005F5F005F5F0006097F74
:10079000017F00006689956A006060606060009477
:1007A000A2FFA2940008047E04080010207E2010FE
:1007B0000008082A1C0800081C2A0808001E10103F
:1007C0001010000C1E0C1E0C0030383E3830000695
:1007D0000E3E0E060000000000000000005F00005A
:1007E00000000700070000147F147F1400242A7FF4
:1007F0002A12002313086462003649562050000074
:100800000807030000001C224100000041221C00D8
:10081000002A1C7F1C2A0008083E0808000080707F
:100820003000000808080808000000606000002090
:1008300010080402003E5149453E0000427F40003E
:10084000007249494946002141494D3300181412AC
:100850007F10002745454539003C4A494931004150
:100860002111090700364949493600464949291EE0
:1008700000000014000000004034000000000814D4
:100880002241001414141414000041221408000220
:1008900001590906003E415D594E007C1211127C3F
:1008A000007F49494936003E41414122007F414194
:1008B000413E007F49494941007F09090901003E45
:1008C00041415173007F0808087F0000417F4100CB
:1008D000002040413F01007F08142241007F40403A
:1008E0004040007F021C027F007F0408107F003E12
:1008F0004141413E007F09090906003E4151215E08
:10090000007F091929460026494949320003017F21
:100910000103003F4040403F001F2040201F003F98
:100920004038403F00631408146300030478040354
:10093000006159494D4300007F41414100020408D4
:10094000102000004141417F0004020102040040E8
:100950004040404000000307080000205454784005
:10096000007F284444380038444444280038444434
:10097000287F0038545454180000087E09020018DB
:1009800024241C78007F080404780000447D400083
:10099000002040403D00007F102844000000417FBF
:1009A0004000007C04780478007C08040478003857
:1009B00044444438007C1824241800182424187C4B
:1009C000007C080404080048545454240004043FE4
:1009D0004424003C4040207C001C2040201C003C63
:1009E0004030403C004428102844004C9090907CBB
:1009F000004464544C440000083641000000007775
:100A00000000000041360800000201020402003C20
:100A10002623263C0000000000000000000000002B
:100A20000000000000C0E0F0F8F81800C0F0FCFE84
:100A3000FFFFFFFFFFFFFF7E00000000000000003F
:100A40000080C0E0E0E0E0E0E0E0E0C08000000026
:100A50000080C0E0E0E0E0E0E0E0E0C08000000016
:100A6000E0E0C0C0E0E0E0E00000E0E0C0C0E0E0C6
:100A7000E0E0E0C0800000000080C0E0E0E0E0E0F6
:100A8000E0E0E0C080000000000000000000000086
:100A9000000000E0F0F0F0E0ECEEF7F37020007CF6
:100AA0007C7C7E007E7E7E7F7F7F000080C0E07E3B
:100AB0005B4F5BFEC00000C000DCD7DEDEDED7DCB3
:100AC00000C0000000000000000000000000000066
:100AD0000000000000000000000000000000F8FC22
:100AE000FEFFE000FFFFFFFFFFFF80FFFFFFFFFFB4
:100AF000FFFFFFFF1F0701000000000000000000D3
:100B0000FFFFFF8100000000000081C3C3C300009D
:100B1000FFFFFF8100000000000081FFFFFF0000D9
:100B2000FFFFFF01000000000000FFFFFF010000C9
:100B3000000001FFFFFF0000FFFFFF9D1C1C1C1CAD
:100B40001C1C9DDFDFDF0000000000000000000033
:100B50000000000F1F3F7F7F7F7F7F3F1E0C001F25
:100B60001F1F3F003F3F3F7F7F7F00307B7F7830FC
:100B7000202030787F3B0003000F7F0F0F0F7F0F87
:100B80000003000000000000000000000000000062
:100B90000000000000000000000000000000030F43
:100BA0001F3F3F3F3F1F1F3F3F7F7F7F3F3F1F3F15
:100BB0007F7F7F7F7C7878381C0F0000000000006A
:100BC00000010307070707070707070301000000E5
:100BD00000010307070707070707070301000000D5
:100BE00007070700000000000000070707000000DB
:100BF00000000007070700000001030707070707B9
:100C000007070703010000000000000000000000CB
:100C100000000000000000000000000000000000D4
:100C200000000000000000000000000000000000C4
:100C300000000000000000000000000000000000B4
:100C400000000000000000000000000000000000A4
:100C500000000000000011241FBECFEFDAE0DEBF6D
:100C6000CDBF04B603FE27C080914B0790914C077F
:100C7000A0914D07B0914E078730904BA740B04BE5
:100C8000D1F410924B0710924C0710924D0710921E
:100C90004E0714BE84B7877F84BF0FB6F894A8951B
:100CA00080916000886180936000109260000FBEA8
:100CB000E0E0F8E3099512E0A0E0B1E0E6E0FDE64F
:100CC00002C005900D92A631B107D9F727E0A6E141
:100CD000B2E001C01D92AB34B207E1F70E944A0EA8
:100CE0000C9481360C940000882321F00E94DE26AB
:100CF0000C94E5260895882339F090911005892BEE
:100D0000809310050C94E5260895882379F19CEFD3
:100D1000980F913A30F4682F87E994E00E94BF1E43
:100D20000DC090E2980F983058F4877091E001C0A0
:100D3000990F8A95EAF7892F0E94DE260C94E52602
:100D40009BE5980F933020F480E090E00C94321FE4
:100D500098E5980F973120F480E090E00C941C1FE8
:100D60008D3E20F00E949A250C94AE260895CF93D4
:100D7000882309F472C0C82F8CEF8C0F813AC0F51C
:100D8000809153018823E1F08091780487FF18C097
:100D9000EC2FE695E695E695F0E0E956FB4F82816B
:100DA000282F30E04C2F477081E090E002C0880F80
:100DB000991F4A95E2F782239323892B61F412C08D
:100DC000E9E9F4E08FE994E02191C21721F08E1750
:100DD0009F07D1F707C06C2F87E994E00E94BF1EE0
:100DE0000E94E5266C2F87E994E00E94E71E10C060
:100DF00080E28C0F883078F4C77081E090E001C009
:100E0000880FCA95EAF790911005892B80931005F9
:100E1000CF910C94E526EBE5EC0FE33040F4F0E0E5
:100E2000E954FE4F808190E0CF910C94321FE8E5A9
:100E3000EC0FE73150F4F0E0EE0FFF1FE654FE4FE9
:100E400080819181CF910C941C1FCD3E30F08C2F6E
:100E50000E945326CF910C94AE26CF9108951F93F4
:100E6000CF93DF93CDB7DEB767970FB6F894DEBFA9
:100E70000FBECDBF4B8B5C8B6D8B7E8B8F8B6111CF
:100E800010920F0586E09E01235F3F4FD901E82FA6
:100E90001D92EA95E9F795E0FE017396D90101905C
:100EA0000D929A95E1F79C894E895F897B897D87B0
:100EB0009E876F87598B488BF901DE011796019049
:100EC0000D928A95E1F7CE0107960E945F28811165
:100ED0003EC086E0FE013796DE01119601900D922C
:100EE0008A95E1F7FF81E8856A857B856115710543
:100EF00031F0EF3F31F481E0FF3F19F403C081E0AE
:100F000001C080E080FD23C02091DB0430E0C901F6
:100F100001968770992740910C0550E0841795073A
:100F200079F1F983EA837D836C8396E0929FD00107
:100F3000939FB00D1124A452BB4FFE013196019036
:100F40000D929A95E1F78093DB040E94482716E002
:100F500080910C059091DB048917F9F0189FC0016E
:100F6000112484529B4F0E945F288823B1F0809106
:100F70000C0590E001968770992780930C05E8CFC7
:100F80000E94ED2A1092DB0410920C05E5EDF4E0CE
:100F900086E0DF011D928A95E9F767960FB6F8940F
:100FA000DEBF0FBECDBFDF91CF911F9108958F920D
:100FB0009F92AF92BF92CF92DF92EF92FF920F93E8
:100FC0001F93CF93DF93CDB7DEB72A970FB6F89470
:100FD000DEBF0FBECDBFFC010081D1808381948133
:100FE000892B39F01FEFD11206C091E00F3F19F4A1
:100FF00003C091E001C090E090FD39C67F0185E01B
:10100000DE01169601900D928A95E1F7F701228193
:101010008E819F81222349F00E94BE27182F682FBE
:101020008E819F810E942D2A03C00E94002A182FC2
:1010300020E3129FF001112436E0D39EE00DF11D54
:101040001124E00FF11DEE0FFF1FE253FC4F05913D
:101050001491F70182818823A1F1C801905681156E
:10106000F0E29F0720F0905E8115904118F4C801CE
:10107000992701C0C8018C33910528F4FC01EB5974
:10108000FE4F208101C020E21F922F939F938F93E8
:10109000F70180811F928F9381811F928F9384E546
:1010A00091E09F938F931F9288E18F9387E392E063
:1010B0009F938F930E9489330FB6F894DEBF0FBEC3
:1010C000CDBF043F3CE5130759F190F4093D9CE581
:1010D0001907E9F00A3DECE51E07A1F1083DFCE522
:1010E0001F07B1F506E221EE41EE68ED7CE514C084
:1010F000063F2CE5120701F1C8F0073F8CE5180701
:1011000039F507E225EE46EE67EF7CE505C007E21C
:1011100025EE45EE69ED7CE5C7010E94581FD6C457
:1011200006E221EE40EE64EF7CE5F6CF07E225EE25
:1011300044EE65EF7CE5F0CF06E221EE42EE66EF8D
:101140007CE5EACF08E221E045EE6AED7CE5E4CFFC
:10115000F7018281882309F445C110926C040430A0
:10116000FDE51F0758F40B3F2CE5120760F4C8019A
:1011700082509C45449708F01FC105C002363DE5EA
:10118000130709F019C10E94A7179093790480935F
:10119000780400318CE5180709F4CAC008F041C092
:1011A0000830ECE51E0709F4A4C0F0F404302CE587
:1011B000120709F48CC068F402308CE5180709F4B2
:1011C00082C003301C4509F0E7C08091780482603A
:1011D000E1C00630ECE51E0709F483C008F085C0C5
:1011E000809178048860D6C00C302CE5120709F491
:1011F00090C068F40A308CE5180709F47EC008F046
:1012000084C00E94ED2A809178048068C3C00E30AB
:10121000ECE51E0709F481C008F086C080917804CF
:1012200094C00D3F2CE5120709F47BC038F504315A
:101230008CE5180709F49AC058F40231ECE51E0752
:1012400009F47AC008F07EC0809178048F7BA2C038
:101250000B3F2CE51207F1F108F03FC005311C45AA
:1012600009F09AC08091780482FB222720F991E04E
:10127000922790FB82F990FB83F98CC001309DE5A9
:10128000190709F467C050F4809179040F3FFCE519
:101290001F07C1F108F05BC08D7F65C003303DE5DD
:1012A000130709F471C008F46DC002361D4509F03A
:1012B00073C08091780484FB222720F991E0922763
:1012C00090FB84F967C080917804816063C080914D
:1012D000780416C08091790416C0809179048260E8
:1012E00042C080917804806155C08091780480620A
:1012F00051C08091780480644DC0809178048860EA
:10130000846048C0826081602EC0809178048E7FA6
:1013100041C0809178048D7F3DC080917804877FA3
:1013200039C08091790414C0809178048F7E32C0D6
:10133000809178048F7D2EC00E94ED2A80917804E0
:101340008F7728C080917804877F8B7F23C08D7F23
:101350008E7F09C080917904982F909591708E7F2F
:10136000892B90FB81F98093790416C00E94ED2AA5
:101370008091780487FB222720F991E0922790FB47
:1013800087F908C061E001C060E08EE090E00E9453
:101390008C3202C0809378046091780410917904B3
:1013A00084E090E00E948C32612F82E290E00E9403
:1013B0008C320E94ED2A8AC306312CE5120721F5F2
:1013C000809110058A7A91E009F490E090931802D8
:1013D000882311F065E301C069E287E994E00E9487
:1013E000E71E0FC00631FCE51F0709F040C08091E1
:1013F0001802882309F48DC365E387E994E00E940D
:10140000BF1E0E94E52662C30B352DE5120749F188
:1014100058F401158CE51807B1F00F3D1C4509F093
:1014200042C00E94B81752C30C35EDE51E07D9F033
:101430000D351D45C1F58091790482FB882780F91F
:1014400091E0892711C00E94ED2A0FEF14E32CE0F0
:10145000015010402040E1F700C000000E94381EFB
:1014600035C381E001C080E00E94A52A1CC08091A4
:10147000100582720D3CECE51E0709F4D7C308F095
:101480007AC3073C2CE5120709F4BCC308F051C32A
:10149000043C9CE5190709F4ABC308F03CC3033CCA
:1014A0001C4509F4F0C2F70182810081D1808823B4
:1014B00059F0802F9D2D0E94BE27182F682F802F56
:1014C0009D2D0E942D2A05C0802F9D2D0E94002A4F
:1014D000182F20E3129FF001112436E0D39EE00D77
:1014E000F11D1124E00FF11DEE0FFF1FE253FC4F21
:1014F000859194910E940D168C01982EF701D2804F
:10150000A580A2943FE0A32280910D058770B9F0D9
:10151000DD20A9F0812F807F803421F080E2800FD0
:10152000883068F08091790482FD09C082E00E94D1
:10153000882A80910D058770CC24C3948111C12C19
:10154000B12EB2949FE0B9228B2D90E08C309105A2
:1015500008F05CC2FC01EA5AFF4F0C945133812F12
:10156000807F1F70882311F01295107FDD20B9F065
:10157000112309F438C280E2800F883010F09110F6
:1015800006C080911005182B1093100505C080919E
:101590000F05182B10930F050E94E52624C2802FFB
:1015A0000E948506112309F431C2005E083078F1EB
:1015B000992069F1109580910F05182310930F055C
:1015C00029C0812F807F1F70803211F01295107F0B
:1015D000992021F0F1E09F16D9F149C0809179045A
:1015E00082FF1BC0DD2069F0112339F080911005C6
:1015F000182B109310050E94E52680E00E94B70684
:1016000005C280E00E948506112309F4FFC1812FE5
:101610000E94DE260E94E526F9C1DD2081F080913E
:101620001105AA2051F001E0A01207C0182B1817CD
:1016300009F4ECC110931105E9C1812B10C0AA2057
:1016400021F021E0A21609F4E1C10E94D82627C0AA
:10165000DD2041F035E03A1508F4D8C1812F0E9411
:101660007B06D4C184E08A1508F4D0C118C0DD20FF
:1016700049F0AA2099F3F701858180FFB4C18F70EA
:101680008583ECCFAA2059F0093309F0BCC1FFEFE4
:1016900017EE23E0F15010402040E1F7B2C1812F56
:1016A0000E947406B3C1812F86958695837019F0C8
:1016B000813059F0ABC1DD2019F0C801937002C030
:1016C00080E090E00E94321FA7C1DD2019F0C80120
:1016D000937002C080E090E00E941C1F9DC1802F8B
:1016E000DD2019F00E94532602C00E949A250E9414
:1016F000AE2692C1812F837009F069C0D1108AC1D2
:10170000902F929596959770990F990F802F8F70C3
:10171000882E912CA12CB12C092E04C0880C991C68
:10172000AA1CBB1C0A94D2F704FF12C04FE050E081
:1017300060E070E004C0440F551F661F771F9A9544
:10174000D2F7DB01CA0180959095A095B09503C0B2
:1017500080E090E0DC0116951695412F43704230F1
:1017600019F1C8F400917E0210917F02209180024D
:1017700030918102413059F088299929AA29BB2941
:10178000BC01CD0160237123822393230AC0802AE8
:10179000912AA22AB32ABC01CD01682979298A2974
:1017A0009B290E94E32A36C188299929AA29BB29A5
:1017B00000917E0210917F0220918002309181027F
:1017C000BC01CD016027712782279327EACFDD2056
:1017D00019F0812F817001C08695882309F41AC100
:1017E000902F929596959770990F990F802F8F70E3
:1017F000882E912CA12CB12C092E04C0880C991C88
:10180000AA1CBB1C0A94D2F704FF12C04FE050E0A0
:1018100060E070E004C0440F551F661F771F9A9563
:10182000D2F7DB01CA0180959095A095B09503C0D1
:1018300080E090E0DC0116951695412F4370423010
:10184000D9F068F5009133021091340220913502ED
:1018500030913602413059F088299929AA29BB29AB
:10186000BC01CD0160237123822393231EC0802AF3
:10187000912AA22AB32A13C088299929AA29BB2907
:1018800000913302109134022091350230913602DA
:10189000BC01CD01602771278227932706C0BC01B8
:1018A000CD01682979298A299B290E94592AB2C029
:1018B0001F70DD2039F0812F0E94C22A802F0E94E4
:1018C0007B06A8C0802F0E947406812F0E94632A85
:1018D000A1C0802F32EF931609F443C0391538F0B8
:1018E00090EF991659F0E1EF9E16B1F177C0F3EF42
:1018F0009F16F1F124EF921659F170C0DD2019F115
:1019000034E03A1508F482C01F7181E090E0A0E055
:10191000B0E0AC01BD0104C0440F551F661F771F26
:101920001A95D2F78091330290913402A09135023A
:10193000B09136028A019B01082719272A273B27E5
:10194000C901B80129C025E02A1508F45FC0DCCF21
:101950008091790482FF23C0DD2029F0812F8F71CF
:1019600030C0DD20D9F3812F8F710E94632A4EC0D1
:10197000DD2079F01F7181E090E0A0E0B0E0BC01D3
:10198000CD0104C0660F771F881F991F1A95D2F7E3
:1019900003C060E070E0CB010E94592A37C0DD200F
:1019A00099F01F71812F0E94C22A8091790482FDD3
:1019B00007C038E0139FC0011124836080930D0598
:1019C000812F0E94C22A22C081E00E94882A81E0E1
:1019D0008A15E0F482E00E94882A18C0DD2029F0F0
:1019E000AA2009F4BBCF802F09CEAA2009F4BBCFCF
:1019F000893349F49FEFE7EEF3E09150E040F04087
:101A0000E1F700C00000802F0E94850688EF8B0D53
:101A1000843010F40E94481FCC20A9F080910D055D
:101A200080FD11C0F70112828595859585950E94EC
:101A3000C22AC7010E94D70780910D05859585951B
:101A400085950E94632A85E0F701DE0111960190D9
:101A50000D928A95E1F789819A810E94002A9A81E4
:101A600000E3809FF001112416E0919FE00DF11D2D
:101A700011248981E80FF11DEE0FFF1FE253FC4F87
:101A800085919491F4C080915F0480FFABC08E7FFC
:101A900080935F0460915F047091600480916104A1
:101AA000909162040E940F210E946C208091930407
:101AB000816080939304EFEFF0E702E0E150F040A3
:101AC0000040E1F700C000000E948E2080910D05CB
:101AD000877009F4CCC0F7018281882309F4C7C05C
:101AE0008091790482FDC3C082E02A960FB6F894F3
:101AF000DEBF0FBECDBFDF91CF911F910F91FF9041
:101B0000EF90DF90CF90BF90AF909F908F900C940C
:101B1000882A69E272CC053C2CE5120709F46DC0F5
:101B2000063C1C4509F0BFCC47EF54E260E075E28B
:101B300081C00A3C9CE5190709F46EC070F4083CAA
:101B4000FCE51F0709F463C0093C1C4509F0ABCC58
:101B50004BEE54E26FED74E26DC00B3C3CE51307B5
:101B600009F45FC00C3C1C4509F09DCC41E251E2F8
:101B700062E371E25FC0023DECE51E0709F466C056
:101B800098F40F3C2CE5120709F45AC008F455C02C
:101B9000003D8CE5180709F456C0013D1C4509F0CD
:101BA00082CC6EE089E060C0053DECE51E0709F4DB
:101BB00053C060F4033D2CE5120709F44AC0043D0C
:101BC0001C4509F070CC61E088E14BC0063D8CE516
:101BD000180709F444C00E351D4509F064CC6AE2CB
:101BE00085E242C0816080935F0461E0869539C0E0
:101BF00049E455E262E575E21DC042E555E269E45B
:101C000075E218C040E055E267EF74E213C04FED93
:101C100054E26BEE74E20EC047EC54E263ED74E202
:101C200009C043ED54E267EC74E204C042E351E2C0
:101C300061E271E20E94652049CF61E081E011C05C
:101C400065E082E011C068E086E00EC064E18FE0EC
:101C50000BC067E185E108C062E289E105C061E08F
:101C600083E20E94092532CF0E9453202FCF2A966B
:101C70000FB6F894DEBF0FBECDBFDF91CF911F919D
:101C80000F91FF90EF90DF90CF90BF90AF909F901B
:101C90008F900895CF93DF93CDB7DEB762970FB6DD
:101CA000F894DEBF0FBECDBF84B7877F84BF0FB669
:101CB000F894A895809160008861809360001092EC
:101CC00060000FBE90E080E80FB6F894809361004A
:101CD000909361000FBE85B7806885BF85B7806827
:101CE00085BF8FEB93E190931702809316020E94B9
:101CF000FC1B0E94A21C8091E20084608093E200A1
:101D00007894809136058823A1F01091E9001F7026
:101D10009091EC00892F817090FD80E8182B109233
:101D2000E9008091E80083FD0E94012C1F70109350
:101D3000E90082E084BD93E095BD9AEF97BD809362
:101D40006E001092190210921A0210921B02109249
:101D50001C020E945E158093040180910401882377
:101D600021F0109240018BE103C08BE18093400190
:101D7000809341010E945E1581110E943A3080914A
:101D8000040180910401811102C094E001C090E03F
:101D90009093260284E0891B8093250201EA11E0DA
:101DA00085EAE82E81E0F82ED8018D918D018F3FD4
:101DB00011F00E94F615E016F106B1F709EA11E0FC
:101DC000BFEAEB2EB1E0FB2EF80181918F018F3F2E
:101DD00011F00E94F615E016F106B1F788E0E8E28E
:101DE000F2E0DF01282F1D922A95E9F7EDE1F2E0FC
:101DF000DF011D928A95E9F780E090E00E9486322B
:101E0000893E9E4F11F00E94B81782E090E00E9438
:101E10007832809374020E94A7179093790480937C
:101E200078040E942C18EFE3FCE93197F1F700C029
:101E300000000E942C180E945E15811102C0E4E08F
:101E400001C0E0E0F0E0E85DFD4F808181FF08C067
:101E50006FEF7FEF80E090E00E94AA320E94381E70
:101E600083E090E00E947832682F70E080E090E09C
:101E70000E94E32A0E945E15811102C00E943D303B
:101E80000E945E15882311F080E001C082E08093FB
:101E90006F0280E8809340050E94CE2E6DE070E0D6
:101EA00085E391E00E94AC2B892B09F043C080911F
:101EB0006F0263E070E081FD3AC082E391E00E942E
:101EC000AC2B892BB9F56DE070E082E291E00E94C5
:101ED000AC2B892B79F50E947E1EDC01CB01805A48
:101EE0009541AF4FBF4F8093640490936504A093D6
:101EF0006604B0936704E3E4F5E080E092E0DF017C
:101F00009C011D9221503040E1F7F0934A07E09385
:101F100049078FEF9FEF909342058093410581E041
:101F200080936904809368041092700203C08FE26A
:101F300091E0C5CF8091270281113BC080E090E005
:101F40000E948632893E9E4F21F00E94B8170E945F
:101F5000432188E090E00E94803260935F04709398
:101F60006004809361049093620480919304836081
:101F7000809393046E7F71F40E94432188E090E087
:101F80000E94803260935F047093600480936104C8
:101F9000909362040E94F5200E946C2080915F045F
:101FA00080FF04C060E086950E94092581E080934F
:101FB000270285E091E09093700480936F04F8E12C
:101FC0002F2E312C44244394512C8091360585309A
:101FD00009F045C000E112E180913605853009F035
:101FE0003AC080913605843021F10E94E31F10929F
:101FF000730440E40FB6F894A895209260000FBED9
:102000004093600083B7817F846083BF83B7816022
:1020100083BF7894889583B78E7F83BF0FB6F8947B
:10202000A8958091600088618093600010926000A4
:102030000FBE80913505882309F4CECF0E942C185D
:10204000E8E2F2E0819181117AC380E392E08E1799
:102050009F07C1F7C1CF0E94ED2A0E94481F0E942E
:102060002C18D82E81110E947E1EA8E2B2E0E5E76E
:10207000F2E000E010E0B02ECD9081918C2549F186
:10208000E12CFF24F394982F9F21F1F00E945E151C
:10209000882399F0EF82B886CF2081E009F480E0B0
:1020A00089870E948A1E8160782F9B878A874F814B
:1020B000588569858B850E942F07F801EB58FD4FE5
:1020C0008081F826F0821AC0E394FF0C96E0E912B2
:1020D000DACF0F5F1F4F0830110569F68FEF8C873D
:1020E0008D871E860E948A1E8160782F988B8F872D
:1020F0004C855D856E8588890E942F0780919204AA
:10210000882309F4CFC080919104E0915F04E695A3
:10211000E81BE0938D04823059F4F0E0ED5AFE4F55
:10212000E4910E2F10E0E6E8EE2EE5E2FE2E6BC005
:10213000863059F4F0E0E05BFE4FE4910E2F10E0A2
:1021400076E7E72E75E2F72E5EC0893061F4E695FA
:10215000F0E0E35BFE4FE4910E2F10E06AEEE62E16
:1021600063E2F62E50C08F3061F4E695F0E0E65B56
:10217000FE4FE4910E2F10E05DE4E52E53E2F52EC4
:1021800042C0853159F4F0E0E95BFE4FE4910E2F37
:1021900010E047ECE42E42E2F42E35C08831F9F02D
:1021A000833249F4E5E4F1E00591149134EFE32E34
:1021B00031E2F32E28C08432C9F08532F1F48E2F3B
:1021C00063E00E942333E92FF0E0EE5BFE4FE491E1
:1021D0000E2F10E021EEE22E2AE1F22E14C008E2CA
:1021E00010E094E3E92E92E2F92E0DC004EF11E025
:1021F00082EAE82E8AE1F82E06C000ED17E0BBE681
:10220000EB2EB0E2FB2E80918E04882361F01092B9
:102210008E040E94231890938C0480938B04109258
:10222000900410928F040E942318E0918B04F09187
:102230008C049C012E1B3F0B2F3F3F4798F52091AC
:1022400032022223B1F010923202209130023091FA
:102250003102821B930B8F3F9F4758F4205D3A4811
:1022600030933102209330028091930488608093F0
:102270009304A0908F04B09090040E0F1F1F109332
:102280008C0400938B048BE894E0F701099580910E
:102290008F0490919004892B29F4AB2819F081E0E8
:1022A0008093320280916904882309F456C1809199
:1022B0007102909172020E946F1EC29708F44DC085
:1022C0000E948A1E909372028093710283E495E0CB
:1022D00090934A07809349070E945E158823C9F1AD
:1022E0008DE791E00E94822B80913302909134021D
:1022F000A0913502B091360287319105A8F4FC0116
:10230000EE59FF4F0C94513386E791E00BC08DE6F8
:1023100091E008C085E691E005C08EE591E002C03D
:1023200087E591E00E94902BE7E3F2E00190002026
:10233000E9F78F0101501109A7E3EA2EA2E0FA2E76
:10234000E016F10650F4D7018D917D010E94022B19
:10235000F7CF85E891E00E94822B80916904882361
:1023600009F4E0C020914105309142052115310565
:1023700009F4D8C0809170028111D4C0082F10E0F8
:102380007201082E02C0EE0CFF1C0A94E2F7A901AC
:102390004E215F21452B11F48F5FF0CF90916F029A
:1023A0009801F5E0220F331FFA95E1F790FD12C076
:1023B0008295880F807680931301220F232F221F8E
:1023C000330B319520931601815E80931401109296
:1023D000170112C075E0369527957A95E1F7220F1F
:1023E000220F220F2093130110921601295F2093D0
:1023F000140183E08093170124E630E047E050E0C9
:1024000061E171E088E70E94852F892B09F08AC07D
:1024100080916F0280FD22C0A80165E0440F551F26
:102420006A95E1F74D5B5A4F04E610E020E230E098
:1024300060E488E70E94AC2F892B09F073C00E94EA
:10244000FD1FE094F0948091410590914205E822AF
:10245000F922F0924205E092410564C080E2EFE487
:10246000F2E0DF011D928A95E9F7A80135E0440FFB
:10247000551F3A95E1F7E3EBF1E0FA8BE98B0FEAB0
:1024800011E0A989BA898D91BA8BA98BF801919134
:102490008F01BA01690F711D6D5B7A4F90E0815B0E
:1024A0009D4FFC0127E0922E9F01281B390B742CB5
:1024B00001C0770C2A95EAF75B01812CD501CD90FC
:1024C0005D01C720292D28192770622E022E000CCD
:1024D000330BBC2D01C0BB0F6A94EAF76B2E31950C
:1024E000219531092770332701C0C6942A95EAF750
:1024F0006C28C0806C286082839428E08212DECF32
:102500009A9431963FEF9312CFCF89899A89875B4E
:10251000914009F0B6CF04E610E020E230E04FE44D
:1025200052E086CF809168048823B9F00E947E1E15
:102530000091640410916504209166043091670451
:10254000DC01CB01801B910BA20BB30B8F3F9F4F84
:10255000AF4FBF4710F40E94E31FD1100E94FD1F30
:1025600086E0E5E8F4E0DE01119601900D928A958F
:10257000E1F7E0908704F0908804009189041091BD
:102580008A04109287041092880410928904109291
:102590008A04E11003C0FF2009F451C08091830434
:1025A000909184040E946F1E9C0190917F04992356
:1025B00009F4DBC02333310508F441C09F3F19F013
:1025C0009F5F90937F04EE2061F00E9433261E14DB
:1025D00014F09FEF01C091E0899F802D112480931A
:1025E0008704FF2061F00E9433261F1414F09FEF30
:1025F00001C091E0899F802D11248093880430913F
:1026000087043323E1F0209188042223C1F045EBB5
:102610003403C0011124992319F09093870403C057
:1026200081E08093870435EB2303C00111249923B3
:1026300019F09093880403C081E08093880401110D
:1026400003C0112309F451C0809181049091820448
:102650000E946F1E9C0190917E04992309F48AC008
:102660002536310508F441C09F3F19F09F5F9093D4
:102670007E04002361F00E941126101614F09FEFD3
:1026800001C091E0899F802D11248093890411233A
:1026900061F00E941126111614F09FEF01C091E025
:1026A000899F802D112480938A04309189043323DB
:1026B000E1F020918A042223C1F045EB3403C001EC
:1026C0001124992319F09093890403C081E0809329
:1026D000890435EB2303C0011124992319F0909349
:1026E0008A0403C081E080938A0480918704811169
:1026F0000BC080918804811107C0809189048111E9
:1027000003C080918A0481110E94AE26EB82FC8274
:102710000D831E8386E0FE013196A5E8B4E00190AA
:102720000D928A95E1F70E94481F909173028917D4
:1027300009F44BCC0E94481F8093730246CC09BD1C
:1027400019BD09B400FEFDCF8091D8008F7D809324
:10275000D8008091E00082608093E0008091E000EA
:1027600081FDFCCF0E94ED2A37CC2D32314008F09C
:1027700027CF65CF2D32314008F078CFB6CF80E03B
:1027800008959091780492FF0DC0282F2871283069
:1027900019F4877F846006C0282F2471243011F437
:1027A0008B7F886093FF0DC0282F2871283119F482
:1027B000877E846106C0282F2471243111F48B7E1A
:1027C00088612091790420FF0DC0382F387138308E
:1027D00019F4877F816006C0382F3171313011F4D0
:1027E0008E7F886021FF0DC0282F2871283119F4B1
:1027F000877E816106C0282F2171213111F48E7EE0
:10280000886194FD877E0895AF92BF92CF92DF9248
:10281000EF92FF920F931F93CF93DF937C015B01A5
:102820006A018091AE028A3018F001E010E002C027
:102830000AE010E0C1E0D0E0F894B501C701F6016C
:1028400009957894811115C021960C171D0794F0F5
:10285000CC9F9001CD9F300D300D112480E090E091
:1028600045E34A95F1F70000019682179307C1F7F7
:10287000E3CF81E0DF91CF911F910F91FF90EF9017
:10288000DF90CF90BF90AF900895CF93DF93CDB7F7
:10289000DEB728970FB6F894DEBF0FBECDBF85E038
:1028A000EFE5F4E0DE01119601900D928A95E1F7D3
:1028B0008091910490919204A09193048E839F83C0
:1028C000A88728854091AA025091AB026091AC0282
:1028D0007091AD023FB7F8948091740490917504A3
:1028E000A0917604B09177043FBF841B950BA60B93
:1028F000B70B84369105A105B10510F4222329F107
:102900008091390190913A0187569D4F409138014D
:1029100050E04930510510F048E050E0BE016F5FD3
:102920007F4F0E94803383E090E00E944731892BE3
:1029300011F080E00DC00E947E1E6093AA02709389
:10294000AB028093AC029093AD021092930481E0AD
:1029500028960FB6F894DEBF0FBECDBFDF91CF91A2
:102960000895EF92FF921F93CF93DF9300D000D092
:102970001F92CDB7DEB77B0180E090E00E94473127
:10298000892B09F065C040911D0150E041155105AA
:1029900011F041E050E060911E0170911F016756F7
:1029A0007D4FCE0105960E94803340919102509157
:1029B000920260919302709194022FB7F8948091E3
:1029C000740490917504A0917604B09177042FBFA0
:1029D000841B950BA60BB70B84369105A105B10599
:1029E00038F48AE992E00E94952B9D81891791F134
:1029F00081E090E00E944731892BA1F440912701AA
:102A000050E04530510510F044E050E0609128015D
:102A10007091290167567D4FCE0101960E94803347
:102A200011E001C010E08AE992E00E94952B91E04C
:102A30002D81281390E0192341F10E947E1E60939E
:102A400091027093920280939302909394020FC02C
:102A500010E001C011E080919A0290919B02A09138
:102A60009C02B0919D0289839A83AB83BC8311231E
:102A700061F089819A81AB81BC8180938D029093B2
:102A80008E02A0938F02B093900280918D0290915C
:102A90008E02A0918F02B0919002F7018083918302
:102AA000A283B383812F0F900F900F900F900F9000
:102AB000DF91CF911F91FF90EF90089580918C024C
:102AC000811118C08091D80080618093D8008AE17C
:102AD0008A95F1F700C08091D90080FD02C082E0A4
:102AE00001C081E080938C02823021F40E94FC1BA3
:102AF0001092360581E090918C02913009F080E0CF
:102B000008950F931F930E945E15882321F01F9153
:102B10000F910C947E1E0E947E1E0091190210914E
:102B20001A0220911B0230911C02600F711F821F3C
:102B3000931F1F910F910895CF93DF9300D000D082
:102B4000CDB7DEB740919502509196026091970201
:102B5000709198022FB7F894809174049091750445
:102B6000A0917604B09177042FBF841B950BA60B20
:102B7000B70B84369105A105B10580F10E9481153E
:102B8000DC01CB010296A11DB11D89839A83AB8321
:102B9000BC8380912F019091300187569D4F4091C9
:102BA0002E0150E04530510510F044E050E0BE01E8
:102BB0006F5F7F4F0E94803382E090E00E94473138
:102BC000892B11F080E00BC00E947E1E609395025D
:102BD00070939602809397029093980281E00F90F1
:102BE0000F900F900F90DF91CF910895F894E82FF8
:102BF000E295EF70F0E031A1282F2F7081E090E096
:102C000001C0880F2A95EAF7982F9095932391A3F6
:102C100092A1892B82A378940895CF93DF93823871
:102C2000910569F1B0F48133910509F46FC048F45E
:102C30008932910509F465C08A32910509F46BC0A7
:102C40008AC08533910509F457C089339105B9F0DD
:102C500082C0833E910571F138F4803E9105B1F058
:102C6000823E910511F177C0863E9105B9F1873E0C
:102C70009105C9F1843E910509F06DC024C02091F1
:102C8000780420FD53C021FD51C065C080917804B7
:102C900080FD46C08091790480FF48C0809178040F
:102CA00084FD50C183EE90E04FC18091780482FF93
:102CB0003AC0F4CF8091780482FD35C080917904C8
:102CC00080FD34C0EBCF8091790481FF35C08091C5
:102CD000780484FD37C187EE90E036C18091780496
:102CE00083FF27C0F4CF8091780483FD22C08091B8
:102CF000790481FD21C0EBCF8091780485FD1FC050
:102D000021C08091780485FD1DC019C08091780490
:102D100086FD1BC01DC08091780486FD19C015C0BA
:102D200089E390E011C182EE90E00EC180EE90E068
:102D30000BC186EE90E008C184EE90E005C189E207
:102D400090E002C185E390E0FFC08AE290E0FCC021
:102D500081E390E0F9C0811531E5930708F069C07F
:102D6000811540E59407F0F09C0174E036952795B5
:102D70007A95E1F7922F9370482F437021E030E06D
:102D800002C0220F331F4A95E2F73C68392B982F77
:102D90009F709695969540E2949FC0011124822BD6
:102DA000932BD2C0883E910568F5803E910508F0CE
:102DB000CBC0883A9105B8F4853A910548F0855A18
:102DC000E82FF0E0E954FE4F808190E09064BCC0B1
:102DD0008130910509F4B3C008F4B4C08430910582
:102DE00008F4B0C0B1C08F3B910508F0ABC0885A61
:102DF000E82FF0E0EE0FFF1FE654FE4F8081918137
:102E00009464A2C0811520E2920758F4811531E044
:102E1000930708F099C08D3E910508F493C0906522
:102E200093C0811540E4940708F48CC09F70906AA9
:102E30008BC0811525E5920708F042C0811534E565
:102E4000930728F0982F8827846F906A7DC081159A
:102E500043E59407B0F09C012370332741E050E034
:102E600002C0440F551F2A95E2F7282F2695269574
:102E700080E2289F90011124CA01822B932B9A682B
:102E800063C0811522E5920728F4982F8827816F67
:102E9000906A5AC09C012370332741E050E002C081
:102EA000440F551F2A95E2F7282F2695269580E294
:102EB000289F90011124CA01822B932B9C6844C047
:102EC000EC01811539E59307A8F48115984528F0A0
:102ED0009C2F8827806F906A37C0C11586E5D80778
:102EE00088F58C2F0E94C1138F7190E0982F88274E
:102EF00090622AC081152AE5920790F48C2F8F707A
:102F00000E94C11394E0D695C7959A95E1F7CF70CA
:102F1000D0E0DC2FCC27D0699E01282BC90114C03A
:102F200090568115904270F48D2F8F710E94C113BD
:102F3000282F2F71CE0199279062922B05C081E036
:102F400090E002C080E090E0DF91CF910895CF93B0
:102F500084E090E00E947832C82F82E290E00E94E4
:102F600078322C2F30E0A901582BCA01CF91089557
:102F700069EE7EEF80E090E00E94AA3260E082E09D
:102F800090E00E948C3260E083E090E00E948C32FE
:102F900010927E0210927F021092800210928102A3
:102FA00060E084E090E00E948C3260E082E290E099
:102FB0000E948C3260E085E090E00E948C3260E0FC
:102FC00086E090E00E948C326FEF87E090E00E94F4
:102FD0008C3240E050E0BA0188E090E00E949E32DE
:102FE00060E08DE090E00E948C3240E050E0BA0159
:102FF00088E190E00E949E3260E087E190E00E94CC
:103000008C3240E050E0BA018CE190E00E949E32A8
:1030100060E070E080E290E00E94AA3240E050E080
:10302000BA0188E190E00E949E3240E050E0BA018F
:103030008FE090E00E949E3240E050E0BA0183E1D0
:1030400090E00C949E320E945E1581110C948A1EB1
:103050000E948115CB0108957F928F929F92AF922B
:10306000BF92CF92DF92EF92FF920F931F93CF9375
:10307000DF93CDB7DEB72C970FB6F894DEBF0FBE47
:10308000CDBFAE014F5F5F4F7A0188E0DA011D923C
:103090008A95E9F701EA11E06A0185EAA82E81E044
:1030A000B82E88248394912CF80180818F3F09F4F5
:1030B00041C0F894E82FE295EF70F0E021A18F7005
:1030C000A40102C0440F551F8A95E2F7CA01922F4E
:1030D000982B91A392A18095892382A3789400C014
:1030E000E9EAF1E0712C31E021912F3F89F0A22F24
:1030F000A295AF70B0E090968C9190E02F7002C0D6
:10310000959587952A95E2F780FD02C0832F01C02F
:1031100080E0782A330F51E0EF3AF50729F7D8011C
:103120008C918F3F11F00E94F615B0EABA95F1F735
:10313000F60170820F5F1F4FFFEFCF1ADF0AA01654
:10314000B10609F0B1CF48E050E0B7018DE192E05F
:103150000E9473338C01892B41F088E0F701ADE1C7
:10316000B2E001900D928A95E1F7F09026020115E8
:10317000110549F081E0809384020E948A1E909399
:10318000830280938202809184028823B9F0809127
:103190008202909183020E946F1E059778F0ADE144
:1031A000B2E0EF2DF0E0E85DFD4F81E292E02D917D
:1031B00021938A179B07D9F71092840201151105F4
:1031C00009F012C10E945E15E0912602882309F4DD
:1031D00077C019861A861B861C860E2F10E0085DA4
:1031E0001D4F8091AE028A3058F441EB54E1BE018C
:1031F000675F7F4FC8010E9404148823A1F10AC0B1
:1032000080918502909186020E946F1E843F9140BA
:1032100060F73AC04CE955E1BE01675F7F4FC801D6
:103220000E9404148823F9F045E454E1BE01675F6D
:103230007F4FC8010E9404148823A9F01092AE02A7
:103240008091250290E044E050E0BE01675F7F4F2F
:10325000885D9D4F0E94733321E020938B02892B60
:1032600001F500E0C3C08091AE028F3F19F08F5F7F
:103270008093AE028091AE028A3010F30E948A1EC3
:10328000909386028093850280918B02882349F374
:10329000FE01399684E0DF011D928A95E9F71092CC
:1032A0008B02E0912502F0E0E85DFD4F89859A856B
:1032B000AB85BC8580839183A283B38301E096C0F4
:1032C000F0E0E85DFD4FF89484E0AAE9B2E00190F7
:1032D0000D928A95E1F78AE992E00E94952B8093FE
:1032E00099027894F894C0909E02D0909F02E0904A
:1032F000A002F090A1028091870290918802A09193
:103300008902B0918A02C816D906EA06FB06D1F0F6
:10331000C0928702D0928802E0928902F0928A02DB
:103320000E945E1581110EC00E947E1EC61AD70A29
:10333000E80AF90AC0921902D0921A02E0921B021E
:10334000F0921C027894F8948091A902882309F4E1
:1033500049C080FF24C09091A20280915F0490FF39
:1033600009C0816080935F0460E0892F86950E9488
:10337000092515C08E7F80935F040E946C20809188
:103380009304816080939304BFEFE0E7F2E0B150D3
:10339000E040F040E1F700C000000E948E208091E4
:1033A000A90281FF09C020E04091A5026091A4021A
:1033B0008091A3020E9425248091A90282FF09C066
:1033C0008091A802882319F00E94732002C00E94F5
:1033D0006C208091A90283FF03C081E080938E045A
:1033E0001092A902789402C001E010E0802F2C9680
:1033F0000FB6F894DEBF0FBECDBFDF91CF911F9106
:103400000F91FF90EF90DF90CF90BF90AF909F9083
:103410008F907F900895089580911305089580936B
:103420007A0470937C0460937B0480913605843029
:1034300001F582E08093E9008FEF9091E8008150E0
:1034400095FD06C095ED9A95F1F700008111F5CF35
:103450008091E80085FF0DC040E050E063E070E03F
:103460008AE794E00E94D52B8091E8008E778093C4
:10347000E8000895BC0184E00C940F1ABC0183E0BD
:103480000C940F1A22E02093E9002FEF3091E8000E
:10349000215035FD06C035ED3A95F1F700002111B8
:1034A000F5CF2091E80025FF0BC040E050E066E03A
:1034B00070E00E94D52B8091E8008E778093E80021
:1034C0000895CF93DF9320915301222339F0209167
:1034D000780427FF03C060E222E002C068E021E038
:1034E0002093E9002FEF3091E800215035FD06C010
:1034F00035ED3A95F1F700002111F5CF2091E80064
:1035000025FF1DC0EC0180915301811105C040E0F1
:1035100050E068E070E003C070E040E050E0CE01B1
:103520000E94D52B8091E8008E778093E80080E29E
:10353000FE01A4E1B5E001900D928A95E1F7DF91DB
:10354000CF9108950F931F93CF93DF93EC0100E089
:1035500010E080914401282F30E00217130724F572
:10356000909142019801290F311DA901440F551F67
:10357000240F351F21553D4F869590E04C8108174B
:1035800019071CF4442331F002C0411103C04091DB
:10359000620401C040E060916104809160040E9477
:1035A0005B210F5F1F4FD5CF0E948E208C8190E052
:1035B0000196817099278C83DF91CF911F910F9194
:1035C00008957F928F929F92AF92BF92CF92DF9297
:1035D000EF92FF920F931F93CF93DF93FC018280B2
:1035E000748081E08483E5ECF1E09490E4E4F2E01F
:1035F000E491A12CF5E0BF2ECC24CA94D12CE9197A
:103600000E2F10E080914401A81608F0A2C0EA2C09
:10361000F12C22E0281568F0BE9CF001BF9CF00D53
:103620001124EF5AFC4F80916004808380916104E3
:10363000818371100AC0BE9CF001BF9CF00D112463
:10364000EF5AFC4F138212826AC0BE9CE001BF9CFD
:10365000D00D1124CF5ADC4F8B818823F9F0815093
:103660008B832FEF829FC00111246C8170E00E9438
:10367000FF31FB01FF27EB53FE4F8491E82FE9193F
:103680002FEFE29FC0011124B8010E94FF31809109
:103690006204689FB00111247A8341C00E945F32A6
:1036A000209162042695215830E0A901440F551F4E
:1036B000322F2227240F351F232F332782179307FA
:1036C00074F582E0881588F40E945F32B6010E948A
:1036D0003D3388830E945F32209161042695622FDA
:1036E00070E00E943D33280F2983BE9CF001BF9CEF
:1036F000F00D1124EF5AFC4F128280916204843144
:1037000020F0893C18F088EC01C084E1BE9CF001F7
:10371000BF9CF00D1124EF5AFC4F8483838380916A
:1037200042019701280F311DC901880F991F280FE9
:10373000391F21553D4FBE9CF001BF9CF00D112457
:10374000EF5AFC4F4281618180810E945B21A394EA
:1037500059CFDF91CF911F910F91FF90EF90DF90A4
:10376000CF90BF90AF909F908F907F900C948E20C1
:103770001F920F920FB60F9211242F933F934F93E6
:103780005F936F937F938F939F93AF93BF93CF93E9
:10379000DF93EF93FF93C091E900CF708091EC002D
:1037A000D82FD17080FDD0E81092E9008091F00010
:1037B000877F8093F00078940E94012C1092E9009A
:1037C0008091F00088608093F000CD2BCF70C09383
:1037D000E900FF91EF91DF91CF91BF91AF919F9160
:1037E0008F917F916F915F914F913F912F910F90AA
:1037F0000FBE0F901F901895E8EDF0E080818E7F4E
:1038000080831092E2001092DA001092E100A0EEA4
:10381000B0E08C9181608C9380818F77808319BC1C
:10382000A7EDB0E08C918E7F8C9380818F7E80831A
:1038300010927D0408952091E4003091E50095E612
:103840004091EC00842F817040FF23C08091E800FC
:1038500080FD1DC080913605882399F0853099F050
:103860008091EB0085FD11C04091E4005091E5008E
:103870002417350729F3915011F09A01E1CF84E024
:10388000089582E0089583E0089581E0089580E03E
:1038900008954091E80042FFDDCF089580913805FA
:1038A00087FF11C08091E80082FD05C08091360538
:1038B0008111F8CF11C08091E8008B770BC0809107
:1038C0003605882349F08091E80080FFF8CF809189
:1038D000E8008E778093E8000895982F973068F578
:1038E0009093E900981739F07091EC002091ED0069
:1038F0005091F00003C0242F762F50E021FD02C02C
:103900009F5FECCF3091EB003E7F3093EB00309126
:10391000ED003D7F3093ED003091EB00316030934E
:10392000EB007093EC002093ED005093F000209199
:10393000EE0027FDE5CF80E008958F708093E900C9
:1039400081E00895CF92DF92EF92FF920F931F9341
:10395000CF93DF93C8EDD0E088818F7E8883E7ED39
:10396000F0E080818160808384E082BF81E0809389
:103970007D0488818E7F888302EE10E0F80110823A
:103980001092DA0081EEC82ED12CF60110828881C7
:103990008F77888388818068888388818F7D8883FA
:1039A00019BC109236051092370510923505109209
:1039B000340590EEE92EF12CF70180818B7F808316
:1039C00088818160888342E060E080E00E946D1C15
:1039D000F60180818E7F8083F80180818160808301
:1039E000808188608083F70180818E7F80838881D9
:1039F00080618883DF91CF911F910F91FF90EF90AD
:103A0000DF90CF9008951F920F920FB60F9211245E
:103A10002F933F934F935F936F937F938F939F93D6
:103A2000AF93BF93EF93FF938091E10082FF09C0B2
:103A30008091E20082FF05C08091E1008B7F80933E
:103A4000E1008091DA0080FF2AC08091D80080FFD9
:103A500026C08091DA008E7F8093DA008091D900B1
:103A600080FF18C080E189BD82E189BD09B400FEF4
:103A7000FDCF81E08093360580917D0481110FC0D8
:103A80000E94FC1B0E94A21C8091E2008460809333
:103A9000E20005C019BC1092360510927D04809199
:103AA000E10080FF17C08091E20080FF13C0809189
:103AB000E2008E7F8093E2008091E200806180933B
:103AC000E2008091D80080628093D80019BC85E024
:103AD000809336058091E10084FF30C08091E20040
:103AE00084FF2CC080E189BD82E189BD09B400FE5C
:103AF000FDCF8091D8008F7D8093D8008091E10028
:103B00008F7E8093E1008091E2008F7E8093E200BF
:103B10008091E20081608093E200809137058823E4
:103B200011F084E007C08091E30087FD02C081E0CE
:103B300001C083E080933605809136058091E100D5
:103B400083FF27C08091E20083FF23C08091E100C2
:103B5000877F8093E10082E08093360510923705DD
:103B60008091E1008E7F8093E1008091E2008E7F62
:103B70008093E2008091E20080618093E20042E065
:103B800060E080E00E946D1C8091F000886080936E
:103B9000F000FF91EF91BF91AF919F918F917F9135
:103BA0006F915F914F913F912F910F900FBE0F90AA
:103BB0001F90189520913E0530913F052617370735
:103BC00048F06115710539F42091E8002E772093B3
:103BD000E80001C0B901FC0120E06115710579F12F
:103BE000809136058823F1F18530F1F18091E8006C
:103BF00083FD3CC08091E80082FD2EC08091E800EA
:103C000080FFEBCF2091F3008091F20090E0922BA7
:103C10006115710551F08830910538F42191209398
:103C2000F100615071090196F3CF21E0089709F086
:103C300020E08091E8008E778093E800CECF2111BC
:103C4000CFCF0AC080913605882361F0853061F0BE
:103C50008091E80083FD0AC08091E80082FFF2CFE6
:103C600080E0089582E0089583E0089581E008955A
:103C700087E797E790930108809300089AE088E12E
:103C80000FB6F894A895809360000FBE90936000E3
:103C9000FFCF78941F920F920FB60F9211248F933B
:103CA0009F93AF93BF938091740490917504A091FA
:103CB0007604B09177040196A11DB11D8093740420
:103CC00090937504A0937604B0937704BF91AF915D
:103CD0009F918F910F900FBE0F901F9018959C0190
:103CE0004FB7F8948091740490917504A091760474
:103CF000B09177044FBF821B930B08952FB7F894B0
:103D000060917404709175048091760490917704A9
:103D10002FBF08952FB7F894809174049091750483
:103D2000A0917604B09177042FBF08951F920F924F
:103D30000FB60F9211248F939F93AF93BF938091EF
:103D40007304811113C08091740490917504A09143
:103D50007604B09177044196A11DB11D809374043F
:103D600090937504A0937604B0937704BF91AF91BC
:103D70009F918F910F900FBE0F901F9018952091DB
:103D800053012223C9F02091780427FF15C0262F64
:103D90002695269526952E31C8F4FC01E20FF11DDB
:103DA000677081E090E001C0880F6A95EAF780951E
:103DB0009281892382830895FC01069622816213F1
:103DC00001C012823196E817F907C1F708952091D2
:103DD00053012223C1F02091780427FF14C0262F1D
:103DE0002695269526952E3130F5FC01E20FF11D22
:103DF000677081E090E001C0880F6A95EAF79281D0
:103E0000892B82830895FC0132962FEF30E0419197
:103E1000641789F02F3F19F4411101C0232F3F5F30
:103E20003630A9F72F3F39F0FC01E20FF11D27FDD5
:103E3000FA95628308950895209171043091720477
:103E40002817390771F09093720480937104E09100
:103E50006F04F0917004309721F00084F185E02D1B
:103E60000994089520916D0430916E042817390744
:103E700071F090936E0480936D04E0916F04F09163
:103E80007004309721F00680F781E02D09940895A1
:103E90000E945E15882351F0E0916F04F091700448
:103EA000309721F00190F081E02D099480E0089591
:103EB000EF92FF920F93CF93DF93C42FD22FFC0189
:103EC00082818823D1F040936C040E948A1E9093D3
:103ED0006B0480936A0480E28C0F883008F06DC018
:103EE000C77081E001C0880FCA95EAF7DF91CF91D2
:103EF0000F91FF90EF900C947B0680916C04481317
:103F00004BC080916A0490916B040E946F1E883CA4
:103F1000910508F041C0CD17C9F080E28C0F8830C0
:103F200040F4C77081E001C0880FCA95EAF70E948B
:103F3000740680E28D0F883048F481E09D2F9770E1
:103F400001C0880F9A95EAF70E947B06093319F0A1
:103F5000E12CF12C03C080E5E82EF12C802F0E948B
:103F6000B706E114F10451F08FE99FE00197F1F7F2
:103F700000C0000091E0E91AF108F3CF802F0E9401
:103F8000850680E28D0F8830C0F4D77081E001C0D3
:103F9000880FDA95EAF70AC080E28C0F883068F45F
:103FA000C77081E001C0880FCA95EAF7DF91CF9111
:103FB0000F91FF90EF900C947406DF91CF910F91C9
:103FC000FF90EF9008958091690490916804882390
:103FD00089F0992369F062E070E087EC92E00E943A
:103FE000AC2B892B19F08091680408951092680415
:103FF0009091680481E0892708958091690488235D
:10400000F9F00E947E1EDC01CB01805A9541AF4F32
:10401000BF4F8093640490936504A0936604B093AB
:1040200067048091680481110BC062E070E085EC48
:1040300092E00E94AC2B892B19F481E080936804F4
:10404000809168040895CF93E82F2091490730911B
:104050004A072354354040914005642F70E0C90160
:104060000E94FF31481B842FEE2351F066E00E942E
:104070002333C82FC150A8F080E20E94022BFACF50
:10408000A901480F511D4115524018F080E020E071
:1040900030E0280F311D2D5B3A4F30934A072093B3
:1040A0004907CF91089590915F0490FF04C09695C1
:1040B000981740F003C0811105C090E0961710F4E6
:1040C0000C94522561E00C940925882311F0FA0123
:1040D00001C0FB0109940895E1E9F4E011828281B5
:1040E00084608283089560915F04669570E04BE080
:1040F00050E085E491E00E946633892B19F481E059
:10410000809392040E94231890938C0480938B04D4
:1041100080919304846080939304089530914101C9
:1041200080915F0480FF16C0E091400163E0E69F4C
:10413000F0011124E155FD4F539A8BB1877F9BB15C
:1041400098602FB7F894AF0163E0369F400D511D82
:10415000112414C08091420190914301891720F7E6
:10416000E82FF0E0AF01440F551FE40FF51FE155B4
:10417000FD4F1182108212828F5FF0CFE417F50796
:1041800089F0319168E09BB9000000C037FF8BB91E
:10419000330F000000C000C000C08BB900C06A959A
:1041A00091F7ECCF2FBF8FE594E00197F1F700C0B6
:1041B0000000089590915F0490FF16C09091420115
:1041C00020914301921770F4E92FF0E0DF01AA0F6C
:1041D000BB1FEA0FFB1FE155FD4F818360834283C4
:1041E0009F5FF0CF0C948E20089580915F04282F5C
:1041F000269530E02115310519F48170826005C0E3
:104200002B32310524F08170846580935F048091A6
:104210006204893718F088E7809362040895CF928A
:10422000DF92EF92FF926B017C010E94F520B701B3
:10423000A60188E090E0FF90EF90DF90CF900C9483
:104240009E3280916304882319F081508093630427
:1042500060915F04709160048091610490916204A8
:104260000C940F2180916304833018F48F5F809346
:10427000630460915F047091600480916104909187
:1042800062040C940F21EFE5F4E083E08083118257
:104290008FEF828388E783831482A1E9B4E01296CA
:1042A0008C911297836012968C93608171818281C8
:1042B00093810C940F21AF92BF92CF92DF92EF9235
:1042C000FF920F931F93CF93DF93E82EF62EE90111
:1042D000493708F048E7E42FF0E0F11006C0E75353
:1042E000FD4FE4914E2F2E2F71C00F2D10E0E7539C
:1042F000FD4F4491F42FC42ED12C26E0E29EC00144
:1043000011242FEF30E0B9010E94FF315BEA560320
:10431000C001579F900D11248E0D911D8E0D911D82
:10432000582F550F580FD901A01BB10BAC9DC001E0
:10433000AD9D900DBC9D900D1124E92FF59ED001EF
:104340001124AB2FBB277901EA1AFB0AEC9CD001A0
:10435000ED9CB00DFC9CB00D11245901A51AB108BB
:10436000A09E7001A19EF00CB09EF00C1124EF2CC9
:10437000FF242E193F092C9D80012D9D100D3C9D81
:10438000100D1124212F6230710591F048F4611550
:104390007105E1F061307105B9F4242F4B2F16C07F
:1043A0006430710569F040F06630710579F00CC039
:1043B000242F492FE12F0AC0492FEF2F2B2F06C0A2
:1043C000292FE42F412F02C0292FEB2F4983288367
:1043D000EA83DF91CF911F910F91FF90EF90DF90D3
:1043E000CF90BF90AF9008950F931F93CF93DF931B
:1043F00000D01F92CDB7DEB78C0180919604811159
:104400000AC09E012F5F3F4F48E76FEF0E945B217C
:104410008A8180939604F8018481813051F028F0DC
:10442000823061F4409196040AC08091960440E085
:1044300007C06091960440E080E003C040E080E067
:1044400060E00E94DA20F801848190E0019663E048
:1044500070E00E943D3384830F900F900F90DF91A6
:10446000CF911F910F9108958F929F92AF92BF921B
:10447000CF92DF92EF92FF920F931F93CF93DF9330
:104480008C01FC014481C42FD0E09E01DE010E941A
:1044900014339B01AC010E94DF326B017C01E0E22E
:1044A000F0E0EC1BFD0BA5E5B0E09B01AC010E9428
:1044B000DF324B015C019F01DF010E9457339B01FA
:1044C000AC010E94EA329B01AC012C0D3D1D4E1D3A
:1044D0005F1DC501B4010E94F232C22FD22F2A32D1
:1044E00028F4F3E02F9F900111240DC025E530E062
:1044F0002C1B3109C901880F991F280F391F37FF5D
:1045000002C02F5F3F4F35952795C22FC095F12CE4
:1045100085E5E82EED1A80914401F816C8F4F1FC07
:1045200002C08E2D01C08D2F909142012F2D30E0C1
:10453000290F311DA901440F551F240F351F215587
:104540003D4F4C2F609161040E945B21F394E3CFB7
:104550000E948E20F8018481811102C091E003C085
:10456000803219F49FEF9093520190915201890F7C
:10457000F8018483DF91CF911F910F91FF90EF900D
:10458000DF90CF90BF90AF909F908F9008951F9332
:10459000CF93DF93EC018C81811109C081E08C8382
:1045A0001092950492E09093510180935001809174
:1045B000420190914301891770F4E82FF0E09F01C8
:1045C000220F331FE20FF31FE155FD4F11821082BE
:1045D00012828F5FF0CF10E0609144011617C0F592
:1045E000E12FF0E070E0CF010E943D3320914201C5
:1045F000820F20919504022E000C330B90E0E217FD
:10460000F307CCF020915101022E000C330B2E1732
:104610003F078CF09C01220F331F820F931F9C01D8
:1046200021553D4F40916204609161048091600486
:104630000E945B210BC0FC01EE0FFF1F8E0F9F1F1E
:10464000FC01E155FD4F1182108212821F5FC4CF21
:104650000E948E208091500120919504280F209374
:10466000950490915101980F9093510119165CF4A3
:10467000022E000C330B4091440150E0415051098F
:104680002417350734F0819580935001813009F467
:104690001C82DF91CF911F9108958F929F92AF92CC
:1046A000BF92CF92DF92EF92FF920F931F93CF931F
:1046B000DF93EC018A8180FF03C0BB24BA9402C05F
:1046C000BB24B3948C8181110DC081E0B81206C067
:1046D0008091440181508093940402C0109294040C
:1046E00081E08C83A12C46E3942E80914401A8168E
:1046F00008F044C080914201CA2CD12C8601080FD9
:10470000111DC801880F991F080F191F01551D4F52
:10471000F80111821082128234E0E32EF12C812CF8
:1047200080919404880D87332CF0692D0E942F33DB
:10473000892F05C087FF03C090914401890F082E7F
:10474000000C990BC816D90691F4809162048E9DD5
:10475000A0018F9D500D112455954795559547956E
:10476000980160916104809160040E945B218B0C30
:10477000F1E0EF1AF108A1F6A394B7CF0E948E20C2
:104780008091940491E0B9120EC0811107C080910C
:1047900044018150809394041C820FC08150809307
:1047A0009404BC820AC090E001966091440170E0DC
:1047B0000E943D33809394048C83DF91CF911F91AD
:1047C0000F91FF90EF90DF90CF90BF90AF909F90B0
:1047D0008F900895FF920F931F93CF93DF93EC0177
:1047E000F12C0FEF10E060914401F616F0F4809187
:1047F00042012F2D30E0280F311DC901880F991F6C
:10480000280F391F21553D4F70E0C8010E943D33EC
:10481000962F8C814091620460916104F99E800D15
:1048200011240E945B21F394DECF0E948E209A8196
:104830008C8190FF02C08F5F01C081508C83DF911B
:10484000CF911F910F91FF900895AF92BF92CF9299
:10485000DF92EF92FF920F931F93CF93DF9300D0DD
:104860001F92CDB7DEB7182FF62E042FE22E9091AF
:104870005F0490FF7EC0E92FE695AE2FB0E0A65111
:10488000BE4F8C91809391049E7F923061F49E0183
:104890002F5F3F4F812F0E945B214B8169818A816D
:1048A0000E94DA2043C0823019F4009162043EC0B5
:1048B000863019F41091600439C08930D9F38931F8
:1048C000A9F5E9518E2F8170D82EE695F0E0E753D7
:1048D000FC4FA590B490C12CBB2460914401C61636
:1048E00018F52C2D30E0A29EC001A39E900DB29E23
:1048F000900D112470E00E94FF31812FD11002C071
:10490000860F01C0861B90914201290F311DA9011C
:10491000440F551F240F351F21553D4F402F6F2D3C
:104920000E945B21C394D9CF0E948E2080916004A5
:10493000181308C080916104F81204C080916204C9
:10494000081729F080919304826080939304109358
:104950006004F092610400936204EE2051F06091D3
:104960005F047091600480916104909162040E94E0
:104970000F210F900F900F90DF91CF911F910F910A
:10498000FF90EF90DF90CF90BF90AF900895EFE54C
:10499000F4E0438121E1421B08F440E021E0628120
:1049A00081810C942524EFE5F4E0438121E1420F5D
:1049B00008F44FEF21E0628181810C942524EFE51A
:1049C000F4E0628121E1621B08F460E021E04381B0
:1049D00081810C942524EFE5F4E0628121E1620FEE
:1049E00008F46FEF21E0438181810C942524EFE5E9
:1049F000F4E0818121E0438162818A500C94252476
:104A0000EFE5F4E0818121E043816281865F0C94CF
:104A1000252490915F0490FF3BC09170811102C0EA
:104A2000926006C08B3210F0946502C0880F982BFC
:104A300090935F0480919304816080939304662334
:104A400051F060915F0470916004809161049091D5
:104A500062040E940F2160915F04669570E04BE054
:104A600050E085E491E00E946633892B19F00E94A2
:104A70006C2002C00E94732081E080938E0420E0AD
:104A80004091620460916104809160040C9425243B
:104A9000089580915F048695815009F48AE261E06F
:104AA0000C94092580915F0486958F5F8B3208F006
:104AB00081E061E00C940925CF93DF9300D01F9231
:104AC000CDB7DEB790915F0490FF0AC09E012F5FC3
:104AD0003F4F0E945B214B8169818A810E94DA20CD
:104AE0000F900F900F90DF91CF910895CF93DF93A8
:104AF000EC01EFE5F4E0438162818C810E945C254A
:104B00008C818F5F8C83DF91CF910895CF93DF935A
:104B1000EC01EC81F0E0EB53FE4F4491EFE5F4E063
:104B2000628181810E945C258C818F5F8C83DF9103
:104B3000CF9108958D3E39F49091880497FF35C048
:104B40001092880459C08E3E29F490918804191659
:104B5000BCF32BC0909187048F3E29F497FF25C0AA
:104B60001092870449C0803F19F41916CCF31DC078
:104B700090918904893F29F41916BCF41092890494
:104B80003BC08A3F19F497FF10C0F8CF8B3F39F430
:104B900090918A0497FF09C010928A042DC08C3F1F
:104BA00021F490918A041916BCF39FE0980F983075
:104BB00080F421E030E0A90102C0440F551F9A950E
:104BC000E2F7CA0180959091860489238093860438
:104BD00013C08D3F21F4809180048E7F0BC08E3FE7
:104BE00021F4809180048D7F05C08F3F29F480914E
:104BF00080048B7F8093800480918704811106C09C
:104C000080918804811102C010927F0480918904F0
:104C1000811106C080918A04811102C010927E0425
:104C200008958091800480FD16C081FD16C082FD2C
:104C300018C080917E04882391F0883290F428E097
:104C4000829FC001112468E270E00E943D33862FEC
:104C5000672B29F007C082E0089584E0089581E081
:104C6000089588E008958091800480FD14C081FD3E
:104C700014C082FD16C080917F04882381F08431A6
:104C800080F422E3829FC001112464E170E00E945D
:104C90003D33862F08958CE0089589E1089585E0DD
:104CA000089582E308958D3E21F40E943326819574
:104CB00004C08E3E29F40E94332680938804089510
:104CC0008F3E21F40E943326819504C0803F29F451
:104CD0000E943326809387040895893F19F40E9427
:104CE000112605C08A3F31F40E94112681958093D8
:104CF000890408958B3F21F40E941126819504C0F8
:104D00008C3F29F40E94112680938A0408959FE025
:104D1000980F983078F421E030E0A90102C0440FE8
:104D2000551F9A95E2F7CA0190918604892B8093CA
:104D3000860408958D3F21F48091800481600BC02A
:104D40008E3F21F480918004826005C08F3F29F45A
:104D50008091800484608093800408950E948A1E5C
:104D600020918704211104C020918804222321F07E
:104D7000909384048093830420918904211104C0BA
:104D800020918A04222321F090938204809381044D
:104D9000E0916F04F0917004309749F082E08093C5
:104DA00085040480F581E02D85E894E00994089558
:104DB00080911105811110921105089580959091AF
:104DC0001005892380931005089590911005809116
:104DD0000F05892B20910E05982F922B9093970405
:104DE000809111058823D9F0892B809397048091B5
:104DF0005301882331F08091780487FF02C08EE14F
:104E000001C086E0E9E9F4E090E0815028F02191CA
:104E10002223D9F39F5FF9CF91110E94D826E09108
:104E20006F04F09170043097A9F0809153018823AA
:104E300059F08091780487FF07C080919704809390
:104E4000980486E0809397040280F381E02D87E93F
:104E500094E00994089580E090E00E94321F80E081
:104E600090E00E941C1F10920F0510920E050E94E8
:104E7000E526E5E8F4E086E0DF011D928A95E9F792
:104E800010927F0410927E04109280040C94AE263F
:104E900080910C059091DB04891719F08F5F877062
:104EA000FBCF08950F931F93CF93DF938091DA0484
:104EB00082958F7009F05DC08091D704882309F432
:104EC00058C080910C051091DB046091D50470915D
:104ED000D604C091D804D091D90491E06F3F09F075
:104EE00090E0292F06E0811709F443C0209721F0B4
:104EF0007F3F21F030E003C031E001C0322F90E06D
:104F000030FD34C0089FF001099FF00D1124DF012E
:104F1000A452BB4F11963C911197371327C03C9177
:104F2000361324C012963C91129731111FC013966C
:104F30004D915C9114974C1B5D0B483C5105B0F4AE
:104F40008091DA048F7080618093DA04EF51FB4F17
:104F500080818F708061808385ED94E00E94D70707
:104F6000DF91CF911F910F910C9448270196877084
:104F7000BACFDF91CF911F910F9108958F929F9299
:104F8000AF92BF92DF92EF92FF920F931F93CF9356
:104F9000DF938090330290903402A0903502B0905D
:104FA000360240917E0250917F02609180027091A2
:104FB0008102842A952AA62AB72ACFE1D0E026E0EA
:104FC000929F7001112490E3D92E082F10E0D50193
:104FD000C4010C2E04C0B695A795979587950A94A1
:104FE000D2F780FD04C0219790F780E014C0DC9ECA
:104FF000F001DD9EF00D1124EE0DFF1DE00FF11FFD
:10500000EE0FFF1FE253FC4F859194910E940D1605
:10501000019749F38C2FDF91CF911F910F91FF9052
:10502000EF90DF90BF90AF909F908F900895CF93B7
:10503000DF93EC010E94BE2720E3829FC001112470
:10504000FC0126E0D29FE00DF11D1124EC0FF11DB3
:10505000EE0FFF1FE253FC4F859194910E940D16B5
:10506000DF91CF910895FC01808191810E941728E2
:10507000292F2F70E92FE295EF704E2F50E0FA01A3
:105080003297EE30F105B8F4E758FF4F0C945133E6
:10509000803F99F018F4883E70F40FC0843F59F4B3
:1050A0000CC0883E50F0813F31F407C0822F8695B6
:1050B00086958695089580E0089581E008959F92F1
:1050C000AF92BF92CF92DF92EF92FF920F931F9316
:1050D000CF93DF93CDB7DEB761970FB6F894DEBFFD
:1050E0000FBECDBF8C0185E0F801DE011D96019059
:1050F0000D928A95E1F7F801E2809091D5046091D4
:10510000D6044091D8045091D9044115510531F08D
:105110006F3F31F481E09F3F19F403C081E001C08B
:1051200080E0F82FF1709F2E80FD1AC1F8013081C8
:105130002181C380D48085EDA82E84E0B82EF09024
:10514000D704F601E41BF50BFF2009F4C6C08091DB
:10515000DA04E83CF10508F091C0482F407F09F0DF
:1051600050C0621311C093130FC0FE2CE1100CC08D
:105170008F7080618093DA04C5010E94D707809107
:10518000DA04F801858329C1CD2831F02F3F31F4AD
:1051900081E03F3F19F403C081E001C080E080FD61
:1051A00003C081E08E2502C080E090E0F82FF1700E
:1051B000FF2E80FF1CC080910C054091DB0456E05F
:1051C000841709F4E8C090E0589FF001599FF00D52
:1051D0001124E452FB4F6181261306C060816313E2
:1051E00003C06281E61203C001968770E9CFFE2CEE
:1051F000EE2009F4F2C08091DA0481608093DA0431
:1052000049C0621306C0931304C0E11002C0F80144
:1052100086C0C8010E943328882351F1EE2041F155
:105220002091DA04822F82958F7090E0029774F0BB
:105230008091D5049091D60498878F831986DB8658
:10524000CA862C87CE0107960E94D70786E0F80110
:10525000A5EDB4E001900D928A95E1F70E945227E6
:105260000AC06217C9F0C8010E94332881111EC00C
:10527000C8010E94D707FF24F394AFC0482F407F96
:1052800081F785ED94E00E94D70786E0F501119241
:105290008A95E9F7F12CA1C09313E5CFE110E3CF94
:1052A000F8018583C8010E94D70754C0EE2001F39E
:1052B0002091DA04822F82958F7090E0029734F269
:1052C0008091D5049091D6049A8389831B82DD82D4
:1052D000CC822E83CE010196B7CFE83CF105D0F504
:1052E000FE2CEE2029F2621327C0931325C02091D3
:1052F000DA0420FD18C0822F82958F70482F50E06D
:105300004115510581F0F80125834F30510541F0D9
:105310008F5F982F9295907F822F8F70892B858336
:10532000C8010E94D70786E0F801A5EDB4E001901E
:105330000D928A95E1F751C0C8010E94332881116E
:1053400085CF8091DA0481608093DA04C8010E94DD
:10535000D70743C086E0F50111928A95E9F73DC071
:10536000EE2009F485CFC8010E943328F82E882347
:1053700009F47ECF86E0F801A5EDB4E001900D922E
:105380008A95E1F78091D5049091D6040E94172860
:105390000E94522722C03D872E878D859E850E94C0
:1053A0001728292F22952F70223028F49F7039F06A
:1053B000811105C00BC0243028F49F7049F4805E31
:1053C000883020F0C8010E94D7079F2CF92C05C017
:1053D000F8019581907F99F7F9CF8F2D61960FB6DF
:1053E000F894DEBF0FBECDBFDF91CF911F910F911B
:1053F000FF90EF90DF90CF90BF90AF909F90089577
:10540000292F220F920F990F890F682F66956695A5
:105410006695982F977085E0689FB001112440E051
:1054200050E080E0FB01E40FF51FE954FB4F2081C1
:1054300030E0092E02C0369527950A94E2F72170D4
:105440003327042E01C0220F0A94EAF7822B4F5F04
:105450005F4F4530510531F70895292F220F920FE4
:10546000990F890FE82FE695E695E695877051E04C
:1054700001C0550F8A95EAF785E0E89FF0011124F5
:10548000E954FB4F20E030E070E04081CB01022E78
:1054900002C0969587950A94E2F7817081958427DA
:1054A0008523842781932F5F3F4F2530310569F78E
:1054B0000895609333027093340280933502909381
:1054C00036020C942B270F931F9341E050E060E0CD
:1054D00070E004C0440F551F661F771F8A95D2F7EE
:1054E000409550956095709580913302909134026B
:1054F000A0913502B09136028A019B01082319233D
:105500002A233B23C901B8011F910F910C94592AFA
:1055100020910D058095822380930D05982F97701B
:1055200099F430E0482F082E000C550B241735074E
:1055300059F09091790492FD07C0859585958595E0
:105540000E94632A10920D050895CF93C0917904AB
:10555000C2FB992790F9981799F080FBC2F9C09384
:1055600079046091780484E090E00E948C326C2F82
:1055700082E290E00E948C3282E0CF910C94882AE3
:10558000CF9108950F931F9341E050E060E070E0E9
:1055900004C0440F551F661F771F8A95D2F780916C
:1055A000330290913402A0913502B09136028A0103
:1055B0009B01082B192B2A2B3B2BC901B8011F91EA
:1055C0000F910C94592A60937E0270937F0280930E
:1055D0008002909381020C942B27109210058091E9
:1055E0005301882331F08091780487FF02C08EE157
:1055F00001C086E0E9E9F4E0DF011D928A95E9F750
:105600000C942B27CF93DF938A3011F481E003C0F1
:105610008D3029F480E0DF91CF910C942320682F06
:105620008091490790914A0726E0FC01A3E4B7E086
:1056300001900D922A95E1F7603E30F026E0FC01E2
:1056400011922A95E9F70AC0F6E06F9FB001112484
:105650006B5E784F46E050E00E946F32C091490780
:10566000D0914A0746E050E0BE0183E497E00E94F3
:105670007333892B49F19E0123543540A90185E0FC
:10568000569547958A95E1F781E090E0BC0102C00C
:10569000660F771F4A95E2F7409141055091420508
:1056A000462B572B2B5F3F4F65E0369527956A9524
:1056B000E1F702C0880F991F2A95E2F7842B952BFA
:1056C00090934205809341059E012D5335404091B2
:1056D0004005642F70E0C9010E94FF31481B46302D
:1056E00010F4240F311D211582E0380710F020E05E
:1056F00030E02D5B3A4F30934A0720934907DF9102
:10570000CF910895CF93DF93EC01FE01849188231C
:1057100021F00E94022B2196F8CFDF91CF910895BE
:105720000E94822B81E00C942320FC01AC014C5F91
:105730005F4F8FEF91E32191822728E030E087FFD0
:1057400003C0880F892701C0880F21503109B9F79C
:10575000E417F50781F70895EF92FF920F931F93D7
:10576000CF93DF93EC017B0164E670E088E70E9451
:10577000D42E8C01EC0EFD1ECE15DF0561F017FD59
:105780000AC0FE01849164E670E00E94552F8C01EE
:105790002196892B89F30E94D92FC801DF91CF91DF
:1057A0001F910F91FF90EF900895EF92FF920F934A
:1057B0001F93CF93DF937C018B010E941B1C8111EF
:1057C00019C0E70101151105A1F08091E80085FDE0
:1057D0000AC08091E8008E778093E8000E941B1C2D
:1057E000882381F307C089918093F100015011094A
:1057F000E9CF80E0DF91CF911F910F91FF90EF9063
:1058000008951F93CF93DF93CDB7DEB7AA970FB656
:10581000F894DEBF0FBECDBFE8E3F5E080E495E08D
:105820002091F10021938E179F07D1F780913905C0
:10583000833009F461C030F4813071F0823009F4B2
:105840009BC0B2C08A3009F487C08B3009F46CC0A9
:10585000893009F0A9C020C080913805813A09F04B
:10586000A3C08091E800877F8093E80080913C0589
:1058700090913D05892B21F460E284E195E003C01D
:1058800060E080E090E070E00E94DA1D8091E80026
:105890008B778093E80088C080913805813209F0C9
:1058A00083C080913C0590913D05029708F07CC033
:1058B0008091E800877F8093E8008091E80082FD76
:1058C00005C0809136058111F8CF6EC02091F3009C
:1058D0008091F20090E0922B029731F48091F100D8
:1058E000813011F0863021F48091F100809313050E
:1058F0008091E8008B7754C080913805813A09F097
:1059000053C080913C0590913D05892B09F04CC016
:105910008091E800877F8093E8008091E80080FF15
:10592000FCCF8091530137C0809138058132E1F579
:1059300080913C0590913D05892BB1F58091E8005F
:10594000877F8093E8000E944E1C80913A058093E7
:1059500053010E94ED2A28C080913805813221F53B
:105960008091E800877F8093E8000E944E1C809120
:105970003B058093120518C080913805813AA1F447
:105980008091E800877F8093E8008091E80080FFA5
:10599000FCCF809112058093F1008091E8008E7712
:1059A0008093E8000E944E1C8091E80083FFCEC1E6
:1059B0008091380590913905492F50E04A305105C2
:1059C00008F0C4C1FA01E957FF4F0C9451338038F5
:1059D00021F0823809F0BAC108C080913405909155
:1059E0003505992389F082600FC080913C058F7046
:1059F000873008F0ABC18093E9008091EB0085FB14
:105A0000882780F91092E9009091E800977F9093A1
:105A1000E8008093F1001092F10065C1282F2D7FDE
:105A200009F094C1882319F0823061F08FC1809110
:105A30003A05813009F08AC1933009F080E0809303
:105A400035052EC080913A0581112AC080913C0510
:105A50008F702FEF280F263008F078C18093E9006F
:105A60002091EB0020FF1CC0933021F48091EB00CB
:105A7000806214C09091EB0090619093EB0021E064
:105A800030E0A90102C0440F551F8A95E2F7409308
:105A9000EA001092EA008091EB0088608093EB00AE
:105AA0001092E9008091E800877F20C181114EC1EA
:105AB00010913A051F778091E3008078812B8093C5
:105AC000E3008091E800877F8093E8000E944E1CED
:105AD0008091E80080FFFCCF8091E3008068809394
