:100000000C9442060C945F060C945F060C943E31EF
:100010000C945F060C945F060C945F060C945F06CC
:100020000C945F060C945F060C949D190C94DF18D9
:100030000C94F1290C945F060C945F060C945F06F7
:100040000C945F060C945F060C945F060C945F069C
:100050000C945F060C94A4290C945F060C945F0624
:100060000C945F060C945F060C945F060C945F067C
:100070000C945F060C945F060C945F060C945F066C
:100080000C945F060C945F060C945F060C945F065C
:100090000C945F060C945F060C945F060C945F064C
:1000A0000C945F060C945F060C945F064C09520991
:1000B0003D09430958095E096409BE09320AC609A7
:1000C00090099409CA099709CD09D809A209280AF3
:1000D000A609DC09AA09E0090A0AAE09E409140A1A
:1000E000B409EA09F4099B09D1099E09D409B9099F
:1000F000EF09000A200A220A8C09C2093B0A150BE3
:10010000150B440B440BC00BDE0B020D020DE30B71
:10011000710C820C820C2B0D530D580D5D0D620D70
:10012000670D6C0D710D760D7B0D800D870D8A0DA1
:100130008D0D900D930D960D990D9C0D9F0DA40D99
:100140007F118F1182118F1185118F118F118F11D6
:1001500088118F1188118F1188118F118811FE1647
:100160002517BD182517BD186D179017BD187F18D6
:100170009218202020206162636465666768696A5E
:100180006B6C6D6E6F707172737475767778797A47
:1001900031323334353637383930524542545F2D99
:1001A0003D5B5D5C233B27602C2E2F20202000DA56
:1001B0000281FFD9F1DB20A4A62EAF00A0C0D3009E
:1001C00000A1C8D30000AED580A81F408D14200028
:1001D0001E0F0500047F3F1F643214643214783C04
:1001E0001E1E140A0541646A7573740053796D62AA
:1001F0006F6C73004E617669676174650051776555
:10020000727479004C617965723A20003A002C20B2
:100210006B007800808182838485868788898A8BB9
:100220008C8D8E8F9091929394A0A1A2A3A4A5A649
:10023000A7A8A9AAABACADAEAFB0B1B2B3B4C0C1C0
:10024000C2C3C4C5C6C7C8C9CACBCCCDCECFD0D116
:10025000D2D3D40005010902A10185020901A10040
:100260000509190129081500250195087501810264
:100270000501093009311581257F95027508810630
:1002800009381581257F950175088106050C0A3806
:10029000021581257F950175088106C0C0050109F9
:1002A00080A101850319012AB700150126B7009521
:1002B0000175108100C0050C0901A1018504190117
:1002C0002AA002150126A002950175108100C00523
:1002D000010906A1018506050719E029E715002592
:1002E000019508750181020507190029EF15002500
:1002F0000195F0750181020508190129059505751B
:10030000019102950175039101C005010906A10142
:10031000050719E029E715002501950875018102F7
:100320009501750881010507190029FF150026FFB1
:1003300000950675088100050819012905950575C0
:10034000019102950175039101C009023B00020170
:1003500000A0FA09040000010301010009211101B4
:100360000001224000070581030800010904010083
:10037000010300000009211101000122B600070558
:100380008203200001120100020000000853460110
:10039000000100010200010C0343006F0072006EB7
:1003A0000065000000100366006F006F00730074AA
:1003B0000061006E0000000403090400000000005A
:1003C000003E5B4F5B3E003E6B4F6B3E001C3E7C35
:1003D0003E1C00183C7E3C18001C577D571C001C1E
:1003E0005E7F5E1C0000183C180000FFE7C3E7FFBB
:1003F00000001824180000FFE7DBE7FF0030483A50
:10040000060E00262979292600407F0505070040B1
:100410007F05253F005A3CE73C5A007F3E1C1C08E4
:1004200000081C1C3E7F0014227F2214005F5F0026
:100430005F5F0006097F017F00006689956A0060A2
:10044000606060600094A2FFA2940008047E04082B
:100450000010207E20100008082A1C0800081C2A12
:100460000808001E10101010000C1E0C1E0C00308E
:10047000383E383000060E3E0E0600000000000038
:100480000000005F000000000700070000147F1458
:100490007F1400242A7F2A12002313086462003686
:1004A0004956205000000807030000001C224100AC
:1004B000000041221C00002A1C7F1C2A0008083E64
:1004C00008080000807030000008080808080000D4
:1004D00000606000002010080402003E5149453EC3
:1004E0000000427F400000724949494600214149CD
:1004F0004D33001814127F10002745454539003C44
:100500004A49493100412111090700364949493614
:1005100000464949291E0000001400000000403434
:1005200000000000081422410014141414140000E8
:1005300041221408000201590906003E415D594E4E
:10054000007C1211127C007F49494936003E41412E
:100550004122007F4141413E007F49494941007F9E
:1005600009090901003E41415173007F0808087FD5
:100570000000417F4100002040413F01007F0814FE
:100580002241007F40404040007F021C027F007FEC
:100590000408107F003E4141413E007F09090906E1
:1005A000003E4151215E007F091929460026494934
:1005B00049320003017F0103003F4040403F001FDC
:1005C0002040201F003F4038403F00631408146360
:1005D000000304780403006159494D4300007F4142
:1005E000414100020408102000004141417F000405
:1005F00002010204004040404040000003070800A0
:10060000002054547840007F284444380038444443
:10061000442800384444287F0038545454180000BB
:10062000087E0902001824241C78007F080404783E
:100630000000447D4000002040403D00007F102825
:1006400044000000417F4000007C04780478007C76
:1006500008040478003844444438007C18242418E2
:1006600000182424187C007C080404080048545412
:1006700054240004043F4424003C4040207C001CDF
:100680002040201C003C4030403C004428102844BE
:10069000004C9090907C004464544C440000083618
:1006A0004100000000770000000041360800000211
:1006B00001020402003C2623263C0000000000004A
:1006C0000000000000000000000000C0E0F0F8F8AA
:1006D0001800C0F0FCFEFFFFFFFFFFFFFF7E0000E1
:1006E0000000000000000080C0E0E0E0E0E0E0E0AA
:1006F000E0C0800000000080C0E0E0E0E0E0E0E07A
:10070000E0C080000000E0E0C0C0E0E0E0E0000009
:10071000E0E0C0C0E0E0E0E0E0C080000000008079
:10072000C0E0E0E0E0E0E0E0E0C0800000000000C9
:10073000000000000000000000E0F0F0F0E0ECEE4F
:10074000F7F37020007C7C7C7E007E7E7E7F7F7F46
:10075000000080C0E07E5B4F5BFEC00000C000DC9C
:10076000D7DEDEDED7DC00C00000000000000000A5
:100770000000000000000000000000000000000079
:1007800000000000F8FCFEFFE000FFFFFFFFFFFF9E
:1007900080FFFFFFFFFFFFFFFFFF1F0701000000BB
:1007A000000000000000FFFFFF81000000000000CB
:1007B00081C3C3C30000FFFFFF81000000000000F1
:1007C00081FFFFFF0000FFFFFF01000000000000AD
:1007D000FFFFFF010000000001FFFFFF0000FFFF1F
:1007E000FF9D1C1C1C1C1C1C9DDFDFDF000000008B
:1007F0000000000000000000000F1F3F7F7F7F7F90
:100800007F3F1E0C001F1F1F3F003F3F3F7F7F7F2A
:1008100000307B7F7830202030787F3B0003000F52
:100820007F0F0F0F7F0F000300000000000000008B
:1008300000000000000000000000000000000000B8
:1008400000000000030F1F3F3F3F3F1F1F3F3F7F40
:100850007F7F3F3F1F3F7F7F7F7F7C7878381C0FF3
:100860000000000000000001030707070707070753
:100870000703010000000001030707070707070738
:100880000703010000000707070000000000000048
:10089000070707000000000000070707000000012D
:1008A0000307070707070707070301000000000009
:1008B0000000000000000000000000000000000038
:1008C0000000000000000000000000000000000028
:1008D0000000000000000000000000000000000018
:1008E0000000000000000000000000000000000008
:1008F00000000000000000000000002B0014001A9F
:1009000000080015001700E10004001600070009A8
:10091000000A0000571D001B00060019000500001A
:100920000000000000E200E3002C412A0013001246
:10093000000C0018001C00340033000F000E000DE6
:10094000000B0029003800370036001000110000AD
:100950000000000000E600225228002B001E001FAD
:1009600000200021002200E10014001A0008000904
:10097000000000E00004001600070019000000005D
:100980000000000000E200E30000002A0000000078
:1009900000520000000000000000004F0051005015
:1009A0000000004C0000004E004B004D004A0000CB
:1009B0000000000000E600235200001E001F00207F
:1009C00000210022002300E10021021F022602274D
:1009D000022402E0002F0030002F0230023102001A
:1009E00000000000000000E30023522E002D00272D
:1009F000002600250024003100000025022E022ED2
:100A00000020023500230200002D022D00220200EA
:100A10000000000000E60000000000007C00000074
:100A20000000000000000020782378257827780057
:100A30000000002178247826782878000000000043
:100A40000000000000000000000000A90000003DC0
:100A5000003C003B003A00AA000000410040003F7B
:100A6000003E00A800000045004400430042000092
:100A700000000000000000000000002223252628BE
:100A8000292A2C2D2F3032333536383A3B3D3E4023
:100A900042434547494A4C4E5051535557595A5C69
:100AA0005E6062646668696B6D6F71737577797B80
:100AB0007D7F81838587898A8C8E90929496989A7F
:100AC0009C9E9FA1A3A5A7A8AAACAEAFB1B3B4B694
:100AD000B8B9BBBCBEBFC1C2C3C5C6C7C9CACBCCEF
:100AE000CDCED0D1D2D2D3D4D5D6D7D7D8D9D9DAC2
:100AF000DADBDBDBDCDCDCDCDCDDDDDDDDDCDCDC37
:100B0000DCDCDBDBDBDADAD9D9D8D7D7D6D5D4D35E
:100B1000D2D2D1D0CECDCCCBCAC9C7C6C5C3C2C133
:100B2000BFBEBCBBB9B8B6B4B3B1AFAEACAAA8A790
:100B3000A5A3A19F9E9C9A98969492908E8C8A8948
:100B4000878583817F7D7B79777573716F6D6B6925
:100B500068666462605E5C5A5957555351504E4CFA
:100B60004A4947454342403E3D3B3A3836353332A9
:100B7000302F2D2C2A29282625232200AF00AE0055
:100B8000010101010101010101020202020202024E
:100B90000202030303030303030304040404040421
:100BA00004050505050506060606060707070707E7
:100BB00008080808090909090A0A0A0B0B0B0C0C9A
:100BC0000C0D0D0D0E0E0E0F0F0F10101111111236
:100BD0001213131414151516161717181819191AB5
:100BE0001A1B1B1C1D1D1E1E1F2020212222232418
:100BF00024252626272829292A2B2C2D2D2E2F3057
:100C0000313232333435363738393A3B3C3D3E3F6A
:100C1000404142434445464748494A4C4D4E4F5057
:100C2000515354555658595A5B5D5E5F6162646515
:100C30006668696B6C6D6F7072737577787A7B7D9F
:100C40007E8082838587888A8C8E8F9193959698F3
:100C50009A9C9EA0A2A3A5A7A9ABADAFB1B3B5B70F
:100C6000BABCBEC0C2C4C6C9CBCDCFD1D4D6D8DBE6
:100C7000DDDFE2E4E7E9EBEEF0F3F5F8FAFDFFFF84
:100C8000AA7F554011241FBECFEFDAE0DEBFCDBFF3
:100C900011E0A0E0B1E0E2EDF8E602C005900D92AF
:100CA000A63DB107D9F727E0A6EDB1E001C01D923E
:100CB000AA32B207E1F70E94C00D0C9467340C947D
:100CC00000009C013A9521153F4130F5BC01662793
:100CD0007270AC01442754709C012227387094FF35
:100CE0000FC090FF02C080E101C080E0672B09F0D7
:100CF0008062452B09F08064232B79F08068089589
:100D0000892F8170672B09F08260452B09F0846080
:100D1000232B19F08860089580E008950E94B9247B
:100D20002FEF84E39CE0215080409040E1F700C029
:100D300000009AE088E10FB6F894A89580936000CF
:100D40000FBE90936000FFCF662309F45CC08D3C1A
:100D500021F40E94082F819504C08E3C29F40E9442
:100D6000082F80932707C5C08F3C21F40E94082FCD
:100D7000819504C0803D29F40E94082F80932607A6
:100D8000B8C0893D19F40E94E62E05C08A3D31F4B1
:100D90000E94E62E819580932807ABC08B3D21F4FD
:100DA0000E94E62E819504C08C3D29F40E94E62E17
:100DB000809329079EC09FE2980F983078F421E035
:100DC00030E0A90102C0440F551F9A95E2F7CA010D
:100DD00090912507892B809325078BC08D3D21F4A9
:100DE00080911F0781600CC08E3D21F480911F0708
:100DF000826006C08F3D09F07CC080911F0784602F
:100E000080931F0776C08D3C39F49091270797FF98
:100E100035C01092270759C08E3C29F490912707BE
:100E20001916BCF32BC0909126078F3C29F497FF2D
:100E300025C01092260749C0803D19F41916CCF33D
:100E40001DC090912807893D29F41916BCF4109211
:100E500028073BC08A3D19F497FF10C0F8CF8B3D9F
:100E600039F49091290797FF09C0109229072DC0E6
:100E70008C3D21F4909129071916BCF39FE2980F3D
:100E8000983080F421E030E0A90102C0440F551FE2
:100E90009A95E2F7CA01809590912507892380935E
:100EA000250713C08D3D21F480911F078E7F0BC055
:100EB0008E3D21F480911F078D7F05C08F3D29F461
:100EC00080911F078B7F80931F07809126078111D8
:100ED00006C080912707811102C010921D078091E2
:100EE0002807811106C080912907811102C0109244
:100EF0001E070E94282F0895A6E0B0E0E2E8F7E080
:100F00000C94823226E0FC01DE01119601900D92D4
:100F10002A95E1F7FC01258189819A81222359F0E4
:100F2000662349F00E94EC21182F682F89819A814D
:100F30000E942B2403C00E94F823182F69817A8114
:100F4000812F0E94721D2696E3E00C949E32ABE145
:100F5000B0E0EDEAF7E00C9482324E8B5F8B688F45
:100F6000798F8A8F9B8F911110920C07CE010F966B
:100F700027E0DC011D922A95E9F726E0FE0176962E
:100F8000DC0101900D922A95E1F72B89222319F0BB
:100F900061E00E947C0787E0FE013F96DE01189623
:100FA00001900D928A95E1F7CE0108960E94502299
:100FB00081112CC087E0FE013896DE011196019068
:100FC0000D928A95E1F76C85662301F12091E10489
:100FD00030E0C90101968770992740911A0550E0C9
:100FE0008417950761F16D8397E0929FD001939FDD
:100FF000B00D1124AE51BB4FFE01319601900D9200
:101000009A95E1F78093E1040E94822117E0809194
:101010001A059091E1048917F9F0189FC001112475
:101020008E519B4F0E9450228823B1F080911A0567
:1010300090E001968770992780931A05E8CF0E9467
:10104000B9241092E10410921A05EAEDF4E087E069
:10105000DF011D928A95E9F76B96E3E00C949E32CE
:10106000CF93DF93EC010E940A25CE01805E9109A7
:10107000089710F0209731F4CE010E9461060E947B
:10108000F92405C0CE010E9461060E94E824DF9188
:10109000CF910895CF93DF93EC01805E910908977B
:1010A00010F0209731F4CE010E9461060E940025C5
:1010B00005C0CE010E9461060E94EF248C2F0E9481
:1010C0004025DF91CF9108958F929F92AF92BF926A
:1010D000EF92FF920F931F93CF93DF93DC0114964F
:1010E0002C91222309F441C57C0161E00E947C0718
:1010F000EC01F7018581882309F180910E07909119
:101100000F070097D9F0C817D907C1F0FEE08F9FED
:10111000C0011124FC01EA5EFE4F2081246020837F
:101120008F5E9E4FDC01CD93DC930E94EC2A1092DF
:101130000C0761E0C7010E947C07EC01F701958173
:10114000992309F43BC080E280932101D0930902E6
:10115000C09308029E0130522115304230F4D7016D
:1011600016968C91807F79F429C09E013054211508
:10117000304120F4F7018681807F29F49E013A9561
:1011800021153F4118F4FE01FF2707C09E01205A98
:1011900032452032310590F0FE01ED33F10570F457
:1011A000EE58FE4FE491E0932101D70111968C9106
:1011B000119780930B028C9180930A029E01375500
:1011C0002F3F310511F008F04DC05E01BB24BEE099
:1011D000CB9FF00111248F010F5E1E4FEA5EFE4F80
:1011E000808190FB80F98083D70115969C9199238B
:1011F000A1F10E94E5299093FB018093FA01F80187
:1012000082818F5F828390910C0780910D07892BDB
:10121000838380913C0584830680F781E02D30979D
:1012200039F0D8011C966D917C911D97C8010995E4
:101230008EE08A9DF0018B9DF00D1124EA5EFE4F39
:10124000808181FF03C090E080E002C09C2F8D2F41
:1012500090930E0780930F0705C081FF03C0C8015C
:101260000E94D22A4E01FE01E851FC47E730F10509
:1012700088F5EA5AFF4F0C94F83306E221EE41EE6E
:101280006AE17CE705C007E225EE45EE6BE17CE70D
:10129000C7010E94172B1AC106E221EE40EE68E159
:1012A0007CE7F6CF07E225EE44EE69E17CE7F0CF7C
:1012B00006E221EE42EE6CE17CE7EACF07E225EEA2
:1012C00046EE6DE17CE7E4CF08E221E045EE6EE119
:1012D0007CE7DECFF7018581882309F446C11092AF
:1012E0000B07CE019057839708F0DBC084E090E0B5
:1012F0000E941D3390931C0780931B07FE01E15051
:10130000F047E232F10520F4E35AFF4F0C94F83332
:1013100080911B078160ACC080911C078860B4C0BD
:1013200080911B078260A4C080911B0720C0809120
:101330001B0788609DC080911C071EC080911C0700
:101340008260A2C080911B07806192C080911B07C0
:1013500080628EC080911B0780648AC00E94B9247D
:1013600080911B07806884C080911B07886084601F
:101370007FC080911C078260816086C080911B07BE
:101380008E7F76C080911C07877F7EC080911B076F
:101390008D7F6EC080911B0720C080911B07877FC7
:1013A00067C080911C071EC080911C078D7F6CC098
:1013B00080911B078F7E5CC080911B078F7D58C07A
:1013C00080911B078F7B54C00E94B92480911B071A
:1013D0008F774EC080911B07877F8B7F49C080919C
:1013E0001C078D7F8E7F50C080911B0782FB2227B8
:1013F00020F991E0922790FB82F990FB83F938C0A5
:1014000080911C07982F909591708E7F892B90FB6F
:1014100081F93AC080911B0786FB222720F991E0D1
:10142000922790FB86F924C00E94B92480911B0763
:1014300087FB222720F991E0922790FB87F918C0BB
:1014400061E001C060E08EE090E00E9433331EC096
:1014500080911B0784FB222720F991E0922790FBC3
:1014600084F906C080911B07982F909590FB80F916
:1014700080931B070BC080911C0783FB222720F958
:1014800091E0922790FB83F980931C0760911B07E2
:1014900070911C0784E090E00E9451330E94B924AF
:1014A00015C0C631FCE7DF0721F580910D078A7A68
:1014B00091E009F490E09093D8018111C6C269E2ED
:1014C00082EA94E00E94422A0E942D2180911B050D
:1014D000877009F44AC3D70115968C91882309F4C3
:1014E00044C380911C0782FF40C382E00E9476249F
:1014F0003CC3C330FCE7DF0721F140F4C1158CE7A2
:10150000D80789F0C130DC4711F13DC0CB35ACE7DD
:10151000DA0739F1CC35BCE7DB07D9F0CA35DC474F
:1015200091F581E01FC00E94B924FFEF24E38CE015
:10153000F15020408040E1F700C000000E94932954
:10154000C5CF6FEF7FEF80E090E00E9451330E94A3
:101550008E0680911C0782FB882780F991E08927FD
:1015600001C080E00E948D240EC0C631DC4709F422
:10157000F0C280910D078272F401E052F847E53124
:10158000F10508F464C2F7018581C081D181882307
:1015900049F0CE010E94EC21182F682FCE010E9445
:1015A0002B2404C0CE010E94F823182FBE01812FE6
:1015B0000E94721D0E948F1DD82FC92F982EF701EF
:1015C0001581068102950F7080911B058770E9F0E7
:1015D0001123D9F0892F807F803451F080E28D0F64
:1015E000883098F0011104C0892F807E803269F024
:1015F00080911C0782FF09C082E00E9476248091BE
:101600001B058770BB24B3948111B12CAC2EA2941E
:101610008FE0A8228A2D90E08C30910508F0F2C16D
:10162000FC01E158FF4F0C94F8338C2F807FCF7072
:10163000882311F0C295C07F1123B9F0CC2309F49F
:10164000CFC180E28D0F883010F0911006C09091CC
:101650000D07C92BC0930D0705C090910C07C92B2E
:10166000C0930C070E942D21BBC18D2F0E940A251B
:10167000CC2309F4C7C1D05E8C2FD83068F19920F3
:1016800059F10E941F212AC08C2F807FCF70803299
:1016900011F0C295C07F992029F0F1E09F1609F45E
:1016A0004CC055C080911C0782FD1BC0112369F0FE
:1016B000CC2339F090910D07C92BC0930D070E94E0
:1016C0002D2180E00E9440259DC180E00E940A25D6
:1016D000CC2309F497C18C2F0E9426210E942D2132
:1016E00091C1112381F00023B1F1013009F08AC1C9
:1016F00090913C058C2F8923C81709F483C1C92B0D
:10170000C0933C057FC101117DC18C2F0E94F9243B
:1017100080913C059C2F982329F09C2F909589233C
:1017200080933C058091D9019C2F982309F46AC1CC
:10173000C0958C238093D90165C1112321F0063017
:1017400008F060C108C0053008F05CC115C0112365
:1017500031F0011145C18C2F0E94002553C1002397
:1017600059F0D93309F04BC12FEF87EE93E02150A8
:1017700080409040E1F741C18C2F0E94F92442C182
:101780008C2F86958695837019F0813061F03AC16F
:10179000112321F08D2F9C2F937002C080E090E0E8
:1017A0000E949C2A35C1112321F08D2F9C2F93700C
:1017B00002C080E090E00E94772A2AC1612F8D2F1D
:1017C0000E94A40625C18C2F837009F041C011111D
:1017D0001DC12D2F229526952770220F220F8D2FA8
:1017E0008F7090E0022E02C0880F991F0A94E2F7D2
:1017F000D4FF0BC04FE050E002C0440F551F2A95A4
:10180000E2F79A012095309502C020E030E0C695BD
:10181000C695C370C23099F068F440913D0550916F
:101820003E05C13029F0822B932B8423952304C0DD
:10183000842B952B822B932B0E94B424E7C0822B00
:10184000932B20913D0530913E0582279327F4CFBD
:10185000112319F08C2F817001C08695882309F41B
:10186000D5C02D2F229526952770220F220F8D2F60
:101870008F7090E0022E02C0880F991F0A94E2F741
:10188000D4FF0BC04FE050E002C0440F551F2A9513
:10189000E2F79A012095309502C020E030E0C6952D
:1018A000C695C370C23079F0B8F44091FF015091F1
:1018B0000002C13029F0822B932B842395230EC084
:1018C000842B952B09C0822B932B2091FF01309103
:1018D00000028227932702C0822B932B0E945F2451
:1018E00095C0CF70112339F08C2F0E94A4248D2F26
:1018F0000E9400258BC08D2F0E94F9248C2F0E94FE
:10190000642484C08D2FA2EF9A1689F1A91538F0AE
:10191000B0EF9B1659F0E1EF9E1621F15DC0F3EF99
:101920009F1661F124EF9216C9F056C0112391F071
:10193000053008F067C0CF7181E090E002C0880FE9
:10194000991FCA95E2F72091FF013091000282278A
:10195000932721C0063008F055C0EDCF80911C07B9
:1019600082FD1CC0112329F08C2F8F7129C01123F7
:10197000D9F38C2F8F710E94642444C0112349F045
:10198000CF7181E090E002C0880F991FCA95E2F7FD
:1019900002C080E090E00E945F2434C0112399F0DF
:1019A000CF718C2F0E94A42480911C0782FF07C056
:1019B000A8E0CA9FC0011124836080931B058C2F6F
:1019C0000E94A4241FC081E00E9476240230D0F03F
:1019D00082E00E94762416C0112321F0002321F218
:1019E0008D2F70CE002329F2893349F4BFEFE7EE43
:1019F000F3E0B150E040F040E1F700C000008D2F6F
:101A00000E940A2588EF8A0D843010F40E94C12AB2
:101A1000BB20B1F080911B0580FD12C0D701159647
:101A20001C928695869586950E94A424C7010E94E3
:101A3000640880911B058695869586950E9464248E
:101A400060E0C7010E947C0790C065E339CDE5578F
:101A5000FF4F0C94F8338091FB0680FF1EC0282FA7
:101A60002E7F2093FB063091FC064091FD0650919D
:101A7000FE066091FF06709100078091010790912A
:101A800002070E94F22C0E944F2C80914705816032
:101A9000809347050E94712C19CD81608093FB06CD
:101AA00061E086954EC04AE95FE264EA7FE22CC0BD
:101AB00044EA5FE26AE97FE227C04AEB5EE264EC57
:101AC0007EE222C044EC5EE26AEB7EE21DC040EAA8
:101AD0005EE26DEA7EE218C04DEA5EE260EA7EE216
:101AE00013C046E85EE263E97EE20EC043E95EE2CF
:101AF00066E87EE209C048E15DE262E37DE204C09F
:101B000042E35DE268E17DE20E94482CDFCC61E0C7
:101B100081E017C065E082E019C068E086E016C089
:101B20006EE089E013C064E18FE010C067E185E1F9
:101B30000DC061E088E105C062E289E107C061E0B3
:101B400083E20E94522FC2CC6AE285E20E94342CCA
:101B5000BDCC8091D801811106C069E282EA94E08F
:101B60000E941A2AB1CC65E3F9CFDF91CF911F9182
:101B70000F91FF90EF90BF90AF909F908F9008953E
:101B8000AFE0B0E0E6ECFDE00C94733285B780681E
:101B900085BF85B7806885BF84B7877F84BF0FB650
:101BA000F894A895809160008861809360001092FD
:101BB00060000FBE90E080E80FB6F894809361005B
:101BC000909361000FBE87EA9AE19093D7018093CA
:101BD000D6010E9423190E9442198091E20084607C
:101BE0008093E2007894809156028823A1F01091AE
:101BF000E9001F709091EC00892F817090FD80E8C2
:101C0000182B1092E9008091E80083FD0E941D16B8
:101C10001F701093E90082E084BD93E095BD9AEFB8
:101C200097BD80936E001092DA011092DB01109242
:101C3000DC011092DD010E94C91C80930801809193
:101C40000801882321F0109259018BE103C08BE138
:101C50008093590180935A010E94C91C81110E94EE
:101C6000F9308091080180910801811102C094E04F
:101C700001C090E09093E70184E0891B8093E60126
:101C80000EE511E0D8018D918D018F3F11F00E947A
:101C9000EC1CB1E002361B07A9F702E611E0F801DF
:101CA00081918F018F3F11F00E94EC1CF1E008360A
:101CB0001F07A9F788E0E9EEF1E0DF01282F1D9268
:101CC0002A95E9F7EEEDF1E0DF011D928A95E9F73B
:101CD00080E090E00E941D33863E9E4F11F00E94EE
:101CE000B12082E090E00E940F338093F10184E004
:101CF00090E00E941D3390931C0780931B070E9465
:101D0000DB1EEFEFF6E721E0E150F0402040E1F785
:101D100000C000000E94DB1E0E94C91C811102C08D
:101D2000E4E001C0E0E0F0E0E751FE4F808181FF98
:101D300008C06FEF7FEF80E090E00E9451330E9477
:101D4000932983E090E00E940F3390E00E94B42436
:101D50000E94C91C882311F080E001C082E08093BA
:101D60002C0280E8809365020E94AF2F6BE070E048
:101D700085EC91E00E94C92B882309F443C080912F
:101D80002C0265E070E081FD3AC080EC91E00E9499
:101D9000C92B8823B9F16DE070E08EEA91E00E94D2
:101DA000C92B882379F10E94D929DC01CB01805A03
:101DB0009541AF4FBF4F8093030790930407A093C3
:101DC0000507B0930607E8E6F2E080E092E0DF0165
:101DD0009C011D9221503040E1F7F0936F04E09395
:101DE0006E048FEF9FEF909367028093660281E00D
:101DF000809308078093070710922D0203C08BEB96
:101E000091E0C5CF8091E80181117BC080E090E036
:101E10000E941D33863E9E4F21F00E94B1200E94F9
:101E20004C2D88E090E00E9417334B015C0184E266
:101E300090E00E940F33282F30E040E050E060E057
:101E400070E080E090E000E20E940D3428293929FA
:101E50004A295B292093FB063093FC064093FD063C
:101E60005093FE066093FF0670930007809301076E
:101E700090930207809147058360809347052E7FEA
:101E800089F50E944C2D88E090E00E9417336B0189
:101E90007C0184E290E00E940F33282F30E040E084
:101EA00050E060E070E080E090E00E940D34B22FDE
:101EB000A32FF42FE52F5B0197018601BC29A12BED
:101EC000F22BE32BB093FB06A093FC06F093FD06E8
:101ED000E093FE066093FF06B0920007809301072F
:101EE000909302070E94D82C0E944F2C8091FB06F1
:101EF00080FF04C060E086950E94522F81E08093AD
:101F0000E8010E94C91C811102C00E94FC3089E0D6
:101F100091E090931307809312070AE0802E912C92
:101F2000A12CB12C80915602853009F048C010E4F4
:101F3000F12E00E112E180915602853009F03BC09C
:101F400080915602843029F10E94F42B10921607DA
:101F500068E170E00FB6F894A895609360000FBE3A
:101F6000F092600083B7817F846083BF83B7816014
:101F700083BF7894889583B78E7F83BF0FB6F8941C
:101F8000A895809160008861809360001092600045
:101F90000FBE80915502882309F4CDCF0E94DB1E2D
:101FA000E9EEF1E08191811143C481EF91E08E1758
:101FB0009F07C1F7C0CF0E94B9240E94C12A0E9486
:101FC000DB1EA2EFEA2EA1E0FA2EB9EECB2EB1E095
:101FD000DB2ED601F70191918D91892791E0EA3F9F
:101FE000F90719F08823B9F306C0811104C00E94D3
:101FF000B71E1D8639C00E94C91C482E10E033242C
:102000003394D6015D906D01F7016080652411F174
:1020100000E077247394862D8721B1F04420A1F04D
:102020000F8318870E94E5299A8789873B8691E06C
:10203000852D872109F490E09C874F81588569851B
:102040007A858B850E94A7070F5F770C063019F7FA
:10205000D7015C921F5FBFEFEB1AFB0A183089F6BD
:102060000E94031D41E04D870E94C91C8823F9F09E
:1020700080910E0790910F07892BC9F08091FA018A
:102080009091FB010E94CA29803B910580F08091CC
:102090000E07EEE08E9FC0011124FC01EA5EFE4FA8
:1020A000208122FD04C08F5E9E4F0E94EC2A809109
:1020B0004605882309F4CFC080914505E091FB06D1
:1020C000E695E81BE0934105823059F4F0E0EF51CA
:1020D000FE4FE4910E2F10E0FDE1EF2EF9E2FF2E0E
:1020E0006BC0863059F4F0E0E252FE4FE4910E2FBF
:1020F00010E0EDE0EE2EE9E2FE2E5EC0893061F4E4
:10210000E695F0E0E552FE4FE4910E2F10E07AEBF9
:10211000E72E77E2F72E50C08F3061F4E695F0E0BD
:10212000E852FE4FE4910E2F10E06EE2E62E67E2D9
:10213000F62E42C0853159F4F0E0EB52FE4FE491A7
:102140000E2F10E058EAE52E56E2F52E35C0883104
:10215000F9F0833249F4E3EDF1E00591149143ED98
:10216000E42E48E2F42E28C08432C9F08532F1F41E
:102170008E2F63E00E94CA33E92FF0E0E053FE4F58
:10218000E4910E2F10E034EFE32E37E2F32E14C06B
:1021900008E210E023E2E22E26E2F22E0DC004EF68
:1021A00011E094EEE92E95E2F92E06C000ED17E05D
:1021B0008BEBE82E85E2F82E80914205882361F0B2
:1021C000109242050E94AC1E9093400580933F05FB
:1021D00010924405109243050E94AC1EE0913F0509
:1021E000F09140059C012E1B3F0B2F3F3F4798F578
:1021F0002091FE012223B1F01092FE012091FC01FA
:102200003091FD01821B930B8F3F9F4758F4205D57
:102210003A483093FD012093FC0180914705886086
:1022200080934705C0904305D09044050E0F1F1FB3
:102230001093400500933F058FE395E0F701099562
:102240008091430590914405892B29F4CD2819F0FC
:1022500081E08093FE0180910807882309F4E8C19A
:1022600080912E0290912F020E94CA29C29708F4F1
:10227000D5C00E94E52990932F0280932E0288E614
:1022800092E090936F0480936E040E94C91C88238F
:1022900009F4C0C084E092E00E9477158091FF01AC
:1022A00090910002292F33272115310519F0C9011A
:1022B000E8E001C0E0E09C01B4E036952795BA95CE
:1022C000E1F72115310511F0EC5FC9019C0136954C
:1022D0002795369527952115310511F0EE5FC90137
:1022E00096958795892B09F0EF5F8E2F90E08F30C0
:1022F0009105A8F4FC01E056FF4F0C94F8338DEFE4
:1023000091E008C084EF91E005C08CEE91E002C03E
:1023100085EE91E00E94771581E00E94992B8091D3
:102320000B020E949D15FC01019620812032D9F3F9
:10233000CF010E94851582E192E00E94771580917D
:102340000A020E949D15FC01019620812032D9F3DA
:10235000CF010E9485158EE092E00E9477152090B3
:1023600008023090090280911F01909120012816E7
:10237000390639F480910702803219F421E032E005
:1023800037C03092200120921F0180E28093070223
:102390002101612C712C10920602E6E0EE2EE2E0A3
:1023A000FE2E00E010E0C301B201A50194010E94DD
:1023B0009933605D603319F40115110539F041144A
:1023C00051046104710419F460E201C060E3D701B3
:1023D0006E937D01C301B201A50194010E9499335E
:1023E00029013A010F5F1F4F05301105E1F6C6CFF5
:1023F000C9012F5F3F4FFC0140814032C9F30E9469
:1024000085158CE092E00E947715809121010E9451
:10241000F81404C084E192E00E947715809166026E
:1024200090916702892B31F480910707882309F482
:10243000FFC0E7C0809108078823B1F380912D0287
:102440008111F2CF0E940E2C20916602309167021A
:102450002115310549F380E0282E312CEE24E39438
:10246000F12C082E02C0EE0CFF1C0A94E2F7A70123
:1024700042235323452B11F48F5FEECF90912C0212
:10248000910165E0220F331F6A95E1F790FF13C0B9
:1024900055E0369527955A95E1F7220F220F220F26
:1024A0002093240110922701295F2093250183E0C6
:1024B0008093280111C0220F232F221F330B319547
:1024C0008295880F80768093240120932701815E76
:1024D000809325012093280124E630E047E050E076
:1024E00062E271E088E70E945730892B09F09CCFA7
:1024F00080912C0280FF64C080E2ECE0F2E0DF011A
:102500001D928A95E9F735E0220C331C3A95E1F7E4
:10251000ECE6F1E0FF87EE8748E651E0AE85BF8547
:102520008D91BF87AE87FA019191AF019101290F7B
:10253000311DB90168597D4F2B0190E0845F9D4F9B
:10254000FC0107E09F01281B390BCC24C39401C078
:10255000CC0C2A95EAF7B201D12CDB011D91BD010B
:102560001C21202F2D192770622E022E000C330BF8
:10257000B12F01C0BB0F6A94EAF76B2E31952195FC
:1025800031092770332701C016952A95EAF7612A89
:102590001081612A6082D39428E0D212DECF0150EC
:1025A00031960F3F79F66E857F856057714009F04F
:1025B000B5CF04E610E020E230E04CE052E00DC080
:1025C000C10125E0880F991F2A95E1F7AC01485910
:1025D0005D4F04E610E020E230E060E488E70E940E
:1025E0007830892B09F020CFE094F0948091660236
:1025F00090916702E822F922F0926702E092660267
:1026000013CF0E94D929009103071091040720914C
:10261000050730910607DC01CB01801B910BA20B53
:10262000B30B8F3F9F4FAF4FBF4710F40E94F42B67
:10263000FD85F1110E940E2C86E0E4E2F7E0DE0158
:10264000119601900D928A95E1F71092260710924B
:10265000270710922807109229078B81811104C047
:102660008C81882309F453C080912207909123071D
:102670000E94CA299C0190911D07992309F4EEC07C
:102680002531310508F443C09F3F19F09F5F9093B7
:102690001D071B81112361F00E94082F111614F0F1
:1026A0009FEF01C091E0899F802D11248093260720
:1026B0001C81112361F00E94082F111614F09FEF66
:1026C00001C091E0899F802D1124809327073091CC
:1026D00026073323E1F0209127072223C1F045EBA1
:1026E0003403C0011124992319F09093260703C0E5
:1026F00081E08093260765EB2603C001112499230E
:1027000019F09093270703C081E0809327078D81FC
:10271000811104C08E81882309F453C08091200761
:10272000909121070E94CA299C0190911E0799232C
:1027300009F499C02135310508F443C09F3F19F0D1
:102740009F5F90931E071D81112361F00E94E62E6A
:10275000111614F09FEF01C091E0899F802D112484
:10276000809328071E81112361F00E94E62E111626
:1027700014F09FEF01C091E0899F802D1124809378
:102780002907309128073323E1F0209129072223DC
:10279000C1F075EB3703C0011124992319F0909310
:1027A000280703C081E08093280735EB2303C0018D
:1027B0001124992319F09093290703C081E0809395
:1027C000290746E050E0BE016F5F7F4F84E297E04B
:1027D0000E945134892BA9F48091260781110FC0E2
:1027E0008091270781110BC080912807811107C0B4
:1027F00081E090912907911103C080E001C081E040
:1028000080FD0E94282F86E0FE013196A4E2B7E009
:1028100001900D928A95E1F70E94C12A90913002B1
:10282000891709F47FCB809330020E94D9297ACB93
:1028300009BD19BD09B400FEFDCF8091D8008F7D80
:102840008093D8008091E00082608093E0008091C6
:10285000E00081FDFCCF0E94B9246DCB2B30310507
:1028600008F014CF54CF2B30310508F069CFA9CF31
:102870008091580287FF11C08091E80082FD05C059
:10288000809156028111F8CF11C08091E8008B77BA
:102890000BC080915602882349F08091E80080FFA8
:1028A000F8CF8091E8008E778093E8000895982F04
:1028B000973068F59093E900981739F07091EC0023
:1028C0002091ED005091F00003C0242F762F50E0AE
:1028D00021FD02C09F5FECCF3091EB003E7F309333
:1028E000EB003091ED003D7F3093ED003091EB0037
:1028F00031603093EB007093EC002093ED00509327
:10290000F0002091EE0027FDE5CF80E008958F7064
:102910008093E90081E0089520915E0230915F028A
:102920002617370748F06115710539F42091E80042
:102930002E772093E80001C0B901FC0120E0611569
:10294000710579F1809156028823F1F18530F1F11A
:102950008091E80083FD3CC08091E80082FD2EC09C
:102960008091E80080FFEBCF2091F3008091F2008E
:1029700090E0922B6115710551F08830910538F483
:1029800021912093F100615071090196F3CF21E06C
:10299000089709F020E08091E8008E778093E800A6
:1029A000CECF2111CFCF0AC080915602882361F08B
:1029B000853061F08091E80083FD0AC08091E800D5
:1029C00082FFF2CF80E0089582E0089583E00895C9
:1029D00081E0089543E050E0BC0182E00E9431298B
:1029E000089546E050E0BC0182E00E94312908953C
:1029F000CF93DF93682F8A3011F481E003C08D30CC
:102A000021F480E00E94992B6FC080916E04909118
:102A10006F0426E0FC01A8E6B4E001900D922A952F
:102A2000E1F7603E30F026E0FC0111922A95E9F7CB
:102A30000AC0F6E06F9FB001112465547C4F46E058
:102A400050E00E940633C0916E04D0916F0446E0BE
:102A500050E0BE0188E694E00E945134892B49F190
:102A60009E0128563240A90185E0569547958A95E2
:102A7000E1F781E090E0BC0102C0660F771F4A9544
:102A8000E2F74091660250916702462B572B2B5F6D
:102A90003F4F65E0369527956A95E1F702C0880FAC
:102AA000991F2A95E2F7842B952B909367028093C8
:102AB00066029E012256324040916502642F70E00A
:102AC000C9010E945F32481B463010F4240F311DAB
:102AD000211582E0380710F020E030E028593D4F02
:102AE00030936F0420936E04DF91CF910895CF93BC
:102AF000DF93EC01FE018491882321F00E94F814F9
:102B00002196F8CFDF91CF9108950F931F93CF9324
:102B1000DF93EC01FC0101900020E9F78F010150E7
:102B20001109C017D10720F489910E94F814F9CF38
:102B3000DF91CF911F910F9108958F929F92AF9245
:102B4000BF92CF92DF92EF92FF9290912A01981359
:102B500005C090916402903209F44DC080932A011F
:102B600090E290936402C82ED12CE12CF12C1092AB
:102B70006302C701B6012AE030E040E050E00E9465
:102B80009933605D603339F0C114D104E104F1047C
:102B900019F460E201C060E3609362028AE0882E6B
:102BA000912CA12CB12CC701B601A50194010E9462
:102BB0009933211531054105510541F0CA01B9018B
:102BC000A50194010E949933605D01C060E26093A9
:102BD0006102C701B60124E630E040E050E00E9407
:102BE0009933211531054105510511F0205D01C0D2
:102BF00020E22093600280E692E0FF90EF90DF9069
:102C0000CF90BF90AF909F908F900895FC01AC0142
:102C10004C5F5F4F8FEF91E32191822728E030E0F6
:102C200087FF03C0880F892701C0880F2150310911
:102C3000B9F7E417F50781F70895AAE2B0E0E3E2F7
:102C4000F6E10C948232E8E5F2E080E692E0209131
:102C5000F10021938E179F07D1F78091590283309D
:102C600009F461C030F4813071F0823009F49BC006
:102C7000B2C08A3009F487C08B3009F46CC0893047
:102C800009F0A9C020C080915802813A09F0A3C080
:102C90008091E800877F8093E80080915C029091AA
:102CA0005D02892B21F460E284E392E003C060E0DE
:102CB00080E090E070E00E948C148091E8008B77B7
:102CC0008093E80088C080915802813209F083C067
:102CD00080915C0290915D02029708F07CC0809127
:102CE000E800877F8093E8008091E80082FD05C0BE
:102CF000809156028111F8CF6EC02091F30080912F
:102D0000F20090E0922B029731F48091F100813033
:102D100011F0863021F48091F1008093330280918C
:102D2000E8008B7754C080915802813A09F053C073
:102D300080915C0290915D02892B09F04CC08091DA
:102D4000E800877F8093E8008091E80080FFFCCF57
:102D50008091290137C0809158028132E1F580913C
:102D60005C0290915D02892BB1F58091E800877F2C
:102D70008093E8000E94381480915A0280932901C0
:102D80000E94B92428C080915802813221F5809197
:102D9000E800877F8093E8000E94381480915B02EE
:102DA0008093320218C080915802813AA1F4809138
:102DB000E800877F8093E8008091E80080FFFCCFE7
:102DC000809132028093F1008091E8008E778093A9
:102DD000E8000E9438148091E80083FFCEC1809102
:102DE000580290915902492F50E04A30510508F09D
:102DF000C4C1FA01E155FF4F0C94F833803821F03B
:102E0000823809F0BAC108C08091540290915502ED
:102E1000992389F082600FC080915C028F708730A7
:102E200008F0ABC18093E9008091EB0085FB882717
:102E300080F91092E9009091E800977F9093E80064
:102E40008093F1001092F10065C1282F2D7F09F0C9
:102E500094C1882319F0823061F08FC180915A02A9
:102E6000813009F08AC1933009F080E080935502E7
:102E70002EC080915A0281112AC080915C028F700D
:102E80002FEF280F263008F078C18093E9002091B9
:102E9000EB0020FF1CC0933021F48091EB00806296
:102EA00014C09091EB0090619093EB0021E030E032
:102EB000A90102C0440F551F8A95E2F74093EA002A
:102EC0001092EA008091EB0088608093EB001092F2
:102ED000E9008091E800877F20C181114EC11091E7
:102EE0005A021F778091E3008078812B8093E30062
:102EF0008091E800877F8093E8000E9438148091D9
:102F0000E80080FFFCCF8091E30080688093E300BD
:102F1000111102C082E001C083E0809356022DC1EE
:102F20008058823008F029C180915A0290915B024A
:102F30008C3D53E0950779F583E08A838AE28983A3
:102F40004FB7F894DE01139620E03EE051E2E32F04
:102F5000F0E050935700E49120FF03C0E295EF703A
:102F60003F5FEF708E2F90E0EA3010F0C79601C0FF
:102F7000C0968D939D932F5F243149F74FBF809169
:102F8000E800877F8093E8006AE270E0CE01019656
:102F90000E948C14AEC040915C0250915D02292FBA
:102FA000332723303105A9F068F42130310509F4C5
:102FB000F3C02230310509F0E0C08BE390E0EAE491
:102FC000F3E044C02132310521F12232310571F1A3
:102FD000D4C0992781309105A1F058F0029709F0EB
:102FE000CCC0E7E9F3E0E4918E2F90E0E7E9F3E06D
:102FF0002AC0E7EBF3E0E4918E2F90E0E7EBF3E0FB
:1030000022C0E5EAF3E0E4918E2F90E0E5EAF3E0F8
:103010001AC04115510509F4C4C04130510509F0E9
:10302000ACC089E090E0E5E7F3E010C04115510540
:1030300009F4BCC04130510509F09FC086EB90E017
:10304000E4E5F2E003C0009709F497C02091E8009E
:10305000277F2093E80020915E0230915F02821763
:10306000930708F49C0140E02115310589F1809116
:103070005602882309F43DC08530D9F18091E800DB
:1030800083FD37C08091E80082FD2FC08091E80069
:1030900080FFEACF4091F3008091F20090E0942B02
:1030A0002115310559F08830910540F44491409341
:1030B000F1003196215031090196F2CF41E0089795
:1030C00009F040E08091E8008E778093E800CCCF53
:1030D0004111CDCF0AC080915602882351F085302E
:1030E00041F08091E80083FD04C08091E80082FFF8
:1030F000F2CF8091E8008B778093E8003EC0803863
:10310000E1F58091E800877F8093E8008091570285
:103110008093F1008091E8008E778093E8000E9410
:1031200038142BC0811129C080915A0290915B0202
:103130009927029714F58091E800877F8093E80033
:1031400010915A02109357020E943814111106C0B0
:103150008091E30087FD02C081E001C084E080939C
:10316000560242E061EC81E00E94571442E261ECB9
:1031700082E00E945714809156028091E80083FFFC
:103180001AC08091E800877F8093E8008091EB006F
:1031900080628093EB000FC082E190E0E5E8F3E00D
:1031A00055CF89E090E0ECE5F3E050CF80E490E08B
:1031B000EAE0F3E04BCFAA96E3E00C949E321F9234
:1031C0000F920FB60F9211242F933F934F935F935B
:1031D0006F937F938F939F93AF93BF93CF93DF931F
:1031E000EF93FF93C091E900CF708091EC00D82F4E
:1031F000D17080FDD0E81092E9008091F000877FC7
:103200008093F00078940E941D161092E90080913E
:10321000F00088608093F000CD2BCF70C093E90060
:10322000FF91EF91DF91CF91BF91AF919F918F91DE
:103230007F916F915F914F913F912F910F900FBEB2
:103240000F901F901895E8EDF0E080818E7F8083CD
:103250001092E2001092DA001092E100A0EEB0E0CD
:103260008C9181608C9380818F77808319BCA7EDCE
:10327000B0E08C918E7F8C9380818F7E80831092C2
:1032800031020895A0E0B0E0E8E4F9E10C947D3269
:10329000C8EDD0E088818F7E8883E7EDF0E0808103
:1032A0008160808384E082BF81E0809331028881E5
:1032B0008E7F888302EE10E0F80110821092DA000F
:1032C00081EEC82ED12CF601108288818F778883F9
:1032D00088818068888388818F7D888319BC10925B
:1032E000560210925702109255021092540290EE1C
:1032F000E92EF12CF70180818B7F808388818160AA
:10330000888342E060E080E00E945714F6018081EB
:103310008E7F8083F80180818160808380818860D6
:103320008083F70180818E7F80838881806188839C
:10333000CDB7DEB7E8E00C9499321F920F920FB62A
:103340000F9211242F933F934F935F936F937F932B
:103350008F939F93AF93BF93EF93FF938091E1007F
:1033600082FF09C08091E20082FF05C08091E100E8
:103370008B7F8093E1008091DA0080FF2AC08091EA
:10338000D80080FF26C08091DA008E7F8093DA001B
:103390008091D90080FF18C080E189BD82E189BD9C
:1033A00009B400FEFDCF81E0809356028091310286
:1033B00081110FC00E9423190E9442198091E200DE
:1033C00084608093E20005C019BC109256021092EE
:1033D00031028091E10080FF17C08091E20080FF00
:1033E00013C08091E2008E7F8093E2008091E20022
:1033F00080618093E2008091D80080628093D80041
:1034000019BC85E0809356028091E10084FF30C0B2
:103410008091E20084FF2CC080E189BD82E189BDFA
:1034200009B400FEFDCF8091D8008F7D8093D80035
:103430008091E1008F7E8093E1008091E2008F7E99
:103440008093E2008091E20081608093E2008091AD
:103450005702882311F084E007C08091E30087FDC4
:1034600002C081E001C083E0809356028091560241
:103470008091E10083FF27C08091E20083FF23C099
:103480008091E100877F8093E10082E08093560283
:10349000109257028091E1008E7F8093E10080912D
:1034A000E2008E7F8093E2008091E2008061809351
:1034B000E20042E060E080E00E9457148091F0005A
:1034C00088608093F000FF91EF91BF91AF919F9141
:1034D0008F917F916F915F914F913F912F910F90BD
:1034E0000FBE0F901F9018952091E4003091E500D9
:1034F00095E64091EC00842F817040FF23C08091BD
:10350000E80080FD1DC080915602882399F0853027
:1035100099F08091EB0085FD11C04091E40050913D
:10352000E5002417350729F3915011F09A01E1CFF6
:1035300084E0089582E0089583E0089581E008958D
:1035400080E008954091E80042FFDDCF089580E0DB
:10355000089590911B0792FF0DC0282F28712830E5
:1035600019F4877F846006C0282F2471243011F459
:103570008B7F886093FF0DC0282F2871283119F4A4
:10358000877E846106C0282F2471243111F48B7E3C
:10359000886120911C0720FF0DC0382F387138300A
:1035A00019F4877F816006C0382F3171313011F4F2
:1035B0008E7F886021FF0DC0282F2871283119F4D3
:1035C000877E816106C0282F2171213111F48E7E02
:1035D000886194FD877E08958238910569F1B0F481
:1035E0008133910509F475C048F48932910509F4D5
:1035F00067C08A32910509F471C008958533910539
:1036000009F459C089339105B9F00895833E9105B5
:1036100089F138F4803E9105D1F0823E910529F17F
:103620000895863E9105C9F1873E9105D9F1843E02
:10363000910509F06CC027C020911B0720FD57C0E1
:1036400021FD55C020911C0723FD5BC0089580918A
:103650001B0780FD48C080911C0780FF48C08091F7
:103660001B0784FD46C083EE51C080911B0782FF7B
:103670003CC0F5CF80911B0782FD37C080911C07AD
:1036800080FD35C0ECCF80911C0781FF36C0809152
:103690001B0784FD2EC087EE39C080911B0783FF76
:1036A0002AC0F5CF80911B0783FD25C080911C07A0
:1036B00081FD23C0ECCF80911B0785FD22C01FC078
:1036C00080911B0785FD1BC080911C0783FF19C0DB
:1036D0000AC080911B0786FD16C017C080911B078A
:1036E00086FD13C010C089E311C082EE0FC080EECA
:1036F0000DC080E00BC086EE09C084EE07C085E3F4
:1037000005C089E203C08AE201C081E390E0089528
:10371000A0E0B0E0EEE8FBE10C947B327C015B01C1
:103720006A018091A1048A3018F001E010E002C023
:103730000AE010E0C1E0D0E0B501C701F60109954B
:10374000811115C021960C171D0794F0CC9F900194
:10375000CD9F300D300D112480E090E045E34A9577
:10376000F1F70000019682179307C1F7E5CF81E0DA
:10377000CDB7DEB7EAE00C949732ABE0B0E0E3EC13
:10378000FBE10C94833288E0EBEFF6E0DE0111966A
:1037900001900D928A95E1F780914505909146053B
:1037A000A091470589879A87AB872B8540919D0417
:1037B00050919E0460919F047091A0043FB7F894CB
:1037C0008091170790911807A0911907B0911A07D7
:1037D0003FBF841B950BA60BB70B84369105A10543
:1037E000B10510F4222319F1809144019091450113
:1037F00087579B4F4091430150E04C30510510F0EA
:103800004BE050E0BE016F5F7F4F0E945E3483E06B
:1038100090E00E94E431882369F00E94D9296093E6
:103820009D0470939E0480939F049093A004109233
:10383000470581E02B96E2E00C949F32EF92FF92D5
:103840001F93CF93DF9300D000D01F92CDB7DEB788
:103850007B0180E090E00E94E431882309F463C09A
:1038600040912E0150E04115510511F041E050E02A
:1038700060912F017091300167577B4FCE01059603
:103880000E945E34409181045091820460918304CF
:10389000709184042FB7F8948091170790911807BE
:1038A000A0911907B0911A072FBF841B950BA60B87
:1038B000B70B84369105A105B10538F48AE894E088
:1038C0000E9406169D81891781F181E090E00E9497
:1038D000E431182F882391F04091360150E04530B3
:1038E000510510F044E050E06091370170913801CB
:1038F00067577B4FCE0101960E945E348AE894E0C0
:103900000E94061691E02D81281390E0192341F1C1
:103910000E94D92960938104709382048093830468
:10392000909384040FC010E001C011E080918A04DC
:1039300090918B04A0918C04B0918D0489839A831B
:10394000AB83BC83112361F089819A81AB81BC81F7
:1039500080937D0490937E04A0937F04B0938004B1
:1039600080917D0490917E04A0917F04B0918004A9
:10397000F70180839183A283B383812F0F900F90EF
:103980000F900F900F90DF91CF911F91FF90EF90CC
:10399000089580917C04811118C08091D8008061C5
:1039A0008093D8008AE18A95F1F700C08091D90010
:1039B00080FD02C082E001C081E080937C048230FF
:1039C00021F40E9423191092560281E090917C0408
:1039D000913009F080E00895F894E82FE295EF70B7
:1039E000F0E031A1282F2F7081E090E001C0880F16
:1039F0002A95EAF7982F9095932391A392A1892B6A
:103A000082A3789408950F931F930E94C91C882362
:103A100019F00E94D9290EC00E94D9290091DA011B
:103A20001091DB012091DC013091DD01600F711FED
:103A3000821F931F1F910F910895A4E0B0E0E3E26D
:103A4000FDE10C948332409185045091860460918D
:103A50008704709188042FB7F8948091170790918C
:103A60001807A0911907B0911A072FBF841B950B57
:103A7000A60BB70B84369105A105B10570F10E9424
:103A8000031DDC01CB010296A11DB11D89839A8320
:103A9000AB83BC8380913C0190913D0187579B4F44
:103AA00040913B0150E04530510510F044E050E0BA
:103AB000BE016F5F7F4F0E945E3482E090E00E9403
:103AC000E431882359F00E94D929609385047093CA
:103AD0008604809387049093880481E02496E2E032
:103AE0000C949F327830B0F46630A0F48430A0F4A7
:103AF00090E3899FF001112486E0789FE00DF11D8D
:103B00001124E60FF11DEE0FFF1FE550F74F8591D1
:103B10009491089580E001C081E090E008951F93A2
:103B2000CF93DF930E94EC1AEC01C11580E5D80712
:103B3000E8F5C11590E4D90708F0A8C0C03ED1054A
:103B400030F5CD3CD10508F094C0C83AD10578F4E1
:103B5000C53AD10508F083C0C130D10509F47CC055
:103B600008F4F2C0C430D10508F0F1C0EDC0C33C88
:103B7000D10508F0E9C0C85AD0E0CC0FDD1FCD5800
:103B8000DE4F0990D881C02DCE019464E1C0C115EB
:103B900080E2D80708F0CBC0C11591E0D90708F042
:103BA0006BC0C83ED10508F4D2C0CEC0C03682E595
:103BB000D80728F5C03492E5D90708F079C0C0329B
:103BC00082E5D80708F06CC0C11592E5D90708F462
:103BD00081C04C2F4695469580E2489FA001112454
:103BE000C37021E030E0C90102C0880F991FCA9557
:103BF000E2F7EA01C82BD92BCE019D68A9C0C03AD3
:103C000082E5D807B8F48C2F8F71C03892E5D907B8
:103C100008F07BC08695869590E2899F90011124DB
:103C2000C37081E090E002C0880F991FCA95E2F747
:103C30009A6868C0C03C82E5D80708F46DC0C03EF1
:103C400092E5D90708F080C0CF71DD27DC2FCC27A3
:103C5000CE01806F906A7CC081E090E079C0C55A47
:103C6000D0E0C059DE4F8881C82FD0E0CE019064EB
:103C70006FC0CE0190656CC08D2F0E94A91A182FBD
:103C8000CE0199270E94EC1A1F715CC0CE019927C2
:103C90000E94EC1ACC27DF70D06A8C2B9D2B58C069
:103CA000CF71D0E0DC2FCC27CE01816F906A50C05D
:103CB0008C2F8F718695869590E2899F90011124B3
:103CC000C37081E090E002C0880F991FCA95E2F7A7
:103CD0009C6818C08C2F8F710E94A91A95E0D69508
:103CE000C7959A95E1F7CF70D0E0DC2FCC27282F2D
:103CF00030E084FF05C084E0220F331F8A95E1F78E
:103D0000D069CE01822B932B23C090E0D82FCC27F3
:103D1000CE01846F906A1CC08C2F8F710E94A91AEB
:103D20008F7190E0D82FCC27CE01906211C08D2FDB
:103D30008F710E94A91A182FCE0199270E94EC1AA0
:103D40001F719062912B04C080E090E001C0CE0111
:103D5000DF91CF911F9108950E94C91C882319F00B
:103D60000E94E52908950E94031DCB010895A6E055
:103D7000B0E0EDEBFEE10C9481320E94E5298C016C
:103D800080917004909171040817190781F01982CD
:103D90001A820E94E529682F49815A81792F80E093
:103DA00090E00E94A7071093710400937004269678
:103DB000E4E00C949D32ACE0B0E0E1EEFEE10C9466
:103DC0007632AE014F5F5F4F7A0188E0DA011D92D3
:103DD0008A95E9F70EE511E06A0182E6682E81E036
:103DE000782EAA24A394B12C28E6822E21E0922ECC
:103DF000F80180818F3F09F440C0F894E82FE295E4
:103E0000EF70F0E021A18F70A50102C0440F551F93
:103E10008A95E2F7CA01922F982B91A392A18095DF
:103E2000892382A3789400C0E2E6F1E0512C31E0CE
:103E300021912F3F89F0A22FA295AF70B0E090960C
:103E40008C9190E02F7002C0959587952A95E2F7A6
:103E500080FD02C0832F01C080E0582A330F8E16E8
:103E60009F0631F7D8018C918F3F11F00E94EC1C16
:103E7000B0EABA95F1F7F60150820F5F1F4FFFEFDE
:103E8000CF1ADF0A6016710609F0B2CF48E050E0A1
:103E9000B7018EED91E00E945134009741F028E087
:103EA000F701AEEDB1E001900D922A95E1F7009196
:103EB000E701892B49F081E0809374040E94E52991
:103EC000909373048093720480917404811102C0F2
:103ED000F12C22C080917204909173040E94CA292F
:103EE0000597B0F310E007511E4F44E050E06EED2F
:103EF00071E0C8010E945134892B59F084E0EEED45
:103F0000F1E0D80101900D928A95E1F7FF24F39436
:103F100001C0F12C109274040E94C91CE091E701C9
:103F2000882309F477C019861A861B861C860E2FF3
:103F300010E007511E4F8091A1048A3058F44EE1E1
:103F40005CE1BE01675F7F4FC8010E94881B882328
:103F500099F10AC080917504909176040E94CA2953
:103F6000843F914060F739C04DE15DE1BE01675F7C
:103F70007F4FC8010E94881B8823F1F04DEB5BE165
:103F8000BE01675F7F4FC8010E94881B8823A1F094
:103F90001092A1048091E60190E044E050E0BE015F
:103FA000675F7F4F87519E4F0E94513421E02093DD
:103FB0007B04892B01F5AFC08091A1048F3F19F0DC
:103FC0008F5F8093A1048091A1048A3018F30E942E
:103FD000E529909376048093750480917B0488236F
:103FE00009F499C0FE01399684E0DF011D928A959B
:103FF000E9F710927B04E091E601F0E0E751FE4F13
:1040000089859A85AB85BC8580839183A283B383A0
:1040100081E082C0F0E0E751FE4F84E0AAE8B4E01E
:1040200001900D928A95E1F78AE894E00E940616C5
:104030008093890480908E0490908F04A0909004C7
:10404000B09091048091770490917804A0917904C4
:10405000B0917A0488169906AA06BB06D1F0809220
:10406000770490927804A0927904B0927A040E9426
:10407000C91C81110EC00E94D929861A970AA80A64
:10408000B90A8092DA019092DB01A092DC01B09231
:10409000DD0180919204282F21708695E090930491
:1040A000D0909404C090950400919B0410919C04BE
:1040B00010929C04112379F110FF17C09091FB0618
:1040C000222339F091609093FB0660E00E94522F0A
:1040D0000CC09E7F9093FB060E944F2C8091470559
:1040E0008160809347050E94712C11FF06C020E07B
:1040F0004C2D6D2D8E2D0E94F72D12FF07C0002331
:1041000019F00E94562C02C00E944F2C13FF03C0CE
:1041100081E08093420580E08F292C96EFE00C949B
:10412000923220911A059091E10457E02917A9F0E5
:1041300030E0529FF001539FF00D1124EE51FB4FE0
:104140007181761306C07081781303C07581741372
:1041500006C02F5F3F4F2770E9CF80E0089581E0D0
:104160000895A8E0B0E0E7EBF0E20C94833266EE4D
:104170007EEF80E090E00E94513360E082E090E0CA
:104180000E94333360E083E090E00E94333310926A
:104190003E0510923D0560E074E184E090E00E94ED
:1041A000513360E086E090E00E9433336FEF87E0A8
:1041B00090E00E94333340E050E0BA0188E090E0A4
:1041C0000E94453360E084E290E00E94333360E077
:1041D00087E190E00E94333360E08CE090E00E9441
:1041E000333360E08DE090E00E94333319821A820D
:1041F0001B821C821D821E821F82188648E050E0AE
:1042000068E170E0CE0101960E94233340E050E067
:10421000BA0180E290E00E94453340E050E0BA01EC
:104220008FE090E00E94453340E050E0BA0183E126
:1042300090E00E9445332896E2E00C949F328095EE
:1042400090910C07892380930C0708958095909195
:104250000D07892380930D07089590910D07809194
:104260000C07982B9093A20480913C058823D9F0E9
:10427000892B8093A20480912901882331F08091B9
:104280001B0787FF02C08EE101C086E0E4EAF4E08C
:1042900090E0815028F021912223D9F39F5FF9CF3C
:1042A000911110923C0540E250E06CE175E082EA29
:1042B00094E00E945134892B21F180E2E2EAF4E09B
:1042C000ACE1B5E001900D928A95E1F7E09112071B
:1042D000F09113073097A9F080912901882359F0B4
:1042E00080911B0787FF07C08091A2048093A304DD
:1042F00086E08093A2040280F381E02D82EA94E0BC
:104300000995089580911A059091E104891719F093
:104310008F5F8770FBCF0895A0E0B0E0E2E9F1E2A3
:104320000C947E328091E00482958F7009F04FC02A
:104330008091DF04882309F44AC0C0911A0587E000
:10434000D82E8091E104C81709F441C0D0E0DC9E6A
:104350008001DD9E100D1124F801EE51FB4F848188
:10436000882391F191818091DB0498132DC0908175
:104370008091DA04981328C08581811125C0E280DC
:10438000F3808091DC049091DD04E81AF90A60E082
:104390008AED94E00E947C078FEAE816F104A0F40D
:1043A0008091E0048F7080618093E004F801E8510F
:1043B000FB4F80818F70806180838AED94E00E9442
:1043C00064080E94822103C02196C770BACFCDB77E
:1043D000DEB7E7E00C949A32A0E0B0E0E2EFF1E261
:1043E0000C947C327C010091FF01109100028091BD
:1043F0003D0590913E05082B192BCFE0D0E0CC2451
:10440000C394D12CC6010C2E02C0880F991F0A94A8
:10441000E2F780239123892B21F4219798F7B12C7F
:1044200009C0BC2EB7018C2F0E94721D0E948F1DE7
:10443000019799F38B2DCDB7DEB7E9E00C94983254
:10444000CF93DF93EC010E94EC21BE010E94721D0C
:104450000E948F1DDF91CF910895FC0124812223BA
:10446000D9F0808191810E94202292959F70963090
:1044700079F010F4925001C09A50923068F4803F65
:1044800069F018F4883E40F409C0843F29F406C05E
:10449000883E20F0813F11F080E0089581E008958A
:1044A000A4E1B0E0E6E5F2E20C9476328C0186E01D
:1044B000F801DE011F9601900D928A95E1F7F8014F
:1044C0007480E5808AEDA82E84E0B82E8091DE0409
:1044D000811122C0772009F451C0EE2009F44BC0AD
:1044E000C8010E942D22F82E882309F444C087E0D9
:1044F000F801AAEDB4E001900D928A95E1F7809160
:10450000DE04813031F48091DA049091DB040E9462
:1045100020220E948C2167C1F801C280D380F090D4
:10452000DF048091DC049091DD04FF2009F4F7C0E2
:10453000508061804601881A990A60E08AED94E013
:104540000E947C07FFEA8F16910408F0A2C0772032
:10455000A9F08091E004382F307F2091DB04F8012E
:104560009181332371F0291709F463C0C8010E94B7
:104570002D22811167C0C8010E946408FF24F394B2
:1045800032C1291314C02091DA04908129130FC07D
:10459000E1100DC08F7080618093E0048AED94E09B
:1045A0000E9464088091E004F80186831BC1E11039
:1045B0003AC040E0662D852D0E94912040E0662D96
:1045C000852D0E949120E82E81110CC15F86688A9A
:1045D0008F8598890E942022292F22952F702430C0
:1045E00020F49F70223028F009C02A50223080F039
:1045F00014C0992349F0811107C013C0992321F0F9
:10460000F8019681907F69F0805E883030F409C0AF
:10461000803F38F0815F833020F0C8010E94640839
:10462000EF2CFE2CE0C08091E00481608093E004D8
:10463000D9C02091DA04F8019081291397CFE110B5
:1046400095CFAFC0EE2009F496CF2091E004822FE1
:1046500082958F7090E002978CF08091DA049091AF
:10466000DB0499878887DB86CA868091DE048C8785
:104670001D862E87CE0108960E94640887E0F80107
:10468000AAEDB4E001900D928A95E1F70E948C2189
:1046900075CF8091E004982F907F51F48AED94E0DB
:1046A0000E94640887E0F50111928A95E9F79AC0A3
:1046B000772009F463CF2091DB04F801918129135D
:1046C0000CC02091DA049081291307C0E11005C0C5
:1046D0008683C8010E9464087FC0C8010E942D2201
:1046E000882309F448CFEE2009F445CF2091E00457
:1046F000822F82958F7090E002970CF4BFCF80914B
:10470000DA049091DB049A838983DC82CB828091E6
:10471000DE048D831E822F83CE010196ADCF46012C
:10472000881A990A60E08AED94E00E947C07FFEA0B
:104730008F16910408F050C0772009F41FCFFE2C8B
:10474000EE2009F418CF9091DB04F80181819813D1
:1047500035C09091DA048081981330C08091DC04D8
:104760009091DD04C81AD90AFFEACF16D104E8F403
:104770008091E00480FD19C082958F70482F50E031
:104780004115510591F02091E004F80126834F3046
:10479000510541F08F5F982F9295907F822F8F70F7
:1047A000892B8683C8010E94640887E0F801AAED7E
:1047B000B4E001900D928A95E1F715C0C8010E94FE
:1047C0002D2281115BCF8091E00481608093E00411
:1047D000C8010E94640807C087E0F50111928A951C
:1047E000E9F701C0F12C8F2D6496EFE00C94923222
:1047F000983078F5863068F5E82FF0E086E0989FED
:10480000E00DF11D11249E2F977083E0F695E7953A
:104810008A95E1F7EE0FFF1FEE0FFF1FEE53FB4FE0
:1048200040E050E080E0219130E0092E02C0369552
:1048300027950A94E2F721703327042E01C0220F36
:104840000A94EAF7822B4F5F5F4F4430510559F7C6
:10485000089580E00895983088F5863078F5E82F3F
:10486000F0E086E0989FE00DF11D11248E2F8770F7
:1048700051E001C0550F8A95EAF783E0F695E79578
:104880008A95E1F7EE0FFF1FEE0FFF1FEE53FB4F70
:1048900020E030E070E04081CB01022E02C096950E
:1048A00087950A94E2F78170819584278523842770
:1048B00081932F5F3F4F2430310569F7089590931E
:1048C00000028093FF01089521E030E002C0220F32
:1048D000331F8A95E2F7209530958091FF019091E2
:1048E0000002822393230E945F24089590911B0568
:1048F0008095892380931B05282F277069F49817CA
:1049000059F090911C0792FF07C086958695869571
:104910000E94642410921B05089590911C0792FB3D
:10492000222720F9281779F080FB92F990931C0731
:1049300060911B0770911C0784E090E00E94513346
:1049400082E00E947624089521E030E002C0220F28
:10495000331F8A95E2F78091FF0190910002822B2C
:10496000932B0E945F24089590933E0580933D050C
:10497000089510920D0780912901882331F08091CC
:104980001B0787FF02C08EE101C086E0E4EAF4E085
:10499000DF011D928A95E9F780E090E00E949C2A51
:1049A00080E090E00E94772A10920C070E942D214F
:1049B000E4E2F7E086E0DF011D928A95E9F71092C4
:1049C0001D0710921E0710921F070E94282F08959E
:1049D000882321F00E941F210E942D210895882301
:1049E00039F090910C07892B80930C070E942D21A0
:1049F0000895882321F00E9426210E942D210895E8
:104A0000882339F090910D07892B80930D070E9420
:104A10002D210895882399F19CEF980F913A30F455
:104A2000682F82EA94E00E941A2A0DC090E2980F43
:104A3000983060F4877091E001C0990F8A95EAF789
:104A4000892F0E9426210E942D2108959BE5980F11
:104A5000933028F480E090E00E949C2A089598E525
:104A6000980F9B3128F480E090E00E94772A089507
:104A700093E3980F933118F460E00E94A406089520
:104A8000CF93882309F472C0C82F8CEF8C0F813A22
:104A9000C0F5809129018823E1F080911B0787FFF1
:104AA00018C0EC2FE695E695E695F0E0EE55FB4F45
:104AB0008281282F30E04C2F477081E090E002C0C7
:104AC000880F991F4A95E2F782239323892B61F47B
:104AD00012C0E4EAF4E08AEA94E02191C21721F0DE
:104AE0008E179F07D1F707C06C2F82EA94E00E94CF
:104AF0001A2A0E942D216C2F82EA94E00E94422AF9
:104B000010C080E28C0F883078F4C77081E090E0AC
:104B100001C0880FCA95EAF790910D07892B809301
:104B20000D070E942D2122C0EBE5EC0FE33040F48D
:104B3000F0E0E059FE4F808190E00E949C2A16C070
:104B4000E8E5EC0FEB3150F4F0E0EE0FFF1FED580D
:104B5000FE4F808191810E94772A08C083E38C0FE9
:104B6000833120F461E08C2F0E94A406CF91089538
:104B70008091330208950895FC018281813021F4EF
:104B8000FB018081918105C0823029F4FB01828183
:104B900093810E9430080895FB01808191810E94D9
:104BA0004A080895CF93DF93FC012281223049F413
:104BB000FB01EC01828193810E944A088D81826011
:104BC0008D83DF91CF9108950F931F93CF93DF9340
:104BD000EC0100E010E080915D01282F30E0021729
:104BE000130724F590915B019801290F311DA9014C
:104BF000440F551F240F351F255B3A4F869590E0D3
:104C00004C81081719071CF4442331F002C04111EC
:104C100003C04091FE0601C040E06091FD06809116
:104C2000FC060E94682D0F5F1F4FD5CF0E94712C8C
:104C30008C8190E00196817099278C83DF91CF91D0
:104C40001F910F910895A0E0B0E0E9E2F6E20C9424
:104C500079328C01FC014481C42FD0E09E01DE0139
:104C60000E94BB339B01AC010E9486336B017C0127
:104C7000E0E2F0E0EC1BFD0BA5E5B0E09B01AC0130
:104C80000E9486334B015C019F01DF010E94FE33CD
:104C90009B01AC010E9491339B01AC012C0D3D1D89
:104CA0004E1D5F1DC501B4010E949933C22FD22F42
:104CB0002A3228F4F3E02F9F900111240DC025E53E
:104CC00030E02C1B3109C901880F991F280F391FAB
:104CD00037FF02C02F5F3F4F35952795C22FC095F4
:104CE000F12C85E5E82EED1A80915D01F816C8F4E7
:104CF000F1FC02C08E2D01C08D2F90915B012F2DF4
:104D000030E0290F311DA901440F551F240F351F15
:104D1000255B3A4F4C2F6091FD060E94682DF3945D
:104D2000E3CF0E94712CF8018481811102C091E0CF
:104D300003C0803219F49FEF90935801909158016D
:104D4000890FF8018483CDB7DEB7ECE00C9495327F
:104D50001F93CF93DF93EC018C81811109C081E017
:104D60008C831092490592E09093570180935601ED
:104D700080915B0190915C01891770F4E82FF0E05D
:104D80009F01220F331FE20FF31FE55BFA4F1182E1
:104D9000108212828F5FF0CF10E060915D011617D4
:104DA000C0F5E12FF0E070E0CF010E94E4332091E4
:104DB0005B01820F20914905022E000C330B90E01D
:104DC000E217F307CCF020915701022E000C330BB1
:104DD0002E173F078CF09C01220F331F820F931F69
:104DE0009C01255B3A4F4091FE066091FD06809143
:104DF000FC060E94682D0BC0FC01EE0FFF1F8E0FFA
:104E00009F1FFC01E55BFA4F1182108212821F5F27
:104E1000C4CF0E94712C8091560120914905280F22
:104E20002093490590915701980F909357011916B7
:104E30005CF4022E000C330B40915D0150E04150B8
:104E400051092417350734F081958093560181303C
:104E500009F41C82DF91CF911F910895A0E0B0E08A
:104E6000E4E3F7E20C947832EC018A8180FF03C01E
:104E7000BB24BA9402C0BB24B3948C8181110DC0B1
:104E800081E0B81206C080915D0181508093480591
:104E900002C01092480581E08C83A12C46E3842E49
:104EA00090905D01A91408F041C080915B01CA2C6B
:104EB000D12C8601080F111DC801880F991F080FFA
:104EC000191F055B1A4FF80111821082128234E01B
:104ED000E32EF12C712C80914805870D87332CF03F
:104EE000682D0E94D633892F02C087FD890D082EB8
:104EF000000C990BC816D90691F48091FE068E9D80
:104F0000A0018F9D500D11245595479555954795B6
:104F100098016091FD068091FC060E94682D7B0C33
:104F2000F1E0EF1AF108B9F6A394BACF0E94712C00
:104F30008091480591E0B9120EC0811107C080919F
:104F40005D018150809348051C820FC08150809381
:104F50004805BC820AC090E0019660915D0170E056
:104F60000E94E433809348058C83CDB7DEB7EDE033
:104F70000C949432FF920F931F93CF93DF93EC0125
:104F8000F12C0FEF10E060915D01F616F0F48091C6
:104F90005B012F2D30E0280F311DC901880F991FAB
:104FA000280F391F255B3A4F70E0C8010E94E43397
:104FB000962F8C814091FE066091FD06F99E800D32
:104FC00011240E94682DF394DECF0E94712C9A81E7
:104FD0008C8190FF02C08F5F01C081508C83CDB760
:104FE000DEB7E5E00C949C322F923F925F926F9275
:104FF0007F928F929F92AF92BF92CF92DF92EF9269
:10500000FF920F931F93CF93DF93FC016280548034
:1050100081E08483EBE7FAE07490EAEFFAE0E49150
:10502000C091FE06C695C158D0E0CC0FDD1F2D2ED5
:105030003324812C75E0972EAA24AA94B12CE71969
:10504000EE2EF12C80915D01881608F098C0C82CD6
:10505000D12C22E0261568F09C9CF0019D9CF00D5F
:105060001124E351FA4F8091FC0680838091FD0664
:10507000818351100AC09C9CF0019D9CF00D11246D
:10508000E351FA4F1382128260C09C9C80019D9C68
:10509000100D1124E801C351DA4F8B818823F9F0F8
:1050A00081508B832FEF829FC00111246C8170E0AF
:1050B0000E945F32FB01FF27E558F54F8491E82FEE
:1050C000E7192FEFE29FC0011124B7010E945F3260
:1050D0008091FE06689FB00111247A8336C00E9439
:1050E000F632B5010E94E4338215930574F582E02F
:1050F000861588F40E94F632B5010E94E433888355
:105100000E94F6322091FD062695622F70E00E94E3
:10511000E433280F29839C9CF0019D9CF00D112401
:10512000E351FA4F12828091FE06843120F0893CCF
:1051300018F088EC01C084E19C9CF0019D9CF00D6E
:105140001124E351FA4F8483838380915B0196019C
:10515000280F311DC901880F991F280F391F255BA2
:105160003A4F9C9CF0019D9CF00D1124E351FA4FA5
:105170004281618180810E94682D839463CF0E9467
:10518000712CDF91CF911F910F91FF90EF90DF90E5
:10519000CF90BF90AF909F908F907F906F905F90D7
:1051A0003F902F900895A3E0B0E0E9EDF8E20C9471
:1051B00081328C0180914A0581110AC09E012F5FC6
:1051C0003F4F48E76FEF0E94682D8A8180934A0520
:1051D000F8018481813051F028F0823061F44091EF
:1051E0004A050AC080914A0540E007C060914A051F
:1051F00040E080E003C040E080E060E00E94BD2C21
:10520000F801848190E0019663E070E00E94E4334D
:1052100084832396E4E00C949D32CF93DF93EC01DA
:10522000EBEFF6E0438162818C810E94CE2E8C816F
:105230008F5F8C83DF91CF910895CF93DF93EC0143
:10524000EC81F0E0E558F54F4491EBEFF6E0628138
:1052500081810E94CE2E8C818F5F8C83DF91CF91D4
:1052600008950F931F93CF93DF938B01EA019091E1
:105270005602943079F58F708093E9008FEF90910A
:10528000E800815095FD06C095ED9A95F1F7000074
:105290008111F5CF8091E80085FF1CC00E94741A2F
:1052A000882361F08091E8008E778093E80012C037
:1052B000F80181918F018093F1002197209791F35C
:1052C0008091E80085FDF4CF8091E8008E7780938F
:1052D000E800E4CFDF91CF911F910F910895CF9314
:1052E000DF93EC0180912901811105C048E050E075
:1052F000BE0181E00BC080911B0787FF03C040E225
:1053000082E002C048E081E050E0BE010E94312905
:1053100080E2FE01A4E3B2E001900D928A95E1F7EC
:10532000DF91CF91089587E797E7909301088093E5
:1053300000089AE088E10FB6F894A8958093600081
:105340000FBE90936000FFCF78941F920F920FB61C
:105350000F9211248F939F93AF93BF938091170760
:1053600090911807A0911907B0911A070196A11DF5
:10537000B11D8093170790931807A0931907B09356
:105380001A07BF91AF919F918F910F900FBE0F9011
:105390001F9018959C014FB7F89480911707909132
:1053A0001807A0911907B0911A074FBF821B930BE2
:1053B00008952FB7F894609117077091180780919E
:1053C000190790911A072FBF08952FB7F89480916D
:1053D000170790911807A0911907B0911A072FBFCE
:1053E00008951F920F920FB60F9211248F939F93DF
:1053F000AF93BF9380911607811113C08091170757
:1054000090911807A0911907B0911A074196A11D14
:10541000B11D8093170790931807A0931907B093B5
:105420001A07BF91AF919F918F910F900FBE0F9070
:105430001F901895209129012223C9F020911B0764
:1054400027FF15C0262F2695269526952E31C8F4C0
:10545000FC01E20FF11D677081E090E001C0880F50
:105460006A95EAF780959281892382830895FC01E9
:1054700006962281621301C012823196E817F9075D
:10548000C1F70895209129012223C1F020911B0723
:1054900027FF14C0262F2695269526952E3130F508
:1054A000FC01E20FF11D677081E090E001C0880F00
:1054B0006A95EAF79281892B82830895FC013296DE
:1054C0002FEF30E04191641789F02F3F19F441111B
:1054D00001C0232F3F5F3630A9F72F3F39F0FC0181
:1054E000E20FF11D27FDFA95628308950895A3E068
:1054F000B0E0EDE7FAE20C9483322091140730918A
:10550000150728173907A1F0909315078093140702
:10551000E0911207F0911307309751F024E02983AE
:105520009B838A830680F781E02DCE010196099541
:105530002396E2E00C949F32A3E0B0E0E2EAFAE2C4
:105540000C948332209110073091110728173907E6
:10555000A1F09093110780931007E0911207F0914A
:105560001307309751F023E029839B838A830680B9
:10557000F781E02DCE01019609952396E2E00C9487
:105580009F320E94C91C882359F0E0911207F091C4
:105590001307309729F00190F081E02D09950895C7
:1055A00080E00895CF93DF93EC01EA85FB85309787
:1055B00019F06C857D8509958B810E941F218C8156
:1055C0000E9426210E942D2186E0FE0111928A95DB
:1055D000E9F7DF91CF910895CF93DF93EC018D81AF
:1055E00081FD18C082608D8390910C078B81892B7F
:1055F00080930C0790910D078C81892B80930D0768
:105600000E942D21E885F985309721F06C857D85F4
:10561000CE01099510920F0710920E078D8180FD23
:1056200003C0CE010E94D22ADF91CF910895EF925C
:10563000FF920F93CF93DF93C42FD22FFC0185816C
:105640008823B1F040930B070E94E52990930A0745
:105650008093090780E28C0F883008F064C0C7701F
:1056600081E001C0880FCA95EAF70E9400255BC05F
:1056700080910B0748134BC08091090790910A074E
:105680000E94CA298F3A910508F041C0CD17C9F090
:1056900080E28C0F883040F4C77081E001C0880F31
:1056A000CA95EAF70E94F92480E28D0F883048F409
:1056B00081E09D2F977001C0880F9A95EAF70E94AC
:1056C0000025093319F0E12CF12C03C080E5E82E08
:1056D000F12C802F0E944025E114F10451F08FE954
:1056E0009FE00197F1F700C0000091E0E91AF1088E
:1056F000F3CF802F0E940A2580E28D0F883098F426
:10570000D77081E001C0880FDA95EAF70AC080E21D
:105710008C0F883040F4C77081E001C0880FCA95B3
:10572000EAF70E94F924DF91CF910F91FF90EF905B
:105730000895CF93E82F20916E0430916F0428567E
:10574000324040916502642F70E0C9010E945F32CF
:10575000481B842FEE2351F066E00E94CA33C82F05
:10576000C150A8F080E20E94F814FACFA901480FB6
:10577000511D4115524018F080E020E030E0280F24
:10578000311D28593D4F30936F0420936E04CF9103
:105790000895EF92FF920F931F93CF93DF93EC0145
:1057A0007B0164E670E088E70E94B52F8C01EC0E67
:1057B000FD1ECE15DF0541F40E949F3081E00115EA
:1057C000110569F080E00BC017FDF6CFFE01849152
:1057D00064E670E00E9428308C012196EACFCDB7B4
:1057E000DEB7E6E00C949B328091080790910707A2
:1057F000882389F0992369F062E070E08DE79BE0EF
:105800000E94C92B811103C080910707089510924F
:1058100007079091070781E089270895809108077D
:105820008823F9F00E94D929DC01CB01805A9541E7
:10583000AF4FBF4F8093030790930407A0930507D2
:10584000B09306078091070781110BC062E070E0FA
:105850008BE79BE00E94C92B882319F081E080939D
:1058600007078091070708959091FB0690FF04C0F9
:105870009695981748F003C0811106C090E09617DE
:1058800018F40E94A42F089561E00E94522F0895F9
:10589000882311F0FA0101C0FB0109950895E5E4A0
:1058A000F5E0118282818460828308956091FB0615
:1058B000669570E04BE050E08BE491E00E94443448
:1058C000892B19F481E0809346050E94AC1E9093C9
:1058D000400580933F05809147058460809347058C
:1058E000089530915A018091FB0680FF16C0E09127
:1058F000590163E0E69FF0011124E55BFA4F539AEA
:105900008BB1877F9BB198602FB7F894AF0163E0AC
:10591000369F400D511D112414C080915B01909160
:105920005C01891720F7E82FF0E0AF01440F551F05
:10593000E40FF51FE55BFA4F1182108212828F5F30
:10594000F0CFE417F50789F0319168E09BB90000CA
:1059500000C037FF8BB9330F000000C000C000C08B
:105960008BB900C06A9591F7ECCF2FBF8FE594E01B
:105970000197F1F700C0000008959091FB0690FF99
:1059800016C090915B0120915C01921770F4E92F91
:10599000F0E0DF01AA0FBB1FEA0FFB1FE55BFA4F28
:1059A0008183608342839F5FF0CF0E94712C0895B2
:1059B0008091FB06282F269530E02115310519F43A
:1059C0008170826005C02B32310524F081708465BE
:1059D0008093FB068091FE06893718F088E7809354
:1059E000FE060895A0E0B0E0E8EFFCE20C94793206
:1059F00049015A016B017C010E94D82C8401A40149
:105A00006A2D7B2D88E090E00E94453394014A2D59
:105A10005B2DB601C70100E20E942834622F84E2A8
:105A200090E00E943333CDB7DEB7ECE00C949532B2
:105A30008091FF06882319F081508093FF06209102
:105A4000FB063091FC064091FD065091FE066091E8
:105A5000FF067091000780910107909102070E9454
:105A6000F22C08958091FF06833018F48F5F8093A5
:105A7000FF062091FB063091FC064091FD065091F7
:105A8000FE066091FF0670910007809101079091DA
:105A900002070E94F22C0895EBEFF6E023E020834A
:105AA00011828FEF828388E783831482A5E4B5E0B7
:105AB00012968C911297836012968C93758130E0C8
:105AC0004FEF58E760E0868197810E94F22C08959D
:105AD000A0E0B0E0EEE6FDE20C947B32E82EF62E7C
