:100000000C943E060C945B060C945B060C947030CA
:100010000C945B060C945B060C945B060C945B06DC
:100020000C945B060C945B060C94F7170C94391730
:100030000C944B280C945B060C945B060C945B06AA
:100040000C945B060C945B060C945B060C945B06AC
:100050000C945B060C94FE270C945B060C945B06D8
:100060000C945B060C945B060C945B060C945B068C
:100070000C945B060C945B060C945B060C945B067C
:100080000C945B060C945B060C945B060C945B066C
:100090000C945B060C945B060C945B060C945B065C
:1000A0000C945B060C945B060C945B069F08A508F9
:1000B00090089608AB08B108B70811098509190915
:1000C000E308E7081D09EA0820092B09F5087B0960
:1000D000F9082F09FD0833095D0901093709670986
:1000E00007093D094709EE082409F10827090C0909
:1000F0004209530973097509DF0815098E096E0A4B
:100100006E0A9D0A9D0A190B370B5B0C5B0C3C0BAE
:10011000CA0BDB0BDB0B840CAC0CB10CB60CBB0CB0
:10012000C00CC50CCA0CCF0CD40CD90CE00CE30CE1
:10013000E60CE90CEC0CEF0CF20CF50CF80CFD0CD9
:10014000B510C210B810C210BB10C210C210C2103D
:10015000BE10C210BE10C210BE10C210BE10581584
:100160007F1517177F151717C715EA151717D91613
:10017000EC16202020206162636465666768696A06
:100180006B6C6D6E6F707172737475767778797A47
:1001900031323334353637383930524542545F2D99
:1001A0003D5B5D5C233B27602C2E2F20202000DA56
:1001B0000281FFD9F1DB20A4A62EAF00A0C0D3009E
:1001C00000A1C8D30000AED580A81F408D14200028
:1001D0001E0F0500047F3F1F643214643214783C04
:1001E0001E1E140A0541646A7573740053796D62AA
:1001F0006F6C73004E617669676174650051776555
:10020000727479004C617965723A20008081828332
:100210008485868788898A8B8C8D8E8F9091929326
:1002200094A0A1A2A3A4A5A6A7A8A9AAABACADAE71
:10023000AFB0B1B2B3B4C0C1C2C3C4C5C6C7C8C9E8
:10024000CACBCCCDCECFD0D1D2D3D40005010902B8
:10025000A10185020901A10005091901290815005C
:1002600025019508750181020501093009311581C3
:10027000257F95027508810609381581257F95012E
:1002800075088106050C0A38021581257F950175D0
:10029000088106C0C005010980A101850319012A52
:1002A000B700150126B700950175108100C0050C37
:1002B0000901A101850419012AA002150126A00245
:1002C000950175108100C005010906A1018506058B
:1002D0000719E029E7150025019508750181020538
:1002E00007190029EF1500250195F0750181020518
:1002F000081901290595057501910295017503916C
:1003000001C005010906A101050719E029E715004B
:100310002501950875018102950175088101050780
:10032000190029FF150026FF0095067508810005B4
:10033000081901290595057501910295017503912B
:1003400001C009023B00020100A0FA0904000001FB
:10035000030101000921110100012240000705816C
:100360000308000109040100010300000009211134
:1003700001000122B60007058203200001120100DE
:100380000200000008534601000100010200010CB8
:100390000343006F0072006E0065000000100366EA
:1003A000006F006F007300740061006E00000004B5
:1003B0000309040000000000003E5B4F5B3E003E6E
:1003C0006B4F6B3E001C3E7C3E1C00183C7E3C1874
:1003D000001C577D571C001C5E7F5E1C0000183CF3
:1003E000180000FFE7C3E7FF00001824180000FF13
:1003F000E7DBE7FF0030483A060E00262979292678
:1004000000407F05050700407F05253F005A3CE777
:100410003C5A007F3E1C1C0800081C1C3E7F001438
:10042000227F2214005F5F005F5F0006097F017F6B
:1004300000006689956A0060606060600094A2FFB9
:10044000A2940008047E04080010207E20100008FA
:10045000082A1C0800081C2A0808001E101010108A
:10046000000C1E0C1E0C0030383E383000060E3ECC
:100470000E060000000000000000005F0000000009
:100480000700070000147F147F1400242A7F2A121B
:100490000023130864620036495620500000080704
:1004A000030000001C224100000041221C00002A21
:1004B0001C7F1C2A0008083E0808000080703000DD
:1004C000000808080808000000606000002010080C
:1004D0000402003E5149453E0000427F4000007248
:1004E00049494946002141494D33001814127F10F3
:1004F000002745454539003C4A4949310041211111
:10050000090700364949493600464949291E000075
:1005100000140000000040340000000008142241D4
:10052000001414141414000041221408000201598C
:100530000906003E415D594E007C1211127C007F7D
:1005400049494936003E41414122007F4141413EF7
:10055000007F49494941007F09090901003E4141A5
:100560005173007F0808087F0000417F4100002090
:1005700040413F01007F08142241007F404040403D
:10058000007F021C027F007F0408107F003E414173
:10059000413E007F09090906003E4151215E007F6E
:1005A000091929460026494949320003017F010300
:1005B000003F4040403F001F2040201F003F403888
:1005C000403F0063140814630003047804030061CF
:1005D00059494D4300007F41414100020408102069
:1005E00000004141417F00040201020400404040FC
:1005F0004040000003070800002054547840007F6A
:100600002844443800384444442800384444287F6F
:100610000038545454180000087E0902001824249D
:100620001C78007F080404780000447D400000200E
:1006300040403D00007F102844000000417F400002
:10064000007C04780478007C080404780038444472
:100650004438007C1824241800182424187C007CBA
:10066000080404080048545454240004043F44245B
:10067000003C4040207C001C2040201C003C4030BE
:10068000403C004428102844004C9090907C00444A
:1006900064544C440000083641000000007700001C
:1006A000000041360800000201020402003C26233B
:1006B000263C0000000000000000000000000000D8
:1006C000000000C0E0F0F8F81800C0F0FCFEFFFFEA
:1006D000FFFFFFFFFF7E0000000000000000F8FCAD
:1006E000FC1C1C3C3800E0E0E0000000E0E0E00022
:1006F000E0E0E00000E0E0E0000080C0E0E0E0E0FA
:10070000E0E0E0E0C0800000E0E0C0C0E0E0E0E069
:10071000E0C0800000000080C0E0E0E0E0E0F8F829
:10072000F8000080C0E0E0E0E0E0C08000000000F1
:1007300000E0F0F0F0E0ECEEF7F37020007C7C7C61
:100740007E007E7E7E7F7F7F000080C0E07E5B4FEC
:100750005BFEC00000C000DCD7DEDEDED7DC00C000
:100760000000000000000000000000000000000089
:10077000000000000000000000000000F8FCFEFF88
:10078000E000FFFFFFFFFFFF80FFFFFFFFFFFFFF16
:10079000FFFF1F0701000000000000000000FFFF36
:1007A000FF0606000000FFFFFF000000FFFFFF0044
:1007B000FFFFFF3C36F7F7E300FFFFFF9D1C1C1C0B
:1007C0001C1C1C9DDFDFDF00FFFFFF01000000009D
:1007D00001FFFFFF0000FFFFFF8100000081FFFF1E
:1007E000FF00FFFFFF8100000081FFFFFF0000000E
:1007F000000F1F3F7F7F7F7F7F3F1E0C001F1F1F4B
:100800003F003F3F3F7F7F7F00307B7F783020205D
:1008100030787F3B0003000F7F0F0F0F7F0F000327
:1008200000000000000000000000000000000000C8
:10083000000000000000000000000000030F1F3F48
:100840003F3F3F1F1F3F3F7F7F7F3F3F1F3F7F7FD8
:100850007F7F7C7878381C0F0000000000000707BD
:100860000700000000000707070707000707070049
:10087000070707000007070700000103070707072E
:100880000707070703010000070707000000000033
:100890000007070700000001030707070707030118
:1008A000000000010307070707070301000000001D
:1008B0000000000000000000000000000000000038
:1008C0000000000000000000000000000000000028
:1008D0000000000000000000000000000000000018
:1008E0000000000000000000000000000000000008
:1008F0000000002B0014001A00080015001700E18A
:100900000004001600070009000A0000571D001B24
:1009100000060019000500000000000000E200E3EE
:10092000002C412A00130012000C0018001C003497
:100930000033000F000E000D000B002900380037B7
:1009400000360010001100000000000000E6002248
:100950005228002B001E001F00200021002200E171
:100960000014001A00080009000000E0000400164E
:1009700000070019000000000000000000E200E392
:100980000000002A000000000052000000000000EB
:100990000000004F005100500000004C0000004ECD
:1009A000004B004D004A00000000000000E600235C
:1009B0005200001E001F002000210022002300E141
:1009C0000021021F02260227022402E0002F00302D
:1009D000002F02300231020000000000000000E39E
:1009E0000023522E002D0027002600250024003170
:1009F00000000025022E022E0020023500230200F6
:100A0000002D022D002202000000000000E6000080
:100A1000000000007C00000000000000000000203A
:100A2000782378257827780000000021782478261C
:100A3000782878000000000000000000000000009E
:100A4000000000A90000003D003C003B003A00AA65
:100A5000000000410040003F003E00A800000045AB
:100A600000440043004200000000000000000000BD
:100A70000000002223252628292A2C2D2F3032334E
:100A80003536383A3B3D3E4042434547494A4C4E55
:100A90005051535557595A5C5E6062646668696B81
:100AA0006D6F71737577797B7D7F81838587898A87
:100AB0008C8E90929496989A9C9E9FA1A3A5A7A88D
:100AC000AAACAEAFB1B3B4B6B8B9BBBCBEBFC1C2BD
:100AD000C3C5C6C7C9CACBCCCDCED0D1D2D2D3D450
:100AE000D5D6D7D7D8D9D9DADADBDBDBDCDCDCDC6E
:100AF000DCDDDDDDDDDCDCDCDCDCDBDBDBDADAD93C
:100B0000D9D8D7D7D6D5D4D3D2D2D1D0CECDCCCBBD
:100B1000CAC9C7C6C5C3C2C1BFBEBCBBB9B8B6B4DB
:100B2000B3B1AFAEACAAA8A7A5A3A19F9E9C9A986B
:100B3000969492908E8C8A89878583817F7D7B793C
:100B4000777573716F6D6B6968666462605E5C5A1D
:100B50005957555351504E4C4A4947454342403EE0
:100B60003D3B3A3836353332302F2D2C2A29282672
:100B700025232200AF00AE000101010101010101A6
:100B80000102020202020202020203030303030340
:100B9000030304040404040404050505050506060E
:100BA00006060607070707070808080809090909CC
:100BB0000A0A0A0B0B0B0C0C0C0D0D0D0E0E0E0F72
:100BC0000F0F101011111112121313141415151602
:100BD000161717181819191A1A1B1B1C1D1D1E1E73
:100BE0001F202021222223242425262627282929C4
:100BF0002A2B2C2D2D2E2F303132323334353637EF
:100C000038393A3B3C3D3E3F4041424344454647EC
:100C100048494A4C4D4E4F50515354555658595AC5
:100C20005B5D5E5F616264656668696B6C6D6F7069
:100C300072737577787A7B7D7E8082838587888AD8
:100C40008C8E8F91939596989A9C9EA0A2A3A5A70F
:100C5000A9ABADAFB1B3B5B7BABCBEC0C2C4C6C90B
:100C6000CBCDCFD1D4D6D8DBDDDFE2E4E7E9EBEEC4
:100C7000F0F3F5F8FAFDFFFFAA7F554011241FBEDF
:100C8000CFEFDAE0DEBFCDBF11E0A0E0B1E0E8EBEE
:100C9000FCE602C005900D92A43EB107D9F727E00B
:100CA000A4EEB1E001C01D92A434B207E1F70E94A6
:100CB000190D0C945A360C9400009C013A9521159C
:100CC0003F4130F5BC0166277270AC014427547077
:100CD0009C012227387094FF0FC090FF02C080E172
:100CE00001C080E0672B09F08062452B09F0806429
:100CF000232B79F080680895892F8170672B09F084
:100D00008260452B09F08460232B19F088600895D8
:100D100080E008950E9413232FEF84E39CE021508C
:100D200080409040E1F700C000009AE088E10FB6F3
:100D3000F894A895809360000FBE90936000FFCF59
:100D4000A6E0B0E0E6EAF6E00C94B43126E0FC015F
:100D5000DE01119601900D922A95E1F7FC012581A3
:100D600089819A81222359F0662349F00E94462006
:100D7000182F682F89819A810E94852203C00E94C2
:100D80005222182F69817A81812F0E94CC1B2696CE
:100D9000E3E00C94D031ABE1B0E0E1EDF6E00C948F
:100DA000B4314E8B5F8B688F798F8A8F9B8F9111B7
:100DB00010922607CE010F9627E0DC011D922A959E
:100DC000E9F726E0FE017696DC0101900D922A9566
:100DD000E1F72B89222319F061E00E94A00687E049
:100DE000FE013F96DE01189601900D928A95E1F77B
:100DF000CE0108960E94AA2081112CC087E0FE0136
:100E00003896DE01119601900D928A95E1F76C8576
:100E1000662301F12091FB0430E0C901019687703F
:100E200099274091340550E08417950761F16D834F
:100E300097E0929FD001939FB00D1124A450BB4F17
:100E4000FE01319601900D929A95E1F78093FB0493
:100E50000E94DC1F17E0809134059091FB048917F4
:100E6000F9F0189FC001112484509B4F0E94AA20C2
:100E70008823B1F08091340590E00196877099271E
:100E800080933405E8CF0E9413231092FB04109244
:100E90003405E4EFF4E087E0DF011D928A95E9F77D
:100EA0006B96E3E00C94D031CF93DF93EC010E947A
:100EB0006423CE01805E9109089710F0209731F4E9
:100EC000CE010E945D060E94532305C0CE010E9400
:100ED0005D060E944223DF91CF910895CF93DF9367
:100EE000EC01805E9109089710F0209731F4CE0153
:100EF0000E945D060E945A2305C0CE010E945D0635
:100F00000E9449238C2F0E949A23DF91CF9108954C
:100F10008F929F92AF92BF92EF92FF920F931F9387
:100F2000CF93DF93DC0114962C91222309F476C52C
:100F30007C0161E00E94A006EC01F7018581882315
:100F400009F180912807909129070097D9F0C817D7
:100F5000D907C1F0FEE08F9FC0011124FC01EA5EB9
:100F6000FE4F2081246020838F5E9E4FDC01CD9355
:100F7000DC930E9446291092260761E0C7010E9477
:100F8000A006EC01F7018581882309F467C080E29F
:100F900080931F01D0932802C0932702AE015052C4
:100FA00021814115F0E25F0730F4D70116968C914C
:100FB000807F79F428C0CE0190548115904120F4AF
:100FC000F7018681807F29F4CE019A9581159F4192
:100FD00018F4FE01FF2707C0CE01805A9245809782
:100FE00008F4B2C1FE01ED33F10508F0ADC1EE58D1
:100FF000FE4FE491E0931F0120932A02D7018C91C8
:1010000080932902A1C1CE0199278C33910528F440
:10101000FC01EE58FE4F308101C030E21F923F9339
:101020009F938F93F70180811F928F931F922F932D
:101030008BE591E09F938F931F9288E18F938DE0D2
:1010400092E09F938F930E9499332DB73EB7225F12
:101050003F4F0FB6F8943EBF0FBE2DBFCE01975540
:101060008F3F910511F008F050C05E01BB243EE0B7
:10107000C39FF00111248F010F5E1E4FD7011596FB
:101080009C911597EA5EFE4F808190FB80F98083EA
:1010900015969C919923A1F10E943F2890930902F3
:1010A00080930802F80182818F5F828390912607E6
:1010B00080912707892B838380915605848306803E
:1010C000F781E02D309739F0D8011C966D917C9115
:1010D0001D97C80109958EE08A9DF0018B9DF00D4A
:1010E0001124EA5EFE4F808181FF03C090E080E022
:1010F00002C09C2F8D2F909328078093290705C04D
:1011000081FF03C0C8010E942C294E01FE01E85155
:10111000FC47E730F10588F5EA5AFF4F0C942A3373
:1011200006E221EE41EE6AE17CE705C007E225EE2A
:1011300045EE6BE17CE7C7010E94712920C106E200
:1011400021EE40EE68E17CE7F6CF07E225EE44EEC3
:1011500069E17CE7F0CF06E221EE42EE6CE17CE74C
:10116000EACF07E225EE46EE6DE17CE7E4CF08E248
:1011700021E045EE6EE17CE7DECFF7018581882333
:1011800009F44CC110922507CE019057839708F0BF
:10119000E1C084E090E00E944F3290933607809344
:1011A0003507FE01E150F047E232F10520F4E35A41
:1011B000FF4F0C942A33809135078160ACC0809139
:1011C00036078860B4C0809135078260A4C08091E2
:1011D000350720C08091350788609DC08091360713
:1011E0001EC0809136078260A2C080913507806161
:1011F00092C08091350780628EC0809135078064EF
:101200008AC00E94132380913507806884C0809132
:101210003507886084607FC0809136078260816076
:1012200086C0809135078E7F76C080913607877F94
:101230007EC0809135078D7F6EC08091350720C0BC
:1012400080913507877F67C0809136071EC08091E7
:1012500036078D7F6CC0809135078F7E5CC0809192
:1012600035078F7D58C0809135078F7B54C00E9411
:101270001323809135078F774EC080913507877F84
:101280008B7F49C0809136078D7F8E7F50C08091C3
:10129000350782FB222720F991E0922790FB82F903
:1012A00090FB83F938C080913607982F9095917004
:1012B0008E7F892B90FB81F93AC08091350786FBA0
:1012C000222720F991E0922790FB86F924C00E9402
:1012D00013238091350787FB222720F991E092277D
:1012E00090FB87F918C061E001C060E08EE090E0FB
:1012F0000E9465321EC08091350784FB222720F9A9
:1013000091E0922790FB84F906C080913507982FD1
:10131000909590FB80F9809335070BC0809136073C
:1013200083FB222720F991E0922790FB83F9809399
:101330003607609135077091360784E090E00E948F
:1013400083320E9413231BC04115504308F45BCE27
:10135000CE015BCEC631FCE7DF0721F58091270780
:101360008A7A91E009F490E09093E6018111C6C277
:1013700069E28CEB94E00E949C280E94871F809178
:101380003505877009F44AC3D70115968C918823D7
:1013900009F444C38091360782FF40C382E00E9473
:1013A000D0223CC3C330FCE7DF0721F140F4C11574
:1013B0003CE7D30789F0C130DC4711F13DC0CB35A4
:1013C0009CE7D90739F1CC35ACE7DA07D9F0CA3553
:1013D000DC4791F581E01FC00E941323EFEFF4E397
:1013E0002CE0E150F0402040E1F700C000000E94F6
:1013F000ED27C5CF6FEF7FEF80E090E00E94833252
:101400000E948A068091360782FB882780F991E046
:10141000892701C080E00E94E7220EC0C631DC4768
:1014200009F4F0C2809127078272F401E052F84774
:10143000E531F10508F464C2F7018581C081D181ED
:10144000882349F0CE010E944620182F682FCE0134
:101450000E94852204C0CE010E945222182FBE0194
:10146000812F0E94CC1B0E94E91BD82FC92F982ED8
:10147000F7011581068102950F70809135058770FF
:10148000E9F01123D9F0892F807F803451F080E278
:101490008D0F883098F0011104C0892F807E803232
:1014A00069F08091360782FF09C082E00E94D02255
:1014B000809135058770BB24B3948111B12CAC2E7B
:1014C000A2948FE0A8228A2D90E08C30910508F03C
:1014D000F2C1FC01E158FF4F0C942A338C2F807F1E
:1014E000CF70882311F0C295C07F1123B9F0CC23AF
:1014F00009F4CFC180E28D0F883010F0911006C042
:1015000090912707C92BC093270705C09091260704
:10151000C92BC09326070E94871FBBC18D2F0E9435
:101520006423CC2309F4C7C1D05E8C2FD83068F176
:10153000992059F10E94791F2AC08C2F807FCF708B
:10154000803211F0C295C07F992029F0F1E09F16FA
:1015500009F44CC055C08091360782FD1BC0112391
:1015600069F0CC2339F090912707C92BC093270746
:101570000E94871F80E00E949A239DC180E00E9404
:101580006423CC2309F497C18C2F0E94801F0E94F2
:10159000871F91C1112381F00023B1F1013009F0BF
:1015A0008AC1909156058C2F8923C81709F483C1ED
:1015B000C92BC09356057FC101117DC18C2F0E949C
:1015C0005323809156059C2F982329F09C2F9095AA
:1015D0008923809356058091E7019C2F982309F475
:1015E0006AC1C0958C238093E70165C1112321F066
:1015F000063008F060C108C0053008F05CC115C0B5
:10160000112331F0011145C18C2F0E945A2353C17F
:10161000002359F0D93309F04BC12FEF37EE83E0A7
:10162000215030408040E1F741C18C2F0E9453236C
:1016300042C18C2F86958695837019F0813061F0B8
:101640003AC1112321F08D2F9C2F937002C080E0AE
:1016500090E00E94F62835C1112321F08D2F9C2F98
:10166000937002C080E090E00E94D1282AC1612FCF
:101670008D2F0E94092E25C18C2F837009F041C047
:1016800011111DC12D2F229526952770220F220F93
:101690008D2F8F7090E0022E02C0880F991F0A9440
:1016A000E2F7D4FF0BC04FE050E002C0440F551FDB
:1016B0002A95E2F79A012095309502C020E030E0AB
:1016C000C695C695C370C23099F068F4409157052D
:1016D00050915805C13029F0822B932B84239523F8
:1016E00004C0842B952B822B932B0E940E23E7C0E2
:1016F000822B932B209157053091580582279327F1
:10170000F4CF112319F08C2F817001C086958823A6
:1017100009F4D5C02D2F229526952770220F220F70
:101720008D2F8F7090E0022E02C0880F991F0A94AF
:10173000E2F7D4FF0BC04FE050E002C0440F551F4A
:101740002A95E2F79A012095309502C020E030E01A
:10175000C695C695C370C23079F0B8F440912502A1
:1017600050912602C13029F0822B932B842395239C
:101770000EC0842B952B09C0822B932B2091250220
:10178000309126028227932702C0822B932B0E943E
:10179000B92295C0CF70112339F08C2F0E94FE2200
:1017A0008D2F0E945A238BC08D2F0E9453238C2F84
:1017B0000E94BE2284C08D2F92EF991689F199154F
:1017C00038F0A0EF9A1659F0B1EF9B1621F15DC0E9
:1017D000E3EF9E1661F1F4EF9F16C9F056C0112396
:1017E00091F0053008F067C0CF7181E090E002C051
:1017F000880F991FCA95E2F72091250230912602A1
:101800008227932721C0063008F055C0EDCF809184
:10181000360782FD1CC0112329F08C2F8F7129C03F
:101820001123D9F38C2F8F710E94BE2244C0112343
:1018300049F0CF7181E090E002C0880F991FCA95EE
:10184000E2F702C080E090E00E94B92234C0112388
:1018500099F0CF718C2F0E94FE228091360782FF73
:1018600007C028E0C29FC001112483608093350522
:101870008C2F0E94FE221FC081E00E94D0220230E5
:10188000D0F082E00E94D02216C0112321F0002364
:1018900021F28D2F70CE002329F2893349F43FEFD6
:1018A00087EE93E0315080409040E1F700C00000A7
:1018B0008D2F0E94642388EF8A0D843010F40E94DB
:1018C0001B29BB20B1F08091350580FD12C0D701E6
:1018D00015961C928695869586950E94FE22C701D4
:1018E0000E948807809135058695869586950E9489
:1018F000BE2260E0C7010E94A00690C065E339CD1A
:10190000E557FF4F0C942A338091150780FF1EC0C6
:10191000282F2E7F20931507309116074091170727
:10192000509118076091190770911A0780911B0751
:1019300090911C070E944C2B0E94A92A809161055E
:101940008160809361050E94CB2A19CD81608093CC
:10195000150761E086954EC044EF5DE26EEF7DE2D3
:101960002CC04EEF5DE264EF7DE227C044E15DE212
:101970006EE17DE222C04EE15DE264E17DE21DC0E8
:101980004AEF5CE267E07DE218C047E05DE26AEFA3
:101990007CE213C040EE5CE26DEE7CE20EC04DEEE8
:1019A0005CE260EE7CE209C042E75BE26CE87BE26D
:1019B00004C04CE85BE262E77BE20E94A22ADFCC33
:1019C00061E081E017C065E082E019C068E086E070
:1019D00016C06EE089E013C064E18FE010C067E1DB
:1019E00085E10DC061E088E105C062E289E107C0E0
:1019F00061E083E20E94AC2DC2CC6AE285E20E94E3
:101A00008E2ABDCC8091E601811106C069E28CEB83
:101A100094E00E947428B1CC65E3F9CFDF91CF91B7
:101A20001F910F91FF90EF90BF90AF909F908F907C
:101A30000895AEE0B0E0EFE1FDE00C94A53185B78C
:101A4000806885BF85B7806885BF84B7877F84BF7E
:101A50000FB6F894A895809160008861809360002B
:101A6000109260000FBE90E080E80FB6F89480936B
:101A70006100909361000FBE81E099E19093E501D0
:101A80008093E4010E947D170E949C178091E200E0
:101A900084608093E2007894809175028823A1F09D
:101AA0001091E9001F709091EC00892F817090FDDA
:101AB00080E8182B1092E9008091E80083FD0E94D5
:101AC00077141F701093E90082E084BD93E095BD08
:101AD0009AEF97BD80936E001092E8011092E90191
:101AE0001092EA011092EB010E94231B80930801DF
:101AF00080910801882321F0109256018BE103C0E8
:101B00008BE180935601809357010E94231B811122
:101B10000E942B308091080180910801811102C040
:101B200094E001C090E09093F50184E0891B8093DC
:101B3000F4010CE611E0B0E7EB2EB1E0FB2ED8018A
:101B40008D918D018F3F11F00E94461BE016F1062A
:101B5000B1F700E711E0F80181918F018F3F11F09B
:101B60000E94461BF1E006371F07A9F788E0E7EF60
:101B7000F1E0DF01282F1D922A95E9F7ECEEF1E064
:101B8000DF011D928A95E9F780E090E00E944F32D4
:101B9000863E9E4F11F00E940B1F82E090E00E9453
:101BA00041328093FF0184E090E00E944F32909395
:101BB0003607809335070E94351DEFEFF6E721E0E9
:101BC000E150F0402040E1F700C000000E94351DC8
:101BD0000E94231B811102C0E4E001C0E0E0F0E0BC
:101BE000E950FE4F808181FF08C06FEF7FEF80E0FA
:101BF00090E00E9483320E94ED2783E090E00E94F3
:101C0000413290E00E940E230E94231B882311F092
:101C100010E001C012E00E94231B811101C012E0FC
:101C200010934B0280E880937F020E94E12E6BE0CC
:101C300070E085EC91E00E94232A882309F443C0D8
:101C400080914B0265E070E081FD3AC080EC91E04C
:101C50000E94232A8823B9F16DE070E08EEA91E0BA
:101C60000E94232A882379F10E943328DC01CB01CA
:101C7000805A9541AF4FBF4F80931D0790931E0729
:101C8000A0931F07B0932007E2E8F2E080E092E023
:101C9000DF019C011D9221503040E1F7F09389044F
:101CA000E09388048FEF9FEF9093810280938002EE
:101CB00081E0809322078093210710924C0203C099
:101CC0008BEB91E0C5CF8091F60181117BC080E064
:101CD00090E00E944F32863E9E4F21F00E940B1FE3
:101CE0000E94A62B88E090E00E9449324B015C01E3
:101CF00084E290E00E944132282F30E040E050E042
:101D000060E070E080E090E000E20E943F3328292C
:101D100039294A295B2920931507309316074093E8
:101D20001707509318076093190770931A07809349
:101D30001B0790931C078091610583608093610568
:101D40002E7F89F50E94A62B88E090E00E94493200
:101D50006B017C0184E290E00E944132282F30E048
:101D600040E050E060E070E080E090E00E943F33AF
:101D7000B22FA32FF42FE52F5B0197018601BC2919
:101D8000A12BF22BE32BB0931507A0931607F0932A
:101D90001707E093180760931907B0921A0780930A
:101DA0001B0790931C070E94322B0E94A92A809146
:101DB000150780FF04C060E086950E94AC2D81E08D
:101DC0008093F6010E94231B811102C00E942E30D5
:101DD00089E091E090932D0780932C07222423948F
:101DE000312C80917502853009F046C000E112E186
:101DF00080917502853009F03BC080917502843076
:101E000031F10E944E2A1092300788E190E0A0E460
:101E10000FB6F894A895809360000FBEA093600061
:101E200083B7817F846083BF83B7816083BF7894E9
:101E3000889583B78E7F83BF0FB6F894A89580915D
:101E40006000886180936000109260000FBE8091F6
:101E50007402882309F4CCCF0E94351DE7EFF1E02E
:101E600081918111A2C3B1E0EF3FFB07C9F7C0CF59
:101E70000E9413230E941B290E94351DE0E0EE2ED4
:101E8000E2E0FE2EF7EFCF2EF1E0DF2ED601F701D4
:101E900091918D91892728E032E02E173F0719F0A4
:101EA0008823B1F306C0811104C00E94111DD12CFA
:101EB00039C00E94231B882E10E077247394D6012A
:101EC0009D906D01F701A080A92411F100E0BB24D1
:101ED000B3948B2D8A21B1F08820A1F00F8318874D
:101EE0000E943F289A8789877B8691E08B2D8921E4
:101EF00009F490E09C874F81588569857A858B85A8
:101F00000E94CB060F5FBB0C063019F7D7019C92DD
:101F10001F5FBFEFEB1AFB0A183089F60E945D1BAA
:101F2000DD24D3940E94231B8823F9F08091280795
:101F300090912907892BC9F080910802909109029C
:101F40000E942428803B910580F080912807EEE0D4
:101F50008E9FC0011124FC01EA5EFE4F208122FD0C
:101F600004C08F5E9E4F0E944629809160058823A1
:101F700009F4CFC080915F05E0911507E695E81B55
:101F8000E0935B05823059F4F0E0EF51FE4FE491AD
:101F90000E2F10E077E7E72E77E2F72E6BC0863042
:101FA00059F4F0E0E252FE4FE4910E2F10E067E6A4
:101FB000E62E67E2F62E5EC0893061F4E695F0E029
:101FC000E552FE4FE4910E2F10E054E1E52E56E26B
:101FD000F52E50C08F3061F4E695F0E0E852FE4FE8
:101FE000E4910E2F10E048E8E42E45E2F42E42C0C2
:101FF000853159F4F0E0EB52FE4FE4910E2F10E0E2
:1020000032E0E32E35E2F32E35C08831F9F0833229
:1020100049F4E3EDF1E0059114912DE2E22E27E27F
:10202000F22E28C08432C9F08532F1F48E2F63E09D
:102030000E94FC32E92FF0E0E053FE4FE4910E2FB6
:1020400010E09EE4E92E96E2F92E14C008E210E0BA
:102050008DE7E82E84E2F82E0DC004EF11E0BEE318
:10206000EB2EB4E2FB2E06C000ED17E0A5E1EA2E50
:10207000A4E2FA2E80915C05882361F010925C0541
:102080000E94061D90935A058093590510925E0593
:1020900010925D050E94061DE0915905F0915A05C8
:1020A0009C012E1B3F0B2F3F3F4798F520910C02C0
:1020B0002223B1F010920C0220910A0230910B02FF
:1020C000821B930B8F3F9F4758F4205D3A48309313
:1020D0000B0220930A02809161058860809361055C
:1020E000A0905D05B0905E050E0F1F1F10935A055E
:1020F0000093590589E595E0F701099580915D0503
:1021000090915E05892B29F4AB2819F081E080932A
:102110000C0280912207882309F448C180914D0266
:1021200090914E020E942428C297A8F10E943F2855
:1021300090934E0280934D0282E892E0909389043E
:10214000809388040E94231B882309F184E092E095
:102150000E943414E0912502F0912602EF30F1053F
:1021600088F4E056FF4F0C942A338DEF91E008C0BD
:1021700084EF91E005C08CEE91E002C085EE91E025
:102180000E9442148DE092E00E94481404C08CE04A
:1021900092E00E9434148091800290918102892BF8
:1021A00031F480912107882309F400C1E8C08091AF
:1021B00022078823B1F380914C028111F2CF0E9453
:1021C000682A20918002309181022115310549F35E
:1021D00080E0082F10E07101082E02C0EE0CFF1CF9
:1021E0000A94E2F7A70142235323452B11F48F5F92
:1021F000F0CF90914B029801F5E0220F331FFA9532
:10220000E1F790FF13C0E5E036952795EA95E1F7F1
:10221000220F220F220F2093220110922501295F05
:102220002093230183E08093260111C0220F232FE6
:10223000221F330B31958295880F8076809322017F
:1022400020932501815E809323012093260124E6BB
:1022500030E047E050E060E271E088E70E94892FBB
:10226000892B09F09ECF80914B0280FF68C080E2ED
:10227000EBE2F2E0DF011D928A95E9F7A80135E073
:10228000440F551F3A95E1F7EAE7F1E0FE87ED8745
:1022900006E711E06EE7462E61E0562EAD85BE855D
:1022A0008D91BE87AD87F80191918F01BA01690FB9
:1022B000711D6E577D4F90E0855D9D4FFC0127E0BD
:1022C000922E9F01281B390B722C01C0770C2A9586
:1022D000EAF75B01812CD501CD905D01C720292D46
:1022E00028192770622E022E000C330BBC2D01C062
:1022F000BB0F6A94EAF76B2E31952195310927704F
:10230000332701C0C6942A95EAF76C28C0806C2850
:102310006082839428E08212DECF9A9431963FEF58
:102320009312CFCF8D859E854816590609F0B6CFFA
:1023300004E610E020E230E04BE252E00CC0A801DD
:1023400085E0440F551F8A95E1F74E575D4F04E62F
:1023500010E020E230E060E488E70E94AA2F892B99
:1023600009F01FCFE094F094809180029091810257
:10237000E822F922F0928102E092800212CF0E94BC
:10238000332800911D0710911E0720911F073091DF
:102390002007DC01CB01801B910BA20BB30B8F3FFD
:1023A0009F4FAF4FBF4710F40E944E2AD1100E949A
:1023B000682A86E0EEE3F7E0DE01119601900D92C7
:1023C0008A95E1F710924007109241071092420758
:1023D000109243078B81811104C08C81882309F4FA
:1023E00053C080913C0790913D070E9424289C0196
:1023F00090913707992309F4EEC02531310508F48F
:1024000043C09F3F19F09F5F909337071B811123B3
:1024100061F00E94622D111614F09FEF01C091E04F
:10242000899F802D1124809340071C81112361F026
:102430000E94622D111614F09FEF01C091E0899F58
:10244000802D112480934107309140073323E1F020
:10245000209141072223C1F045EB3403C001112430
:10246000992319F09093400703C081E080934007BF
:1024700035EB2303C0011124992319F090934107F0
:1024800003C081E0809341078D81811104C08E815A
:10249000882309F453C080913A0790913B070E942A
:1024A00024289C0190913807992309F499C021357B
:1024B000310508F443C09F3F19F09F5F90933807A0
:1024C0001D81112361F00E94402D111614F09FEF21
:1024D00001C091E0899F802D1124809342071E81C5
:1024E000112361F00E94402D111614F09FEF01C0DE
:1024F00091E0899F802D11248093430730914207FA
:102500003323E1F0209143072223C1F045EB34034C
:10251000C0011124992319F09093420703C081E070
:102520008093420735EB2303C0011124992319F04E
:102530009093430703C081E08093430746E050E057
:10254000BE016F5F7F4F8EE397E00E948333892B3C
:10255000A9F48091400781110FC08091410781113A
:102560000BC080914207811107C081E09091430721
:10257000911103C080E001C081E080FD0E94822DA6
:1025800086E0FE013196AEE3B7E001900D928A95A8
:10259000E1F70E941B2990914F02891709F421CC81
:1025A00080934F020E9433281CCC09BD19BD09B489
:1025B00000FEFDCF8091D8008F7D8093D800809160
:1025C000E00082608093E0008091E00081FDFCCF1C
:1025D0000E9413230DCC2B30310508F014CF54CFBB
:1025E0002B30310508F069CFA9CF8091770287FFA2
:1025F00011C08091E80082FD05C0809175028111B3
:10260000F8CF11C08091E8008B770BC080917502E4
:10261000882349F08091E80080FFF8CF8091E8009E
:102620008E778093E8000895982F973068F59093FF
:10263000E900981739F07091EC002091ED0050916D
:10264000F00003C0242F762F50E021FD02C09F5FD1
:10265000ECCF3091EB003E7F3093EB003091ED00FA
:102660003D7F3093ED003091EB0031603093EB0013
:102670007093EC002093ED005093F0002091EE0059
:1026800027FDE5CF80E008958F708093E90081E019
:10269000089520917D0230917E022617370748F079
:1026A0006115710539F42091E8002E772093E80038
:1026B00001C0B901FC0120E06115710579F180913B
:1026C00075028823F1F18530F1F18091E80083FDF6
:1026D0003CC08091E80082FD2EC08091E80080FF20
:1026E000EBCF2091F3008091F20090E0922B6115E6
:1026F000710551F08830910538F421912093F10053
:10270000615071090196F3CF21E0089709F020E0AC
:102710008091E8008E778093E800CECF2111CFCF53
:102720000AC080917502882361F0853061F0809144
:10273000E80083FD0AC08091E80082FFF2CF80E0CC
:10274000089582E0089583E0089581E0089543E0CC
:1027500050E0BC0182E00E948B27089546E050E0E3
:10276000BC0182E00E948B270895CF93DF93682FEE
:102770008A3011F481E003C08D3021F480E00E94A2
:10278000F3296FC0809188049091890426E0FC01B0
:10279000A2E8B4E001900D922A95E1F7603E30F096
:1027A00026E0FC0111922A95E9F70AC0F6E06F9F36
:1027B000B00111246D547C4F46E050E00E94383245
:1027C000C0918804D091890446E050E0BE0182E8BF
:1027D00094E00E948333892B49F19E0122583240B4
:1027E000A90185E0569547958A95E1F781E090E04B
:1027F000BC0102C0660F771F4A95E2F74091800244
:1028000050918102462B572B2B5F3F4F65E0369549
:1028100027956A95E1F702C0880F991F2A95E2F77C
:10282000842B952B90938102809380029E012C57DC
:10283000324040917F02642F70E0C9010E949131C3
:10284000481B463010F4240F311D211582E0380753
:1028500010F020E030E02E573D4F30938904209354
:102860008804DF91CF910895CF93DF93EC01FE01AF
:102870008491882321F00E94B5132196F8CFDF912F
:10288000CF9108950E94341481E00E94F3290895A5
:102890000F931F93CF93DF93EC01FC010190002075
:1028A000E9F78F0101501109C017D10720F4899170
:1028B0000E94B513F9CFDF91CF911F910F91089529
:1028C000FC01AC014C5F5F4F8FEF91E321918227B8
:1028D00028E030E087FF03C0880F892701C0880FF8
:1028E00021503109B9F7E417F50781F70895AAE2F5
:1028F000B0E0EDE7F4E10C94B431E7E7F2E08FE704
:1029000092E02091F10021938E179F07D1F78091DB
:102910007802833009F461C030F4813071F0823084
:1029200009F49BC0B2C08A3009F487C08B3009F427
:102930006CC0893009F0A9C020C080917702813A2B
:1029400009F0A3C08091E800877F8093E800809120
:102950007B0290917C02892B21F460E283E592E076
:1029600003C060E080E090E070E00E944913809135
:10297000E8008B778093E80088C0809177028132ED
:1029800009F083C080917B0290917C02029708F04D
:102990007CC08091E800877F8093E8008091E80008
:1029A00082FD05C0809175028111F8CF6EC0209123
:1029B000F3008091F20090E0922B029731F4809125
:1029C000F100813011F0863021F48091F100809384
:1029D00052028091E8008B7754C080917702813A4F
:1029E00009F053C080917B0290917C02892B09F001
:1029F0004CC08091E800877F8093E8008091E800D8
:102A000080FFFCCF8091270137C08091770281320F
:102A1000E1F580917B0290917C02892BB1F5809148
:102A2000E800877F8093E8000E94F5128091790288
:102A3000809327010E94132328C08091770281325E
:102A400021F58091E800877F8093E8000E94F512CD
:102A500080917A028093510218C080917702813A66
:102A6000A1F48091E800877F8093E8008091E800DE
:102A700080FFFCCF809151028093F1008091E800AB
:102A80008E778093E8000E94F5128091E80083FF22
:102A9000CEC18091770290917802492F50E04A3060
:102AA000510508F0C4C1FA01E155FF4F0C942A33D7
:102AB000803821F0823809F0BAC108C080917302D1
:102AC00090917402992389F082600FC080917B02FB
:102AD0008F70873008F0ABC18093E9008091EB00E4
:102AE00085FB882780F91092E9009091E800977F94
:102AF0009093E8008093F1001092F10065C1282FB7
:102B00002D7F09F094C1882319F0823061F08FC1C4
:102B100080917902813009F08AC1933009F080E018
:102B2000809374022EC08091790281112AC0809115
:102B30007B028F702FEF280F263008F078C180932A
:102B4000E9002091EB0020FF1CC0933021F480911C
:102B5000EB00806214C09091EB0090619093EB00C9
:102B600021E030E0A90102C0440F551F8A95E2F729
:102B70004093EA001092EA008091EB008860809315
:102B8000EB001092E9008091E800877F20C181115D
:102B90004EC1109179021F778091E3008078812BDC
:102BA0008093E3008091E800877F8093E8000E9493
:102BB000F5128091E80080FFFCCF8091E3008068EF
:102BC0008093E300111102C082E001C083E0809392
:102BD00075022DC18058823008F029C18091790298
:102BE00090917A028C3D53E0950779F583E08A83D2
:102BF0008AE289834FB7F894DE01139620E03EE025
:102C000051E2E32FF0E050935700E49120FF03C01E
:102C1000E295EF703F5FEF708E2F90E0EA3010F09A
:102C2000C79601C0C0968D939D932F5F243149F7BD
:102C30004FBF8091E800877F8093E8006AE270E0F0
:102C4000CE0101960E944913AEC040917B02509183
:102C50007C02292F332723303105A9F068F4213075
:102C6000310509F4F3C02230310509F0E0C08BE3EF
:102C700090E0E2E4F3E044C02132310521F1223258
:102C8000310571F1D4C0992781309105A1F058F038
:102C9000029709F0CCC0EFE8F3E0E4918E2F90E0CA
:102CA000EFE8F3E02AC0EFEAF3E0E4918E2F90E042
:102CB000EFEAF3E022C0EDE9F3E0E4918E2F90E03B
:102CC000EDE9F3E01AC04115510509F4C4C04130E3
:102CD000510509F0ACC089E090E0EDE6F3E010C0EA
:102CE0004115510509F4BCC04130510509F09FC0A0
:102CF00086EB90E0ECE4F2E003C0009709F497C0A3
:102D00002091E800277F2093E80020917D023091F8
:102D10007E028217930708F49C0140E021153105DB
:102D200089F180917502882309F43DC08530D9F17D
:102D30008091E80083FD37C08091E80082FD2FC0BC
:102D40008091E80080FFEACF4091F3008091F2008B
:102D500090E0942B2115310559F08830910540F40D
:102D600044914093F1003196215031090196F2CF00
:102D700041E0089709F040E08091E8008E77809369
:102D8000E800CCCF4111CDCF0AC0809175028823D5
:102D900051F0853041F08091E80083FD04C08091BE
:102DA000E80082FFF2CF8091E8008B778093E80003
:102DB0003EC08038E1F58091E800877F8093E8008D
:102DC000809176028093F1008091E8008E77809365
:102DD000E8000E94F5122BC0811129C08091790270
:102DE00090917A029927029714F58091E800877FE5
:102DF0008093E80010917902109376020E94F512F8
:102E0000111106C08091E30087FD02C081E001C07E
:102E100084E08093750242E061EC81E00E9414132B
:102E200042E261EC82E00E9414138091750280916D
:102E3000E80083FF1AC08091E800877F8093E80054
:102E40008091EB0080628093EB000FC082E190E004
:102E5000EDE7F3E055CF89E090E0E4E5F3E050CF13
:102E600080E490E0E2E0F3E04BCFAA96E3E00C943C
:102E7000D0311F920F920FB60F9211242F933F93D0
:102E80004F935F936F937F938F939F93AF93BF9372
:102E9000CF93DF93EF93FF93C091E900CF708091C0
:102EA000EC00D82FD17080FDD0E81092E90080911D
:102EB000F000877F8093F00078940E94771410923E
:102EC000E9008091F00088608093F000CD2BCF70F6
:102ED000C093E900FF91EF91DF91CF91BF91AF9146
:102EE0009F918F917F916F915F914F913F912F9122
:102EF0000F900FBE0F901F901895E8EDF0E08081C5
:102F00008E7F80831092E2001092DA001092E1002E
:102F1000A0EEB0E08C9181608C9380818F7780836C
:102F200019BCA7EDB0E08C918E7F8C9380818F7E51
:102F30008083109250020895A0E0B0E0E2EAF7E149
:102F40000C94AF31C8EDD0E088818F7E8883E7EDA7
:102F5000F0E080818160808384E082BF81E08093A3
:102F6000500288818E7F888302EE10E0F801108283
:102F70001092DA0081EEC82ED12CF60110828881E1
:102F80008F77888388818068888388818F7D888314
:102F900019BC10927502109276021092740210926F
:102FA000730290EEE92EF12CF70180818B7F8083F4
:102FB00088818160888342E060E080E00E94141391
:102FC000F60180818E7F8083F8018081816080831B
:102FD000808188608083F70180818E7F80838881F3
:102FE00080618883CDB7DEB7E8E00C94CB311F92C7
:102FF0000F920FB60F9211242F933F934F935F932D
:103000006F937F938F939F93AF93BF93EF93FF93B0
:103010008091E10082FF09C08091E20082FF05C03B
:103020008091E1008B7F8093E1008091DA0080FF46
:103030002AC08091D80080FF26C08091DA008E7F60
:103040008093DA008091D90080FF18C080E189BDAB
:1030500082E189BD09B400FEFDCF81E08093750255
:103060008091500281110FC00E947D170E949C1711
:103070008091E20084608093E20005C019BC109248
:103080007502109250028091E10080FF17C080917C
:10309000E20080FF13C08091E2008E7F8093E20007
:1030A0008091E20080618093E2008091D80080628C
:1030B0008093D80019BC85E0809375028091E1006F
:1030C00084FF30C08091E20084FF2CC080E189BD84
:1030D00082E189BD09B400FEFDCF8091D8008F7DCB
:1030E0008093D8008091E1008F7E8093E1008091F1
:1030F000E2008F7E8093E2008091E2008160809305
:10310000E20080917602882311F084E007C080916C
:10311000E30087FD02C081E001C083E08093750277
:10312000809175028091E10083FF27C08091E200C9
:1031300083FF23C08091E100877F8093E10082E0DC
:1031400080937502109276028091E1008E7F8093C9
:10315000E1008091E2008E7F8093E2008091E200A6
:1031600080618093E20042E060E080E00E941413FE
:103170008091F00088608093F000FF91EF91BF9103
:10318000AF919F918F917F916F915F914F913F91FF
:103190002F910F900FBE0F901F9018952091E40073
:1031A0003091E50095E64091EC00842F817040FF5E
:1031B00023C08091E80080FD1DC0809175028823A6
:1031C00099F0853099F08091EB0085FD11C0409118
:1031D000E4005091E5002417350729F3915011F0D0
:1031E0009A01E1CF84E0089582E0089583E0089594
:1031F00081E0089580E008954091E80042FFDDCF2E
:10320000089580E008959091350792FF0DC0282F12
:103210002871283019F4877F846006C0282F247114
:10322000243011F48B7F886093FF0DC0282F287104
:10323000283119F4877E846106C0282F2471243137
:1032400011F48B7E88612091360720FF0DC0382F46
:103250003871383019F4877F816006C0382F31719A
:10326000313011F48E7F886021FF0DC0282F287126
:10327000283119F4877E816106C0282F2171213100
:1032800011F48E7E886194FD877E089582389105C1
:1032900069F1B0F48133910509F475C048F48932BD
:1032A000910509F467C08A32910509F471C0089547
:1032B0008533910509F459C089339105B9F0089512
:1032C000833E910589F138F4803E9105D1F0823E2C
:1032D000910529F10895863E9105C9F1873E910532
:1032E000D9F1843E910509F06CC027C020913507C3
:1032F00020FD57C021FD55C02091360723FD5BC03E
:1033000008958091350780FD48C08091360780FF81
:1033100048C08091350784FD46C083EE51C080913E
:10332000350782FF3CC0F5CF8091350782FD37C05D
:103330008091360780FD35C0ECCF8091360781FF44
:1033400036C08091350784FD2EC087EE39C080914C
:10335000350783FF2AC0F5CF8091350783FD25C04F
:103360008091360781FD23C0ECCF8091350785FD24
:1033700022C01FC08091350785FD1BC08091360794
:1033800083FF19C00AC08091350786FD16C017C09B
:103390008091350786FD13C010C089E311C082EE0D
:1033A0000FC080EE0DC080E00BC086EE09C084EE39
:1033B00007C085E305C089E203C08AE201C081E35A
:1033C00090E00895A0E0B0E0E8EEF9E10C94AD31B2
:1033D0007C015B016A018091BB048A3018F001E036
:1033E00010E002C00AE010E0C1E0D0E0B501C70182
:1033F000F6010995811115C021960C171D0794F04F
:10340000CC9F9001CD9F300D300D112480E090E0D5
:1034100045E34A95F1F70000019682179307C1F73B
:10342000E5CF81E0CDB7DEB7EAE00C94C931ABE07F
:10343000B0E0EDE1FAE10C94B53188E0E5E1F7E0C8
:10344000DE01119601900D928A95E1F780915F055A
:1034500090916005A091610589879A87AB872B853C
:103460004091B7045091B8046091B9047091BA04C6
:103470003FB7F8948091310790913207A0913307BC
:10348000B09134073FBF841B950BA60BB70B843656
:103490009105A105B10510F4222319F18091410194
:1034A000909142018D559B4F4091400150E04C302E
:1034B000510510F04BE050E0BE016F5F7F4F0E945E
:1034C000903383E090E00E941631882369F00E94D7
:1034D00033286093B7047093B8048093B904909331
:1034E000BA041092610581E02B96E2E00C94D13190
:1034F000EF92FF921F93CF93DF9300D000D01F92E3
:10350000CDB7DEB77B0180E090E00E9416318823C2
:1035100009F463C040912B0150E04115510511F0B1
:1035200041E050E060912C0170912D016D557B4F71
:10353000CE0105960E94903340919B0450919C04CB
:1035400060919D0470919E042FB7F894809131078B
:1035500090913207A0913307B09134072FBF841B9D
:10356000950BA60BB70B84369105A105B10538F470
:1035700084EA94E00E9460149D81891781F181E0C2
:1035800090E00E941631182F882391F0409133016A
:1035900050E04530510510F044E050E060913401B6
:1035A000709135016D557B4FCE0101960E9490338D
:1035B00084EA94E00E94601491E02D81281390E049
:1035C000192341F10E94332860939B0470939C045B
:1035D00080939D0490939E040FC010E001C011E001
:1035E0008091A4049091A504A091A604B091A70491
:1035F00089839A83AB83BC83112361F089819A818B
:10360000AB81BC818093970490939804A093990414
:10361000B0939A048091970490919804A091990492
:10362000B0919A04F70180839183A283B383812FA1
:103630000F900F900F900F900F90DF91CF911F91EF
:10364000FF90EF90089580919604811118C08091A9
:10365000D80080618093D8008AE18A95F1F700C094
:103660008091D90080FD02C082E001C081E080939A
:103670009604823021F40E947D171092750281E039
:1036800090919604913009F080E00895F894E82F25
:10369000E295EF70F0E031A1282F2F7081E090E0EB
:1036A00001C0880F2A95EAF7982F9095932391A34C
:1036B00092A1892B82A3789408950F931F930E945F
:1036C000231B882319F00E9433280EC00E94332840
:1036D0000091E8011091E9012091EA013091EB019C
:1036E000600F711F821F931F1F910F910895A4E017
:1036F000B0E0EDE7FBE10C94B53140919F045091AF
:10370000A0046091A1047091A2042FB7F894809155
:10371000310790913207A0913307B09134072FBF42
:10372000841B950BA60BB70B84369105A105B1053B
:1037300070F10E945D1BDC01CB010296A11DB11D41
:1037400089839A83AB83BC838091390190913A013C
:103750008D559B4F4091380150E04530510510F098
:1037600044E050E0BE016F5F7F4F0E94903382E0E3
:1037700090E00E941631882359F00E94332860930C
:103780009F047093A0048093A1049093A20481E00D
:103790002496E2E00C94D1317830B0F46630A0F495
:1037A0008430A0F490E3899FF001112486E0789F93
:1037B000E00DF11D1124E60FF11DEE0FFF1FED507E
:1037C000F74F85919491089580E001C081E090E0E9
:1037D00008951F93CF93DF930E944619EC01C11502
:1037E00080E5D807E8F5C11590E4D90708F0A8C02E
:1037F000C03ED10530F5CD3CD10508F094C0C83AA3
:10380000D10578F4C53AD10508F083C0C130D1059F
:1038100009F47CC008F4F2C0C430D10508F0F1C04E
:10382000EDC0C33CD10508F0E9C0C85AD0E0CC0FC8
:10383000DD1FCF57DE4F0990D881C02DCE01946493
:10384000E1C0C11580E2D80708F0CBC0C11591E0F6
:10385000D90708F06BC0C83ED10508F4D2C0CEC06D
:10386000C03682E5D80728F5C03492E5D90708F0BC
:1038700079C0C03282E5D80708F06CC0C11592E566
:10388000D90708F481C04C2F4695469580E2489FA1
:10389000A0011124C37021E030E0C90102C0880FEB
:1038A000991FCA95E2F7EA01C82BD92BCE019D6872
:1038B000A9C0C03A82E5D807B8F48C2F8F71C03800
:1038C00092E5D90708F07BC08695869590E2899F9E
:1038D00090011124C37081E090E002C0880F991F0D
:1038E000CA95E2F79A6868C0C03C82E5D80708F438
:1038F0006DC0C03E92E5D90708F080C0CF71DD27CA
:10390000DC2FCC27CE01806F906A7CC081E090E0F4
:1039100079C0C55AD0E0C258DE4F8881C82FD0E0A8
:10392000CE0190646FC0CE0190656CC08D2F0E9457
:103930000319182FCE0199270E9446191F715CC0E8
:10394000CE0199270E944619CC27DF70D06A8C2BB4
:103950009D2B58C0CF71D0E0DC2FCC27CE01816FDA
:10396000906A50C08C2F8F718695869590E2899FC2
:1039700090011124C37081E090E002C0880F991F6C
:10398000CA95E2F79C6818C08C2F8F710E940319AA
:1039900095E0D695C7959A95E1F7CF70D0E0DC2FEA
:1039A000CC27282F30E084FF05C084E0220F331F8E
:1039B0008A95E1F7D069CE01822B932B23C090E04A
:1039C000D82FCC27CE01846F906A1CC08C2F8F71AA
:1039D0000E9403198F7190E0D82FCC27CE019062FE
:1039E00011C08D2F8F710E940319182FCE019927B6
:1039F0000E9446191F719062912B04C080E090E0F4
:103A000001C0CE01DF91CF911F9108950E94231B29
:103A1000882319F00E943F2808950E945D1BCB0166
:103A20000895A6E0B0E0E7E1FDE10C94B3310E9417
:103A30003F288C0180918A0490918B040817190704
:103A400081F019821A820E943F28682F49815A8189
:103A5000792F80E090E00E94CB0610938B040093B6
:103A60008A042696E4E00C94CF31ACE0B0E0EBE3BE
:103A7000FDE10C94A831AE014F5F5F4F7A0188E001
:103A8000DA011D928A95E9F70CE611E06A0180E7F8
:103A9000682E81E0782EAA24A394B12C26E7822EEA
:103AA00021E0922EF80180818F3F09F440C0F89404
:103AB000E82FE295EF70F0E021A18F70A50102C020
:103AC000440F551F8A95E2F7CA01922F982B91A3B4
:103AD00092A18095892382A3789400C0E0E7F1E069
:103AE000512C31E021912F3F89F0A22FA295AF7088
:103AF000B0E090968C9190E02F7002C095958795DC
:103B00002A95E2F780FD02C0832F01C080E0582A89
:103B1000330F8E169F0631F7D8018C918F3F11F02D
:103B20000E94461BB0EABA95F1F7F60150820F5F8A
:103B30001F4FFFEFCF1ADF0A6016710609F0B2CFF0
:103B400048E050E0B7018CEE91E00E94833300978B
:103B500041F028E0F701ACEEB1E001900D922A951A
:103B6000E1F70091F501892B49F081E080938E0403
:103B70000E943F2890938D0480938C0480918E0442
:103B8000811102C0F12C22C080918C0490918D048F
:103B90000E9424280597B0F310E009501E4F44E01E
:103BA00050E06CEE71E0C8010E948333892B59F01C
:103BB00084E0ECEEF1E0D80101900D928A95E1F7F6
:103BC000FF24F39401C0F12C10928E040E94231B59
:103BD000E091F501882309F477C019861A861B86BF
:103BE0001C860E2F10E009501E4F8091BB048A30B6
:103BF00058F448E75AE1BE01675F7F4FC8010E9451
:103C0000E219882399F10AC080918F049091900461
:103C10000E942428843F914060F739C047E75BE168
:103C2000BE01675F7F4FC8010E94E2198823F1F04F
:103C300047E15AE1BE01675F7F4FC8010E94E21968
:103C40008823A1F01092BB048091F40190E044E03D
:103C500050E0BE01675F7F4F89509E4F0E948333C3
:103C600021E020939504892B01F5AFC08091BB041E
:103C70008F3F19F08F5F8093BB048091BB048A3023
:103C800018F30E943F289093900480938F048091B2
:103C90009504882309F499C0FE01399684E0DF0178
:103CA0001D928A95E9F710929504E091F401F0E0F5
:103CB000E950FE4F89859A85AB85BC8580839183C9
:103CC000A283B38381E082C0F0E0E950FE4F84E03C
:103CD000A4EAB4E001900D928A95E1F784EA94E0B9
:103CE0000E9460148093A3048090A8049090A9047B
:103CF000A090AA04B090AB0480919104909192049A
:103D0000A0919304B091940488169906AA06BB0664
:103D1000D1F08092910490929204A0929304B09278
:103D200094040E94231B81110EC00E943328861A1E
:103D3000970AA80AB90A8092E8019092E901A09234
:103D4000EA01B092EB018091AC04282F2170869596
:103D5000E090AD04D090AE04C090AF040091B504E3
:103D60001091B6041092B604112379F110FF17C018
:103D700090911507222339F091609093150760E028
:103D80000E94AC2D0CC09E7F909315070E94A92A1B
:103D9000809161058160809361050E94CB2A11FFAB
:103DA00006C020E04C2D6D2D8E2D0E94512C12FF4F
:103DB00007C0002319F00E94B02A02C00E94A92A5D
:103DC00013FF03C081E080935C0580E08F292C966F
:103DD000EFE00C94C431209134059091FB0457E03E
:103DE0002917A9F030E0529FF001539FF00D1124E4
:103DF000E450FB4F7181761306C07081781303C0C5
:103E00007581741306C02F5F3F4F2770E9CF80E0A4
:103E1000089581E00895A8E0B0E0E1E1FFE10C94AD
:103E2000B53166EE7EEF80E090E00E94833260E084
:103E300082E090E00E94653260E083E090E00E94C2
:103E40006532109258051092570560E074E184E0E5
:103E500090E00E94833260E086E090E00E9465324C
:103E60006FEF87E090E00E94653240E050E0BA01D9
:103E700088E090E00E94773260E084E290E00E9467
:103E8000653260E087E190E00E94653260E08CE09E
:103E900090E00E94653260E08DE090E00E94653223
:103EA00019821A821B821C821D821E821F82188622
:103EB00048E050E068E170E0CE0101960E94553282
:103EC00040E050E0BA0180E290E00E94773240E0AA
:103ED00050E0BA018FE090E00E94773240E050E07D
:103EE000BA0183E190E00E9477322896E2E00C94D8
:103EF000D1318095909126078923809326070895D4
:103F000080959091270789238093270708959091A2
:103F1000270780912607982B9093BC048091560523
:103F20008823D9F0892B8093BC04809127018823B2
:103F300031F08091350787FF02C08EE101C086E035
:103F4000EEEBF4E090E0815028F021912223D9F3A8
:103F50009F5FF9CF91111092560540E250E066E361
:103F600075E08CEB94E00E948333892B21F180E291
:103F7000ECEBF4E0A6E3B5E001900D928A95E1F751
:103F8000E0912C07F0912D073097A9F0809127013F
:103F9000882359F08091350787FF07C08091BC04C2
:103FA0008093BD0486E08093BC040280F381E02D01
:103FB0008CEB94E009950895809134059091FB0471
:103FC000891719F08F5F8770FBCF0895A0E0B0E0EC
:103FD000ECEEFFE10C94B0318091FA0482958F7081
:103FE00009F04FC08091F904882309F44AC0C091B8
:103FF000340587E0D82E8091FB04C81709F441C02E
:10400000D0E0DC9E8001DD9E100D1124F801E4500B
:10401000FB4F8481882391F191818091F50498135D
:104020002DC090818091F404981328C0858181115E
:1040300025C0E280F3808091F6049091F704E81A9D
:10404000F90A60E084EF94E00E94A0068FEAE81687
:10405000F104A0F48091FA048F7080618093FA04D7
:10406000F801EE5FFA4F80818F708061808384EF6A
:1040700094E00E9488070E94DC1F03C02196C7704D
:10408000BACFCDB7DEB7E7E00C94CC31A0E0B0E01A
:10409000ECE4F0E20C94AE317C0100912502109129
:1040A00026028091570590915805082B192BCFE0D7
:1040B000D0E0CC24C394D12CC6010C2E02C0880FB2
:1040C000991F0A94E2F780239123892B21F42197E9
:1040D00098F7B12C09C0BC2EB7018C2F0E94CC1BC5
:1040E0000E94E91B019799F38B2DCDB7DEB7E9E06C
:1040F0000C94CA31CF93DF93EC010E944620BE019D
:104100000E94CC1B0E94E91BDF91CF910895FC0116
:1041100024812223D9F0808191810E947A20929576
:104120009F70963079F010F4925001C09A509230FE
:1041300068F4803F69F018F4883E40F409C0843F79
:1041400029F406C0883E20F0813F11F080E00895F8
:1041500081E00895A4E1B0E0E0EBF0E20C94A83136
:104160008C0186E0F801DE011F9601900D928A9580
:10417000E1F7F8017480E58084EFA82E84E0B82E82
:104180008091F804811122C0772009F451C0EE20FB
:1041900009F44BC0C8010E948720F82E882309F437
:1041A00044C087E0F801A4EFB4E001900D928A9535
:1041B000E1F78091F804813031F48091F40490911A
:1041C000F5040E947A200E94E61F67C1F801C280B0
:1041D000D380F090F9048091F6049091F704FF20C9
:1041E00009F4F7C0508061804601881A990A60E09E
:1041F00084EF94E00E94A006FFEA8F16910408F075
:10420000A2C07720A9F08091FA04382F307F209146
:10421000F504F8019181332371F0291709F463C083
:10422000C8010E948720811167C0C8010E948807C9
:10423000FF24F39432C1291314C02091F404908117
:1042400029130FC0E1100DC08F7080618093FA04B4
:1042500084EF94E00E9488078091FA04F801868335
:104260001BC1E1103AC040E0662D852D0E94EB1E77
:1042700040E0662D852D0E94EB1EE82E81110CC1B9
:104280005F86688A8F8598890E947A20292F2295D7
:104290002F70243020F49F70223028F009C02A505B
:1042A000223080F014C0992349F0811107C013C057
:1042B000992321F0F8019681907F69F0805E883023
:1042C00030F409C0803F38F0815F833020F0C801AE
:1042D0000E948807EF2CFE2CE0C08091FA048160D8
:1042E0008093FA04D9C02091F404F8019081291335
:1042F00097CFE11095CFAFC0EE2009F496CF209173
:10430000FA04822F82958F7090E002978CF0809152
:10431000F4049091F50499878887DB86CA8680919A
:10432000F8048C871D862E87CE0108960E94880788
:1043300087E0F801A4EFB4E001900D928A95E1F7CF
:104340000E94E61F75CF8091FA04982F907F51F458
:1043500084EF94E00E94880787E0F50111928A9526
:10436000E9F79AC0772009F463CF2091F504F801AA
:10437000918129130CC02091F4049081291307C066
:10438000E11005C08683C8010E9488077FC0C8016C
:104390000E948720882309F448CFEE2009F445CFF6
:1043A0002091FA04822F82958F7090E002970CF48E
:1043B000BFCF8091F4049091F5049A838983DC82C5
:1043C000CB828091F8048D831E822F83CE010196CB
:1043D000ADCF4601881A990A60E084EF94E00E940C
:1043E000A006FFEA8F16910408F050C0772009F468
:1043F0001FCFFE2CEE2009F418CF9091F504F801A0
:104400008181981335C09091F4048081981330C055
:104410008091F6049091F704C81AD90AFFEACF16E2
:10442000D104E8F48091FA0480FD19C082958F7060
:10443000482F50E04115510591F02091FA04F80100
:1044400026834F30510541F08F5F982F9295907FD2
:10445000822F8F70892B8683C8010E94880787E08E
:10446000F801A4EFB4E001900D928A95E1F715C030
:10447000C8010E94872081115BCF8091FA0481607E
:104480008093FA04C8010E94880707C087E0F501FD
:1044900011928A95E9F701C0F12C8F2D6496EFE017
:1044A0000C94C431983078F5863068F5E82FF0E048
:1044B00086E0989FE00DF11D11249E2F977083E0F8
:1044C000F695E7958A95E1F7EE0FFF1FEE0FFF1FB8
:1044D000E452FB4F40E050E080E0219130E0092EB3
:1044E00002C0369527950A94E2F721703327042EEF
:1044F00001C0220F0A94EAF7822B4F5F5F4F4430CE
:10450000510559F7089580E00895983088F5863070
:1045100078F5E82FF0E086E0989FE00DF11D11247A
:104520008E2F877051E001C0550F8A95EAF783E01E
:10453000F695E7958A95E1F7EE0FFF1FEE0FFF1F47
:10454000E452FB4F20E030E070E04081CB01022ECE
:1045500002C0969587950A94E2F781708195842729
:104560008523842781932F5F3F4F2430310569F7DE
:1045700008959093260280932502089521E030E06B
:1045800002C0220F331F8A95E2F720953095809163
:10459000250290912602822393230E94B922089536
:1045A000909135058095892380933505282F2770B4
:1045B00069F4981759F09091360792FF07C08695D5
:1045C000869586950E94BE22109235050895909199
:1045D000360792FB222720F9281779F080FB92F901
:1045E00090933607609135077091360784E090E02C
:1045F0000E94833282E00E94D022089521E030E0C0
:1046000002C0220F331F8A95E2F780912502909114
:104610002602822B932B0E94B9220895909358056D
:1046200080935705089510922707809127018823CA
:1046300031F08091350787FF02C08EE101C086E02E
:10464000EEEBF4E0DF011D928A95E9F780E090E05F
:104650000E94F62880E090E00E94D1281092260760
:104660000E94871FEEE3F7E086E0DF011D928A9546
:10467000E9F71092370710923807109239070E9415
:10468000822D0895882321F00E94791F0E94871FA0
:104690000895882339F090912607892B8093260767
:1046A0000E94871F0895882321F00E94801F0E9486
:1046B000871F0895882339F090912707892B8093CD
:1046C00027070E94871F0895882399F19CEF980F70
:1046D000913A30F4682F8CEB94E00E9474280DC05E
:1046E00090E2980F983060F4877091E001C0990FC4
:1046F0008A95EAF7892F0E94801F0E94871F0895DC
:104700009BE5980F933028F480E090E00E94F62813
:10471000089598E5980F9B3128F480E090E00E947E
:10472000D128089593E3980F933118F460E00E9424
:10473000092E0895CF93882309F472C0C82F8CEFF7
:104740008C0F813AC0F5809127018823E1F0809198
:10475000350787FF18C0EC2FE695E695E695F0E063
:10476000E454FB4F8281282F30E04C2F477081E0CA
:1047700090E002C0880F991F4A95E2F782239323A5
:10478000892B61F412C0EEEBF4E084EC94E021910B
:10479000C21721F08E179F07D1F707C06C2F8CEB43
:1047A00094E00E9474280E94871F6C2F8CEB94E089
:1047B0000E949C2810C080E28C0F883078F4C7706B
:1047C00081E090E001C0880FCA95EAF79091270731
:1047D000892B809327070E94871F22C0EBE5EC0FEF
:1047E000E33040F4F0E0E258FE4F808190E00E9418
:1047F000F62816C0E8E5EC0FEB3150F4F0E0EE0FD0
:10480000FF1FEF57FE4F808191810E94D12808C081
:1048100083E38C0F833120F461E08C2F0E94092EFA
:10482000CF9108958091520208950895FC018281EC
:10483000813021F4FB018081918105C0823029F40F
:10484000FB01828193810E9454070895FB018081BE
:1048500091810E946E070895CF93DF93FC0122811E
:10486000223049F4FB01EC01828193810E946E07A2
:104870008D8182608D83DF91CF9108950F931F9377
:10488000CF93DF93EC0100E010E080915A01282FD4
:1048900030E00217130724F5909158019801290F71
:1048A000311DA901440F551F240F351F2B593A4FB5
:1048B000869590E04C81081719071CF4442331F0C9
:1048C00002C0411103C04091180701C040E060914F
:1048D0001707809116070E94C22B0F5F1F4FD5CF7D
:1048E0000E94CB2A8C8190E00196817099278C835D
:1048F000DF91CF911F910F910895A0E0B0E0E3E820
:10490000F4E20C94AB318C01FC014481C42FD0E063
:104910009E01DE010E94ED329B01AC010E94B83283
:104920006B017C01E0E2F0E0EC1BFD0BA5E5B0E0E3
:104930009B01AC010E94B8324B015C019F01DF0179
:104940000E9430339B01AC010E94C3329B01AC0139
:104950002C0D3D1D4E1D5F1DC501B4010E94CB32C3
:10496000C22FD22F2A3228F4F3E02F9F9001112476
:104970000DC025E530E02C1B3109C901880F991FB6
:10498000280F391F37FF02C02F5F3F4F35952795FE
:10499000C22FC095F12C85E5E82EED1A80915A01C1
:1049A000F816C8F4F1FC02C08E2D01C08D2F909135
:1049B00058012F2D30E0290F311DA901440F551F3B
:1049C000240F351F2B593A4F4C2F609117070E9427
:1049D000C22BF394E3CF0E94CB2AF801848181118A
:1049E00002C091E003C0803219F49FEF909355010B
:1049F00090915501890FF8018483CDB7DEB7ECE0C3
:104A00000C94C7311F93CF93DF93EC018C818111FC
:104A100009C081E08C831092630592E09093540169
:104A2000809353018091580190915901891770F436
:104A3000E82FF0E09F01220F331FE20FF31FEB5925
:104A4000FA4F1182108212828F5FF0CF10E06091D6
:104A50005A011617C0F5E12FF0E070E0CF010E9477
:104A6000163320915801820F20916305022E000C0D
:104A7000330B90E0E217F307CCF020915401022EA3
:104A8000000C330B2E173F078CF09C01220F331FB5
:104A9000820F931F9C012B593A4F40911807609148
:104AA0001707809116070E94C22B0BC0FC01EE0F66
:104AB000FF1F8E0F9F1FFC01EB59FA4F11821082CE
:104AC00012821F5FC4CF0E94CB2A80915301209194
:104AD0006305280F2093630590915401980F9093DC
:104AE000540119165CF4022E000C330B40915A014C
:104AF00050E0415051092417350734F081958093D7
:104B00005301813009F41C82DF91CF911F910895E8
:104B1000A0E0B0E0EEE8F5E20C94AA31EC018A8165
:104B200080FF03C0BB24BA9402C0BB24B3948C8121
:104B300081110DC081E0B81206C080915A018150E8
:104B40008093620502C01092620581E08C83A12CE3
:104B500046E3842E90905A01A91408F041C0809138
:104B60005801CA2CD12C8601080F111DC801880FCD
:104B7000991F080F191F0B591A4FF8011182108243
:104B8000128234E0E32EF12C712C80916205870DA6
:104B900087332CF0682D0E940833892F02C087FDCF
:104BA000890D082E000C990BC816D90691F4809136
:104BB00018078E9DA0018F9D500D11245595479586
:104BC00055954795980160911707809116070E94A7
:104BD000C22B7B0CF1E0EF1AF108B9F6A394BACF1F
:104BE0000E94CB2A8091620591E0B9120EC081111A
:104BF00007C080915A018150809362051C820FC0CA
:104C0000815080936205BC820AC090E00196609159
:104C10005A0170E00E941633809362058C83CDB7F1
:104C2000DEB7EDE00C94C631FF920F931F93CF9344
:104C3000DF93EC01F12C0FEF10E060915A01F616B2
:104C4000F0F4809158012F2D30E0280F311DC9015B
:104C5000880F991F280F391F2B593A4F70E0C80150
:104C60000E941633962F8C81409118076091170788
:104C7000F99E800D11240E94C22BF394DECF0E9476
:104C8000CB2A9A818C8190FF02C08F5F01C0815036
:104C90008C83CDB7DEB7E5E00C94CE312F923F92F6
:104CA0005F926F927F928F929F92AF92BF92CF92BC
:104CB000DF92EF92FF920F931F93CF93DF93FC014C
:104CC0006280548081E08483E3E7FAE07490E2EF4D
:104CD000FAE0E491C0911807C695C158D0E0CC0F16
:104CE000DD1F2D2E3324812C75E0972EAA24AA9443
:104CF000B12CE719EE2EF12C80915A01881608F09C
:104D000098C0C82CD12C22E0261568F09C9CF0019C
:104D10009D9CF00D1124E95FF94F80911607808367
:104D200080911707818351100AC09C9CF0019D9CC3
:104D3000F00D1124E95FF94F1382128260C09C9C30
:104D400080019D9C100D1124E801C95FD94F8B8112
:104D50008823F9F081508B832FEF829FC0011124AB
:104D60006C8170E00E949131FB01FF27ED58F54FF7
:104D70008491E82FE7192FEFE29FC0011124B701BA
:104D80000E94913180911807689FB00111247A83A5
:104D900036C00E942832B5010E9416338215930551
:104DA00074F582E0861588F40E942832B5010E94CD
:104DB000163388830E942832209117072695622F88
:104DC00070E00E941633280F29839C9CF0019D9C63
:104DD000F00D1124E95FF94F128280911807843198
:104DE00020F0893C18F088EC01C084E19C9CF00123
:104DF0009D9CF00D1124E95FF94F8483838380919A
:104E000058019601280F311DC901880F991F280FDD
:104E1000391F2B593A4F9C9CF0019D9CF00D112499
:104E2000E95FF94F4281618180810E94C22B8394A6
:104E300063CF0E94CB2ADF91CF911F910F91FF90FA
:104E4000EF90DF90CF90BF90AF909F908F907F902A
:104E50006F905F903F902F900895A3E0B0E0E3E360
:104E6000F7E20C94B3318C018091640581110AC082
:104E70009E012F5F3F4F48E76FEF0E94C22B8A8150
:104E800080936405F8018481813051F028F08230EC
:104E900061F4409164050AC08091640540E007C058
:104EA0006091640540E080E003C040E080E060E0A5
:104EB0000E94172BF801848190E0019663E070E076
:104EC0000E94163384832396E4E00C94CF31CF9371
:104ED000DF93EC01E5E1F7E0438162818C810E9480
:104EE000282D8C818F5F8C83DF91CF910895CF9394
:104EF000DF93EC01EC81F0E0ED58F54F4491E5E1F2
:104F0000F7E0628181810E94282D8C818F5F8C83E4
:104F1000DF91CF9108950F931F93CF93DF938B0170
:104F2000EA0190917502943079F58F708093E900D1
:104F30008FEF9091E800815095FD06C095ED9A9510
:104F4000F1F700008111F5CF8091E80085FF1CC0CA
:104F50000E94CE18882361F08091E8008E778093BC
:104F6000E80012C0F80181918F018093F100219730
:104F7000209791F38091E80085FDF4CF8091E800BF
:104F80008E778093E800E4CFDF91CF911F910F914E
:104F90000895CF93DF93EC0180912701811105C023
:104FA00048E050E0BE0181E00BC08091350787FFEB
:104FB00003C040E282E002C048E081E050E0BE0170
:104FC0000E948B2780E2FE01A3E5B2E001900D92E2
:104FD0008A95E1F7DF91CF91089587E797E790935E
:104FE0000108809300089AE088E10FB6F894A8952C
:104FF000809360000FBE90936000FFCF78941F9263
:105000000F920FB60F9211248F939F93AF93BF937C
:105010008091310790913207A0913307B091340706
:105020000196A11DB11D8093310790933207A09383
:105030003307B0933407BF91AF919F918F910F9039
:105040000FBE0F901F9018959C014FB7F894809158
:10505000310790913207A0913307B09134074FBFC9
:10506000821B930B08952FB7F894609131077091CC
:10507000320780913307909134072FBF08952FB7DF
:10508000F8948091310790913207A0913307B09145
:1050900034072FBF08951F920F920FB60F9211245D
:1050A0008F939F93AF93BF9380913007811113C06B
:1050B0008091310790913207A0913307B091340766
:1050C0004196A11DB11D8093310790933207A093A3
:1050D0003307B0933407BF91AF919F918F910F9099
:1050E0000FBE0F901F901895209127012223C9F021
:1050F0002091350727FF15C0262F26952695269542
:105100002E31C8F4FC01E20FF11D677081E090E0E0
:1051100001C0880F6A95EAF780959281892382837E
:105120000895FC0106962281621301C01282319615
:10513000E817F907C1F70895209127012223C1F04C
:105140002091350727FF14C0262F269526952695F2
:105150002E3130F5FC01E20FF11D677081E090E027
:1051600001C0880F6A95EAF79281892B828308959E
:10517000FC0132962FEF30E04191641789F02F3F08
:1051800019F4411101C0232F3F5F3630A9F72F3F9B
:1051900039F0FC01E20FF11D27FDFA9562830895B5
:1051A0000895A3E0B0E0E7EDF8E20C94B53120916A
:1051B0002E0730912F0728173907A1F090932F075A
:1051C00080932E07E0912C07F0912D07309751F036
:1051D00024E029839B838A830680F781E02DCE011A
:1051E000019609952396E2E00C94D131A3E0B0E05A
:1051F000ECEFF8E20C94B53120912A0730912B079F
:1052000028173907A1F090932B0780932A07E09184
:105210002C07F0912D07309751F023E029839B83D1
:105220008A830680F781E02DCE01019609952396A9
:10523000E2E00C94D1310E94231B882359F0E091C5
:105240002C07F0912D07309729F00190F081E02D87
:105250000995089580E00895CF93DF93EC01EA85E6
:10526000FB85309719F06C857D8509958B810E94AF
:10527000791F8C810E94801F0E94871F86E0FE019B
:1052800011928A95E9F7DF91CF910895CF93DF933B
:10529000EC018D8181FD18C082608D83909126077D
:1052A0008B81892B80932607909127078C81892BEE
:1052B000809327070E94871FE885F985309721F0A2
:1052C0006C857D85CE0109951092290710922807DB
:1052D0008D8180FD03C0CE010E942C29DF91CF91EA
:1052E0000895EF92FF920F93CF93DF93C42FD22FA5
:1052F000FC0185818823B1F0409325070E943F2857
:10530000909324078093230780E28C0F883008F065
:1053100064C0C77081E001C0880FCA95EAF70E9497
:105320005A235BC08091250748134BC08091230707
:10533000909124070E9424288F3A910508F041C0DB
:10534000CD17C9F080E28C0F883040F4C77081E03F
:1053500001C0880FCA95EAF70E94532380E28D0F9F
:10536000883048F481E09D2F977001C0880F9A958E
:10537000EAF70E945A23093319F0E12CF12C03C0FB
:1053800080E5E82EF12C802F0E949A23E114F1048D
:1053900051F08FE99FE00197F1F700C0000091E024
:1053A000E91AF108F3CF802F0E94642380E28D0F69
:1053B000883098F4D77081E001C0880FDA95EAF759
:1053C0000AC080E28C0F883040F4C77081E001C0D1
:1053D000880FCA95EAF70E945323DF91CF910F916E
:1053E000FF90EF900895CF93E82F2091880430919B
:1053F00089042258324040917F02642F70E0C90135
:105400000E949131481B842FEE2351F066E00E94E8
:10541000FC32C82FC150A8F080E20E94B513FACF29
:10542000A901480F511D4115524018F080E020E0BD
:1054300030E0280F311D2E573D4F309389042093C3
:105440008804CF910895EF92FF920F931F93CF930B
:10545000DF93EC017B0164E670E088E70E94E72EB1
:105460008C01EC0EFD1ECE15DF0541F40E94D12FFC
:1054700081E00115110569F080E00BC017FDF6CF42
:10548000FE01849164E670E00E945A2F8C012196FF
:10549000EACFCDB7DEB7E6E00C94CD31809122079C
:1054A00090912107882389F0992369F062E070E0E8
:1054B00085E79BE00E94232A811103C08091210788
:1054C0000895109221079091210781E0892708957E
:1054D000809122078823F9F00E943328DC01CB0158
:1054E000805A9541AF4FBF4F80931D0790931E0781
:1054F000A0931F07B09320078091210781110BC053
:1055000062E070E083E79BE00E94232A882319F081
:1055100081E08093210780912107089590911507DC
:1055200090FF04C09695981748F003C0811106C0FB
:1055300090E0961718F40E94FE2D089561E00E94F5
:10554000AC2D0895882311F0FA0101C0FB010995E3
:105550000895EFE5F5E011828281846082830895E9
:1055600060911507669570E04BE050E088E491E0AB
:105570000E947633892B19F481E0809360050E94A4
:10558000061D90935A0580935905809161058460AA
:10559000809361050895309157018091150780FF30
:1055A00016C0E091560163E0E69FF0011124EB592B
:1055B000FA4F539A8BB1877F9BB198602FB7F894BD
:1055C000AF0163E0369F400D511D112414C080913E
:1055D000580190915901891720F7E82FF0E0AF01A9
:1055E000440F551FE40FF51FEB59FA4F118210823B
:1055F00012828F5FF0CFE417F50789F0319168E0F0
:105600009BB9000000C037FF8BB9330F000000C00A
:1056100000C000C08BB900C06A9591F7ECCF2FBFD6
:105620008FE594E00197F1F700C000000895909194
:10563000150790FF16C090915801209159019217BB
:1056400070F4E92FF0E0DF01AA0FBB1FEA0FFB1F88
:10565000EB59FA4F8183608342839F5FF0CF0E94B2
:10566000CB2A089580911507282F269530E0211523
:10567000310519F48170826005C02B32310524F0A8
:10568000817084658093150780911807893718F019
:1056900088E7809318070895A0E0B0E0E2E5FBE218
:1056A0000C94AB3149015A016B017C010E94322BF1
:1056B0008401A4016A2D7B2D88E090E00E9477325E
:1056C00094014A2D5B2DB601C70100E20E945A33B6
:1056D000622F84E290E00E946532CDB7DEB7ECE045
:1056E0000C94C73180911907882319F08150809359
:1056F000190720911507309116074091170750910F
:1057000018076091190770911A0780911B079091F3
:105710001C070E944C2B089580911907833018F4C0
:105720008F5F8093190720911507309116074091DC
:105730001707509118076091190770911A07809107
:105740001B0790911C070E944C2B0895E5E1F7E0A0
:1057500023E0208311828FEF828388E78383148282
:10576000AFE5B5E012968C911297836012968C93F8
:10577000758130E04FEF58E760E0868197810E94A5
:105780004C2B0895A0E0B0E0E8ECFBE20C94AD31C6
:10579000E82EF62EE901493708F048E7E42FF0E05B
:1057A000F11006C0E958F44FE4914E2F2E2F71C02E
:1057B0000F2D10E0E958F44F4491F42FC42ED12C52
:1057C00026E0E29EC00111242FEF30E0B9010E94D3
:1057D00091315BEA5603C001579F900D11248E0D45
:1057E000911D8E0D911D582F550F580FD901A01BDB
:1057F000B10BAC9DC001AD9D900DBC9D900D1124D1
:10580000E92FF59ED0011124AB2FBB277901EA1AAD
:10581000FB0AEC9CD001ED9CB00DFC9CB00D11245A
:105820005901A51AB108A09E7001A19EF00CB09E6E
:10583000F00C1124EF2CFF242E193F092C9D800120
:105840002D9D100D3C9D100D1124212F62307105EE
:1058500091F048F461157105E1F061307105B9F41A
:10586000242F4B2F16C06430710569F040F066306C
:10587000710579F00CC0242F492FE12F0AC0492F60
:10588000EF2F2B2F06C0292FE42F412F02C0292FE5
:10589000EB2F49832883EA83CDB7DEB7EAE00C9487
:1058A000C931A3E0B0E0E7E5FCE20C94AE31082F8B
:1058B000E62EF42ED22E9091150790FF7DC02091F8
:1058C0001607281308C080911707861304C080911B
:1058D0001807841729F08091610582608093610523
:1058E000E92FE695AE2FB0E0A754BE4F8C91809380
:1058F0005F059E7F923071F49E012F5F3F4F4F2DC9
:105900006E2D802F0E94C22B4B8169818A810E945B
:10591000172B3CC0823019F4F090180737C086303E
:10592000A1F1893091F1893189F5E9518E2F81708A
:10593000C82EE695F0E0E958F34F1491B12C609130
:105940005A01B616F8F4B19EC001112470E00E940D
:105950009131802FC11002C0860F01C0861B90912B
:1059600058012B2D30E0290F311DA901440F551F7F
:10597000240F351F2B593A4F4F2D6E2D0E94C22BED
:10598000B394DDCF0E94CB2A01C0022F00931607EB
:10599000E0921707F0921807DD2071F020911507AB
:1059A0006091190770911A07302FA70180911B078A
:1059B00090911C070E944C2B2396E9E00C94CA316D
:1059C000E5E1F7E0438121E1421B08F440E021E0FA
:1059D000628181810E94512C0895E5E1F7E04381C5
:1059E00021E1420F08F44FEF21E0628181810E94A2
:1059F000512C0895E5E1F7E0628121E1621B08F492
:105A000060E021E0438181810E94512C0895E5E10D
:105A1000F7E0628121E1620F08F46FEF21E043813A
:105A200081810E94512C0895E5E1F7E0818121E018
:105A3000438162818A500E94512C0895E5E1F7E08C
:105A4000818121E043816281865F0E94512C08950B
:105A5000A3E0B0E0EEE2FDE20C94B53190911507C1
:105A600090FF0AC09E012F5F3F4F0E94C22B4B81C7
:105A700069818A810E94172B2396E2E00C94D13130
:105A80008091390780FD16C081FD16C082FD18C0C7
:105A900080913807882391F0883290F428E0829F23
:105AA000C001112468E270E00E941633862F672B34
:105AB00029F007C082E0089584E0089581E0089508
:105AC00088E008958091390780FD14C081FD14C0DD
:105AD00082FD16C080913707882381F08E3180F4D3
