:100000000C9406060C944D060C944D060C94E72FA8
:100010000C944D060C944D060C944D060C944D0614
:100020000C944D060C944D060C94741B0C94291AD8
:100030000C94071D0C944D060C944D060C944D0623
:100040000C944D060C944D060C944D060C944D06E4
:100050000C944D060C94BA1C0C944D060C944D0651
:100060000C944D060C944D060C944D060C944D06C4
:100070000C944D060C944D060C944D060C944D06B4
:100080000C944D060C944D060C944D060C944D06A4
:100090000C944D060C944D060C944D060C944D0694
:1000A0000C944D060C944D060C944D06D80AD80AB3
:1000B000070B070B7C0B240D240D240D980B760CDD
:1000C000870C870C2D183D1830183D1833183D1833
:1000D0003D183D1836183D183D183D183D183D187F
:1000E0003D183D1839183D1839183D1839183D1874
:1000F0003918AC20AC20BF20BF20B520BF20BF20C6
:10010000BF20AC20AC20BA20BF20BF20BA20292AB3
:10011000502AE82B502AE82B982ABB2AE82BAA2B36
:10012000BD2B00DA0281FFD9F1DB20A4A62EAF009F
:10013000A0C000A1C800AED580A81FD300408D1478
:1001400020001E0F0500047F3F1F64321464321428
:10015000783C1E1E140A0541646A757374004E755E
:100160006D7061640053796D626F6C73004E6176DF
:10017000696761746500517765727479004C6179C3
:1001800065723A2000808182838485868788898A87
:100190008B8C8D8E8F9091929394A0A1A2A3A4A5F5
:1001A000A6A7A8A9AAABACADAEAFB0B1B2B3B4C06C
:1001B000C1C2C3C4C5C6C7C8C9CACBCCCDCECFD0B7
:1001C000D1D2D3D40000AF00AE2B0014001A000827
:1001D0000015001700005704001600070009000A68
:1001E00000E1001D001B00060019000500000000D2
:1001F000000000E2000351E3412A00130012000C4A
:100200000018001C00340033000F000E000D000B1E
:1002100000290038003700360010001100000000EF
:10022000000000E6002C0028422B001E001F0020CA
:100230000021002200E00014001A0008000900005C
:1002400000E1000400160007001900000000000093
:10025000000000E200010000002A0000000000523F
:100260000000000000000000004F0051005000009E
:10027000004C0000004E004B004D004A0000000002
:10028000000000E600045100001E001F00200021B5
:100290000022002300E000000000002602270200E8
:1002A00000E100000000002F00300000000000000E
:1002B0000000000000E34400002E002D002700266F
:1002C00000250024003100000000000000000000B4
:1002D00000350023020000000000000000000000C4
:1002E000000000E600000000000000000000000028
:1002F00000000000000000000000000000000000FE
:1003000000000000000000000000000000000000ED
:10031000000000000000002C0053002D00570026B4
:100320000025002400000038005600230022002190
:100330000000000000000020001F001E0000000060
:10034000000000370027002C00005C0000000000C7
:100350000000000000C35CC65CC85CCA5C00000012
:1003600000C45CC75CC95CCB5C00000000000000FE
:100370000000000000E3002C00A9000000000000C5
:100380000000000000AA00000000000000000000C3
:1003900000A80000000000000000000000000000B5
:1003A000000000000000002C00FFAA7F554022231F
:1003B000252628292A2C2D2F3032333536383A3B42
:1003C0003D3E4042434547494A4C4E505153555794
:1003D000595A5C5E6062646668696B6D6F717375B3
:1003E00077797B7D7F81838587898A8C8E909294B3
:1003F00096989A9C9E9FA1A3A5A7A8AAACAEAFB1C0
:10040000B3B4B6B8B9BBBCBEBFC1C2C3C5C6C7C909
:10041000CACBCCCDCED0D1D2D2D3D4D5D6D7D7D8C3
:10042000D9D9DADADBDBDBDCDCDCDCDCDDDDDDDD15
:10043000DCDCDCDCDCDBDBDBDADAD9D9D8D7D7D61D
:10044000D5D4D3D2D2D1D0CECDCCCBCAC9C7C6C5D4
:10045000C3C2C1BFBEBCBBB9B8B6B4B3B1AFAEAC1A
:10046000AAA8A7A5A3A19F9E9C9A98969492908EC5
:100470008C8A89878583817F7D7B79777573716F9E
:100480006D6B6968666462605E5C5A59575553517A
:10049000504E4C4A4947454342403E3D3B3A383630
:1004A000353332302F2D2C2A2928262523220501E9
:1004B0000980A101850319012AB700150126B7009B
:1004C000950175108100C0050C0901A10185041971
:1004D000012AA002150126A002950175108100C015
:1004E00005010906A1018506050719E029E71500A0
:1004F00025019508750181020507190029EF1500EE
:10050000250195F075018102050819012905950558
:1005100075019102950175039101C005010906A1BC
:1005200001050719E029E7150025019508750181E6
:10053000029501750881010507190029FF1500269C
:10054000FF00950675088100050819012905950524
:1005500075019102950175039101C009023B0002EA
:100560000100A0FA090400000103010100092111A2
:100570000100012240000705810308000A09040167
:10058000000103000000092111010001226D000794
:1005900005820320000A12010002000000085346F1
:1005A00001000100010200010C0343006F00720012
:1005B0006E0065000000100366006F006F0073009E
:1005C000740061006E0000000403090400000000D4
:1005D00000003E5B4F5B3E003E6B4F6B3E001C3E9F
:1005E0007C3E1C00183C7E3C18001C577D571C00AC
:1005F0001C5E7F5E1C0000183C180000FFE7C3E78C
:10060000FF00001824180000FFE7DBE7FF00304878
:100610003A060E00262979292600407F05050700A5
:10062000407F05253F005A3CE73C5A007F3E1C1C9A
:100630000800081C1C3E7F0014227F2214005F5F0C
:10064000005F5F0006097F017F00006689956A00F0
:1006500060606060600094A2FFA2940008047E04C1
:10066000080010207E20100008082A1C0800081C22
:100670002A0808001E10101010000C1E0C1E0C0082
:1006800030383E383000060E3E0E060000000000F6
:10069000000000005F000000000700070000147F5A
:1006A000147F1400242A7F2A120023130864620096
:1006B000364956205000000807030000001C224164
:1006C00000000041221C00002A1C7F1C2A00080890
:1006D0003E08080000807030000008080808080084
:1006E0000000606000002010080402003E514945EF
:1006F0003E0000427F4000007249494946002141C6
:10070000494D33001814127F100027454545390024
:100710003C4A4949310041211109070036494949FC
:100720003600464949291E00000014000000004020
:1007300034000000000814224100141414141400A2
:100740000041221408000201590906003E415D598A
:100750004E007C1211127C007F49494936003E410F
:10076000414122007F4141413E007F4949494100CA
:100770007F09090901003E41415173007F080808C3
:100780007F0000417F4100002040413F01007F0881
:10079000142241007F40404040007F021C027F0045
:1007A0007F0408107F003E4141413E007F09090956
:1007B00006003E4151215E007F0919294600264965
:1007C0004949320003017F0103003F4040403F00A0
:1007D0001F2040201F003F4038403F006314081492
:1007E00063000304780403006159494D4300007F0E
:1007F00041414100020408102000004141417F00B6
:100800000402010204004040404040000003070889
:1008100000002054547840007F2844443800384475
:1008200044442800384444287F0038545454180065
:1008300000087E0902001824241C78007F080404A4
:10084000780000447D4000002040403D00007F10C3
:100850002844000000417F4000007C0478047800B8
:100860007C08040478003844444438007C1824246C
:100870001800182424187C007C080404080048543C
:100880005454240004043F4424003C4040207C0095
:100890001C2040201C003C4030403C0044281028D4
:1008A00044004C9090907C004464544C44000008F8
:1008B00036410000000077000000004136080000CB
:1008C0000201020402003C2623263C000000000036
:1008D0000000000000000000C0E0F0F8F81800C0C0
:1008E000F0FCFEFFFFFFFFFFFFFF7E0000000000A7
:1008F000F8FCFC1C1C3C380000E0E0E000000000BC
:10090000E0E0E00000E0E0E00000E0E0E000000007
:1009100080C0E0E0E0E0E0E0E0E0C080800000E0F7
:10092000E0C0C0E0E0E0E0C0800000000080C0E087
:10093000E0E0E0FCFCFC00000080C0E0E0E0E0C0A3
:1009400080000000000000000000E0F0F0F0E0ECAB
:10095000EEF7F37020007C7C7C7E007E7E7E7F7FC5
:100960007F000080C0E07E5B4F5BFEC00000C000E7
:10097000DCD7DEDEDED7DC00C000000000000000B7
:100980000000000000000000000000000000000067
:1009900000F8FCFEFFE000FFFFFFFFFFFF80FFFF0E
:1009A000FFFFFFFFFFFFFF1F070100000000000027
:1009B000FFFFFF1C1C00000000FFFFFF0000000005
:1009C000FFFFFF0000FFFFFF7C66E7E7C30000FFBB
:1009D000FFFF9F1D1C1C1C1C1C9DDFDFDF0000FF98
:1009E000FFFF0100000001FFFFFF0000FFFFFF818C
:1009F000000081FFFFFF0000FFFFFF81000081FF7B
:100A0000FFFF00000000000000000F1F3F7F7F7FFE
:100A10007F7F3F1E0C001F1F1F3F003F3F3F7F7F18
:100A20007F00307B7F7830202030787F3B000300D0
:100A30000F7F0F0F0F7F0F0003000000000000006A
:100A400000000000000000000000000000000000A6
:100A500000030F1F3F3F3F3F1F1F3F3F7F7F7F3FF1
:100A60003F1F3F7F7F7F7F7C7878381C0F0000001E
:100A7000070707000000000000070707070700003E
:100A80000707070000070707000007070700000027
:100A9000010307070707070707070301000000070F
:100AA0000707000000000007070700000001030718
:100AB00007070707030100000001030707070703F3
:100AC0000100000000000000000000000000000025
:100AD0000000000000000000000000000000000016
:100AE0000000000000000000000000000000000006
:100AF00000000000000000000000000000000000F6
:100B000000000000000000000000000000010101E2
:100B100001010101010102020202020202020203BA
:100B2000030303030303030404040404040405058A
:100B3000050505060606060607070707070808084D
:100B400008090909090A0A0A0B0B0B0C0C0C0D0DFC
:100B50000D0E0E0E0F0F0F10101111111212131394
:100B60001414151516161717181819191A1A1B1B0D
:100B70001C1D1D1E1E1F2020212222232424252669
:100B800026272829292A2B2C2D2D2E2F30313232A1
:100B9000333435363738393A3B3C3D3E3F404142AD
:100BA000434445464748494A4C4D4E4F5051535493
:100BB000555658595A5B5D5E5F6162646566686947
:100BC0006B6C6D6F7072737577787A7B7D7E8082C7
:100BD000838587888A8C8E8F91939596989A9C9E10
:100BE000A0A2A3A5A7A9ABADAFB1B3B5B7BABCBE20
:100BF000C0C2C4C6C9CBCDCFD1D4D6D8DBDDDFE2ED
:100C0000E4E7E9EBEEF0F3F5F8FAFDFF11241FBE7F
:100C1000CFEFDAE0DEBFCDBF04B603FE27C0809180
:100C20005C0790915D07A0915E07B0915F078730E8
:100C3000904BA740B04BD1F410925C0710925D0727
:100C400010925E0710925F0714BE84B7877F84BF3F
:100C50000FB6F894A8958091600088618093600039
:100C6000109260000FBEE0E0F8E3099512E0A0E00A
:100C7000B1E0E4EDFBE602C005900D92A233B107AE
:100C8000D9F727E0A2E3B2E001C01D92AC35B2076C
:100C9000E1F70E94F4140C94E8350C9400009C01D8
:100CA0003A9521153F4130F5BC0166277270AC01C1
:100CB000442754709C012227387094FF0FC090FF86
:100CC00002C080E101C080E0672B09F08062452B03
:100CD00009F08064232B79F080680895892F817052
:100CE000672B09F08260452B09F08460232B19F0F3
:100CF0008860089580E008951F93CF93DF93CDB768
:100D0000DEB767970FB6F894DEBF0FBECDBF4B8B33
:100D10005C8B6D8B7E8B8F8B61111092DB0286E07A
:100D20009E01235F3F4FD901E82F1D92EA95E9F715
:100D300095E0FE017396D90101900D929A95E1F725
:100D40009C894E895F897B897D879E876F87598BB8
:100D5000488BF901DE01179601900D928A95E1F713
:100D6000CE0107960E94C32081113EC086E0FE019D
:100D70003796DE01119601900D928A95E1F7FF8179
:100D8000E8856A857B856115710531F0EF3F31F4A7
:100D900081E0FF3F19F403C081E001C080E080FDE5
:100DA00023C02091320330E0C90101968770992752
:100DB0004091630350E08417950779F1F983EA8342
:100DC0007D836C8396E0929FD001939FB00D112498
:100DD000AD5CBC4FFE01319601900D929A95E1F702
:100DE000809332030E94AC1F16E0809163039091C0
:100DF00032038917F9F0189FC00111248D5C9C4FB4
:100E00000E94C3208823B1F08091630390E0019693
:100E10008770992780936303E8CF0E945123109233
:100E2000320310926303ECE2F3E086E0DF011D92EF
:100E30008A95E9F767960FB6F894DEBF0FBECDBF6F
:100E4000DF91CF911F910895CF93DF93EC010E9422
:100E5000982DCE01805E9109089710F0209739F403
:100E6000CE010E944F06DF91CF910C94872DCE01C9
:100E70000E944F06DF91CF910C94762DCF93DF9394
:100E8000EC01805E9109089710F0209731F4CE01B3
:100E90000E944F060E948E2D05C0CE010E944F0673
:100EA0000E947D2D8C2FDF91CF910C94C22D8F92BB
:100EB0009F92AF92BF92CF92DF92EF92FF920F93E9
:100EC0001F93CF93DF93CDB7DEB72A970FB6F89471
:100ED000DEBF0FBECDBFFC010081D1808381948134
:100EE000892B39F01FEFD11206C091E00F3F19F4A2
:100EF00003C091E001C090E090FDD8C67F0185E07D
:100F0000DE01169601900D928A95E1F7D7011296AF
:100F10002C918E819F81222349F00E942220182F3C
:100F2000682F8E819F810E94912203C00E946422BB
:100F3000182FB0E31B9FF001112416E0D19EE00DA5
:100F4000F11D1124E00FF11DEE0FFF1FE753FE4FBF
:100F500005911491D70112968C91811106C0F70169
:100F60008281882309F475C040C08091040190916A
:100F700005010196A1F346E4C42E41E0D42EA12C34
:100F8000B12C9924939480910401909105018A15C4
:100F90009B052CF3D60116968C9116978823F1F0B9
:100FA00019968D919C911A978017910739F4809129
:100FB000D9029091DA028017910781F0F6019786A5
:100FC000148703878189811103C0C6010E94C91D4E
:100FD000C60106960E94EA1D1092DB02FFEFAF1ACF
:100FE000BF0A26E1C20ED11CCECFC8019056811592
:100FF00030E2930720F0905E8115904118F4C8010B
:10100000992701C0C8018C33910528F4FC01EF57E2
:10101000FE4F208101C020E21F922F939F938F9358
:10102000F70180811F928F9381811F928F9380E7B8
:1010300091E09F938F931F9288E18F9385E892E0D0
:101040009F938F930E94F0320FB6F894DEBF0FBECD
:10105000CDBFC80197558F3F910511F008F053C0DF
:1010600020910401309105012817390724F4909349
:10107000050180930401D70112962C91129736E155
:10108000389F5001399FB00C1124F501EA5BFE4FE7
:101090006F01208B12969C918681992351F11287C2
:1010A00001878F5F86830E94FB1CD6011E969C934E
:1010B0008E931D978091660317968C931797909146
:1010C000DB028091DC02892B18968C931897ED91A6
:1010D000FC911197C501845B9E4F309729F054967F
:1010E0006D917C91559709951093DA020093D9027E
:1010F0000AC0882341F08189882329F0C501845BD7
:101100009E4F0E94EA1D043FFCE51F0759F190F431
:10111000093D3CE51307E9F00A3D8CE51807A1F10C
:10112000083D9CE51907B1F506E221EE41EE68EDB8
:101130007CE514C0063FACE51A0701F1C8F0073F93
:10114000ECE51E0739F507E225EE46EE67EF7CE594
:1011500005C007E225EE45EE69ED7CE5C7010E947A
:10116000311ED2C406E221EE40EE64EF7CE5F6CFFC
:1011700007E225EE44EE65EF7CE5F0CF06E221EED6
:1011800042EE66EF7CE5EACF08E221E045EE6AED4B
:101190007CE5E4CFD70112968C91882309F445C1F0
:1011A0001092D8020430BDE51B0758F40B3FECE564
:1011B0001E0760F4C80182509C45449708F01FC187
:1011C00005C00236FDE51F0709F019C10E94FF1195
:1011D0009093E9028093E80200312CE5120709F4AC
:1011E000CAC008F041C008308CE5180709F4A4C053
:1011F000F0F40430ACE51A0709F48CC068F402304E
:10120000ECE51E0709F482C003301C4509F0E7C075
:101210008091E8028260E1C006302CE5120709F4F3
:1012200083C008F085C08091E8028860D6C00C3089
:101230008CE5180709F490C068F40A30ACE51A0789
:1012400009F47EC008F084C00E9451238091E80216
:101250008068C3C00E30ECE51E0709F481C008F0B9
:1012600086C08091E80294C00D3F2CE5120709F476
:101270007BC038F504318CE5180709F49AC058F49E
:101280000231ACE51A0709F47AC008F07EC08091FB
:10129000E8028F7BA2C00B3FECE51E07F1F108F0DE
:1012A0003FC005311C4509F09AC08091E80282FBDD
:1012B000222720F991E0922790FB82F990FB83F995
:1012C0008CC001303DE5130709F467C050F48091EC
:1012D000E9020F3F9CE51907C1F108F05BC08D7F63
:1012E00065C00330BDE51B0709F471C008F46DC08B
:1012F00002361D4509F073C08091E80284FB222765
:1013000020F991E0922790FB84F967C08091E80270
:10131000816063C08091E80216C08091E90216C026
:101320008091E902826042C08091E802806155C0EC
:101330008091E802806251C08091E80280644DC0D3
:101340008091E8028860846048C0826081602EC01D
:101350008091E8028E7F41C08091E8028D7F3DC080
:101360008091E802877F39C08091E90214C08091A2
:10137000E8028F7E32C08091E8028F7D2EC00E94ED
:1013800051238091E8028F7728C08091E802877FFF
:101390008B7F23C08D7F8E7F09C08091E902982FBB
:1013A000909591708E7F892B90FB81F98093E90253
:1013B00016C00E9451238091E80287FB222720F962
:1013C00091E0922790FB87F908C061E001C060E0DE
:1013D0008EE090E00E94F33102C08093E8026091B9
:1013E000E8021091E90284E090E00E94F331612F5D
:1013F00082E290E00E94F3310E94512385C30631BE
:101400002CE5120721F58091DC028A7A91E009F43B
:1014100090E090933402882311F065E301C069E203
:101420008EEE92E00E94581D0FC00631BCE51B07EE
:1014300009F040C080913402882309F489C365E330
:101440008EEE92E00E94301D0E94581F5DC30B3546
:101450002DE5120749F158F401158CE51807B1F094
:101460000F3D1C4509F042C00E9410124DC30C35BF
:10147000ADE51A07D9F00D351D45C1F58091E9029A
:1014800082FB882780F991E0892711C00E945123AF
:10149000EFEFF4E30CE0E150F0400040E1F700C072
:1014A00000000E94A91C30C381E001C080E00E94BE
:1014B00009231CC08091DC0282720D3C2CE51207CE
:1014C00009F4D3C308F076C3073C9CE5190709F477
:1014D000B8C308F04DC3043CBCE51B0709F4A7C31F
:1014E00008F038C3033C1C4509F4EBC2D70112963F
:1014F0008C9112970C911196DC90882359F0802FD3
:101500009D2D0E942220182F682F802F9D2D0E9434
:10151000912205C0802F9D2D0E946422182FB0E3D8
:101520001B9FF001112416E0D19EE00DF11D112446
:10153000E00FF11DEE0FFF1FE753FE4F85919491D1
:101540000E9476108C01982ED7011296DC9012978B
:101550001596BC90B2943FE0B322809164038770EB
:10156000B9F0DD20A9F0812F807F803421F080E266
:10157000800F883068F08091E90282FD09C082E026
:101580000E94EC22809164038770CC24C394811163
:10159000C12CA12EA2949FE0A9228A2D90E08C302C
:1015A000910508F051C2FC01EA5AFF4F0C94B83281
:1015B000812F807F1F70882311F01295107FDD200E
:1015C000B9F0112309F42DC280E2800F883010F0A9
:1015D000911006C08091DC02182B1093DC0205C02C
:1015E0008091DB02182B1093DB020E94581F19C256
:1015F000802F0E94982D112309F426C2005E812FAE
:10160000083060F1992051F10E944A1F29C0812FB2
:10161000807F1F70803211F01295107F992021F089
:10162000B1E09B16D9F149C08091E90282FF1BC04D
:10163000DD2069F0112339F08091DC02182B109322
:10164000DC020E94581F80E00E94C22DFDC180E094
:101650000E94982D112309F4F7C1812F0E94511F78
:101660000E94581FF1C1DD2081F080916603BB20EC
:1016700051F0E1E0BE1207C0182B181709F4E4C1BD
:1016800010936603E1C1812B10C0BB2021F0F1E073
:10169000BF1609F4D9C10E94441F2AC0DD2041F0C1
:1016A00005E00B1508F4D0C1812F0E948E2DCCC10E
:1016B00024E02B1508F4C8C11BC0DD2061F0BB205D
:1016C00099F3D70115968C91159780FFAAC18F7059
:1016D00015968C93E9CFBB2059F0093309F0B1C1BD
:1016E000BFEFE7EEF3E0B150E040F040E1F7A7C113
:1016F000812F0E94872DA8C1812F869586958370A2
:1017000019F0813059F0A0C1DD2019F0C8019370A3
:1017100002C080E090E00E94A31D9CC1DD2019F072
:10172000C801937002C080E090E00E948D1D92C1BC
:10173000812F837009F069C0D1108AC1902F9295D2
:1017400096959770990F990F802F8F70882E912CF6
:10175000A12CB12C092E04C0880C991CAA1CBB1CFE
:101760000A94D2F704FF12C04FE050E060E070E04E
:1017700004C0440F551F661F771F9A95D2F7DB01EF
:10178000CA0180959095A095B09503C080E090E047
:10179000DC0116951695412F4370423019F1C8F4BB
:1017A00000913602109137022091380230913902AF
:1017B000413059F088299929AA29BB29BC01CD01BA
:1017C00060237123822393230AC0802A912AA22AAC
:1017D000B32ABC01CD01682979298A299B290E9455
:1017E000472336C188299929AA29BB2900913602A5
:1017F000109137022091380230913902BC01CD019D
:101800006027712782279327EACFDD2019F0812FE7
:10181000817001C08695882309F41AC1902F929592
:1018200096959770990F990F802F8F70882E912C15
:10183000A12CB12C092E04C0880C991CAA1CBB1C1D
:101840000A94D2F704FF12C04FE050E060E070E06D
:1018500004C0440F551F661F771F9A95D2F7DB010E
:10186000CA0180959095A095B09503C080E090E066
:10187000DC0116951695412F43704230D9F068F57A
:1018800000918102109182022091830230918402A2
:10189000413059F088299929AA29BB29BC01CD01D9
:1018A00060237123822393231EC0802A912AA22AB7
:1018B000B32A13C088299929AA29BB29009181023A
:1018C000109182022091830230918402BC01CD01EB
:1018D000602771278227932706C0BC01CD016829A4
:1018E00079298A299B290E94BD22B2C01F70DD2060
:1018F00039F0812F0E942623802F0E948E2DA8C0B0
:10190000802F0E94872D812F0E94C722A1C0802F87
:1019100022EF921609F443C0291538F030EF9316E0
:1019200059F091EF9916B1F177C0A3EF9A16F1F142
:10193000B4EF9B1659F170C0DD2019F1E4E0EB150E
:1019400008F482C01F7181E090E0A0E0B0E0AC013B
:10195000BD0104C0440F551F661F771F1A95D2F7AB
:101960008091810290918202A0918302B0918402C1
:101970008A019B01082719272A273B27C901B8019B
:1019800029C025E02B1508F45FC0DCCF8091E90267
:1019900082FF23C0DD2029F0812F8F7130C0DD2030
:1019A000D9F3812F8F710E94C7224EC0DD2079F0BC
:1019B0001F7181E090E0A0E0B0E0BC01CD0104C067
:1019C000660F771F881F991F1A95D2F703C060E032
:1019D00070E0CB010E94BD2237C0DD2099F01F715D
:1019E000812F0E9426238091E90282FD07C038E002
:1019F000139FC0011124836080936403812F0E9490
:101A0000262322C081E00E94EC2281E08B15E0F4C5
:101A100082E00E94EC2218C0DD2029F0BB2009F4EE
:101A2000BBCF802F11CEBB2009F4BBCF893349F443
:101A30009FEFA7EEB3E09150A040B040E1F700C0A7
:101A40000000802F0E94982D88EF8A0D843010F4BA
:101A50000E94B91DCC20A9F08091640380FD11C0C3
:101A6000F70112828595859585950E942623C701E9
:101A70000E945707809164038595859585950E94FE
:101A8000C72285E0F701DE01119601900D928A953B
:101A9000E1F789819A810E9464229A8100E3809F04
:101AA000F001112416E0919FE00DF11D11248981B0
:101AB000E80FF11DEE0FFF1FE753FE4F8591949144
:101AC000F5C08091CB0280FFACC08E7F8093CB02AB
:101AD0006091CB027091CC028091CD029091CE02A8
:101AE0000E94602C0E94892380916F038160809303
:101AF0006F03BFEFE0E7F2E0B150E040F040E1F704
:101B000000C000000E94AB2380916403877009F439
:101B1000CDC0D70112968C91882309F4C7C080915B
:101B2000E90282FDC3C082E02A960FB6F894DEBFB8
:101B30000FBECDBFDF91CF911F910F91FF90EF901E
:101B4000DF90CF90BF90AF909F908F900C94EC223D
:101B500069E276CC053C2CE5120709F46DC0063C21
:101B60001C4509F0C3CC44E35CE26DE37CE281C038
:101B70000A3C9CE5190709F46EC070F4083CBCE50A
:101B80001B0709F463C0093C1C4509F0AFCC48E2CF
:101B90005CE26CE17CE26DC00B3CFCE51F0709F4E4
:101BA0005FC00C3C1C4509F0A1CC47E653E268E756
:101BB00073E25FC0023D3CE5130709F466C098F488
:101BC0000F3C9CE5190709F45AC008F455C0003DC4
:101BD000BCE51B0709F456C0013D1C4509F086CC45
:101BE0006EE089E060C0053DFCE51F0709F453C0C5
:101BF00060F4033D3CE5130709F44AC0043D1C456D
:101C000009F074CC61E088E14BC0063D9CE5190702
:101C100009F444C00E351D4509F068CC6AE285E23E
:101C200042C081608093CB0261E0869539C043E673
:101C30005DE26CE67DE21DC04CE65DE263E67DE2BE
:101C400018C04DE35CE264E37CE213C04CE15CE26B
:101C500068E27CE20EC048E358E260E17CE209C041
:101C600040E15CE268E378E204C048E753E267E6FB
:101C700073E20E943E1F48CF61E081E011C065E041
:101C800082E011C068E086E00EC064E18FE00BC026
:101C900067E185E108C062E289E105C061E083E2B5
:101CA0000E94232D31CF0E942C1F2ECF2A960FB6D3
:101CB000F894DEBF0FBECDBFDF91CF911F910F9182
:101CC000FF90EF90DF90CF90BF90AF909F908F905C
:101CD000089580E008959091E80292FF0DC0282FAA
:101CE0002871283019F4877F846006C0282F24715A
:101CF000243011F48B7F886093FF0DC0282F28714A
:101D0000283119F4877E846106C0282F247124317C
:101D100011F48B7E88612091E90220FF0DC0382FDD
:101D20003871383019F4877F816006C0382F3171DF
:101D3000313011F48E7F886021FF0DC0282F28716B
:101D4000283119F4877E816106C0282F2171213145
:101D500011F48E7E886194FD877E0895CF93DF9382
:101D6000CDB7DEB728970FB6F894DEBF0FBECDBF54
:101D700085E0EBECF2E0DE01119601900D928A9580
:101D8000E1F780916D0390916E03A0916F038E83B4
:101D90009F83A887288540916202509163026091D9
:101DA0006402709165023FB7F8948091E4029091CB
:101DB000E502A091E602B091E7023FBF841B950BBC
:101DC000A60BB70B84369105A105B10510F42223AB
:101DD00029F180912701909128018F5A9D4F4091C0
:101DE000260150E04930510510F048E050E0BE01B6
:101DF0006F5F7F4F0E94E73283E090E00E94AE3039
:101E0000892B11F080E00DC00E94EF1C60936202EC
:101E100070936302809364029093650210926F0343
:101E200081E028960FB6F894DEBF0FBECDBFDF91DC
:101E3000CF910895EF92FF921F93CF93DF9300D03D
:101E400000D01F92CDB7DEB77B0180E090E00E940A
:101E5000AE30892B09F065C040910B0150E041156F
:101E6000510511F041E050E060910C0170910D01BD
:101E70006F5A7D4FCE0105960E94E732409149028C
:101E800050914A0260914B0270914C022FB7F89426
:101E90008091E4029091E502A091E602B091E70200
:101EA0002FBF841B950BA60BB70B84369105A1059C
:101EB000B10538F482E592E00E94D7289D81891708
:101EC00091F181E090E00E94AE30892BA1F4409125
:101ED000150150E04530510510F044E050E06091AC
:101EE0001601709117016F5A7D4FCE0101960E9425
:101EF000E73211E001C010E082E592E00E94D728AD
:101F000091E02D81281390E0192341F10E94EF1CEC
:101F10006093490270934A0280934B0290934C0263
:101F20000FC010E001C011E0809152029091530265
:101F3000A0915402B091550289839A83AB83BC83EC
:101F4000112361F089819A81AB81BC818093450224
:101F500090934602A0934702B093480280914502B5
:101F600090914602A0914702B0914802F701808308
:101F70009183A283B383812F0F900F900F900F90C6
:101F80000F90DF91CF911F91FF90EF900895809176
:101F90004402811118C08091D80080618093D800DC
:101FA0008AE18A95F1F700C08091D90080FD02C0D6
:101FB00082E001C081E080934402823021F40E94DB
:101FC0006D1A1092470581E090914402913009F01A
:101FD00080E008950F931F930E94C70F882321F07C
:101FE0001F910F910C94EF1C0E94EF1C009167024F
:101FF000109168022091690230916A02600F711F8E
:10200000821F931F1F910F910895CF93DF9300D0EC
:1020100000D0CDB7DEB740914D0250914E02609195
:102020004F02709150022FB7F8948091E402909182
:10203000E502A091E602B091E7022FBF841B950B49
:10204000A60BB70B84369105A105B10580F10E945E
:10205000EA0FDC01CB010296A11DB11D89839A8391
:10206000AB83BC8380911D0190911E018F5A9D4FBF
:1020700040911C0150E04530510510F044E050E023
:10208000BE016F5F7F4F0E94E73282E090E00E94C6
:10209000AE30892B11F080E00BC00E94EF1C6093E2
:1020A0004D0270934E0280934F029093500281E054
:1020B0000F900F900F900F90DF91CF910895F894AB
:1020C000E82FE295EF70F0E031A1282F2F7081E02A
:1020D00090E001C0880F2A95EAF7982F90959323F6
:1020E00091A392A1892B82A378940895CF93DF9333
:1020F0008238910569F1B0F48133910509F46FC01C
:1021000048F48932910509F465C08A32910509F4D1
:102110006BC08AC08533910509F457C08933910596
:10212000B9F082C0833E910571F138F4803E91058B
:10213000B1F0823E910511F177C0863E9105B9F16B
:10214000873E9105C9F1843E910509F06DC024C018
:102150002091E80220FD53C021FD51C065C080914F
:10216000E80280FD46C08091E90280FF48C080916E
:10217000E80284FD3FC183EE90E03EC18091E80219
:1021800082FF3AC0F4CF8091E80282FD35C0809191
:10219000E90280FD34C0EBCF8091E90281FF35C0B8
:1021A0008091E80284FD26C187EE90E025C18091F0
:1021B000E80283FF27C0F4CF8091E80283FD22C0AC
:1021C0008091E90281FD21C0EBCF8091E80285FD7D
:1021D0001FC021C08091E80285FD1DC019C08091FB
:1021E000E80286FD1BC01DC08091E80286FD19C073
:1021F00015C089E390E000C182EE90E0FDC080EE62
:1022000090E0FAC086EE90E0F7C084EE90E0F4C073
:1022100089E290E0F1C085E390E0EEC08AE290E0D0
:10222000EBC081E390E0E8C0811532E5930708F048
:1022300069C0811541E5940728F0982F8827816FA0
:10224000906ADAC0883E910568F5803E910508F0F5
:10225000D3C0883A9105B8F4853A910548F0855A7B
:10226000E82FF0E0E354FE4F808190E09064C4C01A
:102270008130910509F4BBC008F4BCC084309105DD
:1022800008F4B8C0B9C08F3B910508F0B3C0885AB4
:10229000E82FF0E0EE0FFF1FE054FE4F80819181A8
:1022A0009464AAC0811520E59207F0F09C0174E0C7
:1022B000369527957A95E1F7922F9370482F4370C2
:1022C00021E030E002C0220F331F4A95E2F73C685C
:1022D000392B8F70982F9695969540E2949FC00168
:1022E0001124822B932B88C0811530E4930718F0BA
:1022F0009F70906A81C09C013A9521153F4108F476
:102300007BC078C0EC01C11586E5D807E8F5C1159A
:1023100025E5D20748F08C2F0E946B0E8F7190E05C
:10232000982F8827906268C0C11534E5D30728F03C
:102330009C2F8827846F906A5FC0AE014370552739
:102340002C2F26952695C115D34578F481E090E091
:1023500002C0880F991F4A95E2F740E2249F90013E
:102360001124822B932B9C6847C081E090E002C02F
:10237000880F991F4A95E2F740E2249F90011124AB
:10238000822B932B9A6838C0C1152AE5D207F8F43E
:10239000C11539E5D30790F08C2F8F700E946B0E1A
:1023A00094E0D695C7959A95E1F7CF70D0E0DC2FF1
:1023B000CC27D0699E01282BC9011EC0C11548E554
:1023C000D407C0F09C2F8827806F906A15C0CE017B
:1023D00090568115904270F48D2F8F710E946B0E74
:1023E000282F2F71CE0199279062922B05C081E092
:1023F00090E002C080E090E0DF91CF910895CF930C
:1024000084E090E00E94DF31C82F82E290E00E94D9
:10241000DF312C2F30E0A901582BCA01CF9108954C
:1024200069EE7EEF80E090E00E94113260E082E091
:1024300090E00E94F33160E083E090E00E94F3318D
:10244000109236021092370210923802109239021E
:1024500060E084E090E00E94F33160E082E290E08E
:102460000E94F33160E085E090E00E94F33160E08B
:1024700086E090E00E94F3316FEF87E090E00E94E9
:10248000F33140E050E0BA0188E090E00E9405326C
:1024900060E08DE090E00E94F33140E050E0BA014E
:1024A00088E190E00E94053260E087E190E00E94C0
:1024B000F33140E050E0BA018CE190E00E94053237
:1024C00060E070E080E290E00E94113240E050E075
:1024D000BA0188E190E00E94053240E050E0BA0184
:1024E0008FE090E00E94053240E050E0BA0183E1C5
:1024F00090E00C9405320E94C70F81110C94FB1CD4
:102500000E94EA0FCB0108955F926F927F928F92A3
:102510009F92AF92BF92CF92DF92EF92FF920F9372
:102520001F93CF93DF93CDB7DEB72C970FB6F894F8
:10253000DEBF0FBECDBFAE014F5F5F4F7A0188E0B7
:10254000DA011D928A95E9F700EF11E06A0124EFA4
:10255000622E21E0722EAA24A394B12C4EEF842E79
:1025600041E0942EF80180818F3F09F440C0F89437
:10257000E82FE295EF70F0E021A18F70A50102C075
:10258000440F551F8A95E2F7CA01922F982B91A309
:1025900092A18095892382A3789400C0E8EFF1E0AE
:1025A000512C31E021912F3F89F0A22FA295AF70DD
:1025B000B0E090968C9190E02F7002C09595879531
:1025C0002A95E2F780FD02C0832F01C080E0582ADF
:1025D000330F8E169F0631F7D8018C918F3F11F083
:1025E0000E945F10B0EABA95F1F7F60150820F5FD2
:1025F0001F4FFFEFCF1ADF0A6016710609F0B2CF46
:1026000048E050E0B7018BE692E00E94DA328C019C
:10261000892B41F088E0F701ABE6B2E001900D9222
:102620008A95E1F7F09074020115110549F081E0F7
:1026300080933C020E94FB1C90933B0280933A02E1
:1026400080913C028823B9F080913A0290913B023C
:102650000E94E01C059778F0ABE6B2E0EF2DF0E0C9
:10266000EA58FD4F8FE692E02D9121938A179B0740
:10267000D9F710923C020115110509F05BC10E94C7
:10268000C70FE0917402882309F4C0C019861A8626
:102690001B861C860E2F10E00A581D4F8091660283
:1026A0008A3058F44AE15FE0BE01675F7F4FC8019E
:1026B0000E94B3148823A1F10AC080913D02909139
:1026C0003E020E94E01C843F914060F73AC045E022
:1026D00050E1BE01675F7F4FC8010E94B314882399
:1026E000F9F04EEA5EE0BE01675F7F4FC8010E94CD
:1026F000B3148823A9F0109266028091730290E0CF
:1027000044E050E0BE01675F7F4F8A589D4F0E94B2
:10271000DA3221E020934302892B01F5912C2DC060
:10272000809166028F3F19F08F5F809366028091DF
:1027300066028A3010F30E94FB1C90933E02809345
:102740003D0280914302882349F3FE01399684E0DB
:10275000DF011D928A95E9F710924302E09173021E
:10276000F0E0EA58FD4F89859A85AB85BC8580836A
:102770009183A283B38399249394809104019091CF
:102780000501019641F1D12C96E1C92E1BC0CE9CCA
:10279000F001CF9CF00D1124EA5BFE4FA288B388B4
:1027A000A114B10419F488ECA82EB12CCE9C8001A0
:1027B000CF9C100D11240A5B1E4FF80186818111F8
:1027C0000CC0D394ED2CF12C809104019091050163
:1027D0008E159F05E4F6092DAFC0858596850E946C
:1027E000E01CA816B90668F7D80151968C918111A2
:1027F00003C0C8010E94C91DCE9CC001CF9C900D92
:102800001124845B9E4F0E94EA1DDBCFF0E0EA5862
:10281000FD4FF89484E0A2E5B2E001900D928A9514
:10282000E1F782E592E00E94D728809351027894E4
:10283000F894C0905602D0905702E0905802F09061
:10284000590280913F0290914002A0914102B091C3
:102850004202C816D906EA06FB06D1F0C0923F0232
:10286000D0924002E0924102F09242020E94C70FD1
:1028700081110EC00E94EF1CC61AD70AE80AF90A95
:10288000C0926702D0926802E0926902F0926A02F6
:102890007894F89480916102882309F449C080FFFC
:1028A00024C090915A028091CB0290FF09C08160B0
:1028B0008093CB0260E0892F86950E94232D15C05E
:1028C0008E7F8093CB020E94892380916F03816069
:1028D00080936F03BFEFE0E7F2E0B150E040F040DB
:1028E000E1F700C000000E94AB238091610281FFEC
:1028F00009C020E040915D0260915C0280915B0222
:102900000E9496278091610282FF09C08091600237
:10291000882319F00E94902302C00E94892380918D
:10292000610283FF03C081E080936A031092610219
:10293000789402C001E010E0802F2C960FB6F89436
:10294000DEBF0FBECDBFDF91CF911F910F91FF90E2
:10295000EF90DF90CF90BF90AF909F908F907F903F
:102960006F905F900895AF92BF92CF92DF92EF92F7
:10297000FF920F931F93CF93DF937C015B016A015A
:10298000809166028A3018F001E010E002C00AE08F
:1029900010E0C1E0D0E0F894B501C701F601099557
:1029A0007894811115C021960C171D0794F0CC9FC7
:1029B0009001CD9F300D300D112480E090E045E373
:1029C0004A95F1F70000019682179307C1F7E3CF0C
:1029D00081E0DF91CF911F910F91FF90EF90DF90F9
:1029E000CF90BF90AF900895CF93DF93CDB7DEB770
:1029F0002C970FB6F894DEBF0FBECDBF84B7877F8C
:102A000084BF0FB6F894A895809160008861809388
:102A10006000109260000FBE90E080E80FB6F8945E
:102A200080936100909361000FBE85B7806885BF79
:102A300085B7806885BF89E69EE0909333028093D6
:102A400032020E946D1A0E94131B8091E200846082
:102A50008093E2007894809147058823A1F010913B
:102A6000E9001F709091EC00892F817090FD80E843
:102A7000182B1092E9008091E80083FD0E94432901
:102A80001F701093E90082E084BD93E095BD9AEF3A
:102A900097BD80936E0010926702109268021092A8
:102AA000690210926A020E94C70F80932E018091E2
:102AB0002E01882321F010926A018BE103C08BE183
:102AC00080936A0180936B010E94C70F81110E945D
:102AD000A12F80912E0180912E01811102C094E0DE
:102AE00001C090E09093740284E0891B809373028C
:102AF00000EF11E084EFE82E81E0F82ED8018D91EF
:102B00008D018F3F11F00E945F10E016F106B1F7C2
:102B100008EF11E0BEEFEB2EB1E0FB2EF801819142
:102B20008F018F3F11F00E945F10E016F106B1F7A0
:102B300088E0E6E7F2E0DF01282F1D922A95E9F709
:102B4000EBE6F2E0DF011D928A95E9F780E090E084
:102B50000E94ED31893E9E4F11F00E94101282E0DA
:102B600090E00E94DF318093C2020E94FF11909397
:102B7000E9028093E8020E948412EFE3FCE93197B6
:102B8000F1F700C000000E9484120E94C70F81115B
:102B900002C0E4E001C0E0E0F0E0EA58FD4F8081CF
:102BA00081FF08C06FEF7FEF80E090E00E9411325C
:102BB0000E94A91C83E090E00E94DF31682F70E042
:102BC00080E090E00E9447230E94C70F811102C05D
:102BD0000E94A42F0E94C70F882311F080E001C03B
:102BE00082E08093BD0280E8809351050E94352EDB
:102BF0006DE070E085E391E00E94EE28892B09F0FA
:102C000043C08091BD0263E070E081FD3AC082E381
:102C100091E00E94EE28892BB9F56DE070E082E228
:102C200091E00E94EE28892B79F50E94EF1CDC01CF
:102C3000CB01805A9541AF4FBF4F8093D002909304
:102C4000D102A093D202B093D302E4E5F5E080E094
:102C500092E0DF019C011D9221503040E1F7F0939A
:102C60005B07E0935A078FEF9FEF90935305809394
:102C7000520581E08093D5028093D4021092BE0267
:102C800003C08FE291E0C5CF8091750281113BC0F6
:102C900080E090E00E94ED31893E9E4F21F00E943D
:102CA00010120E94722C88E090E00E94E73160933D
:102CB000CB027093CC028093CD029093CE02809190
:102CC0006F03836080936F036E7F71F40E94722C98
:102CD00088E090E00E94E7316093CB027093CC02D1
:102CE0008093CD029093CE020E94462C0E948923AD
:102CF0008091CB0280FF04C060E086950E94232D66
:102D000081E0809375028FE291E09093E0028093DE
:102D1000DF0222242394312C80914705853009F06D
:102D200047C000E112E180914705853009F03CC0C1
:102D300080914705843031F10E94BC1E1092E3025D
:102D400088E190E0A0E40FB6F894A8958093600025
:102D50000FBEA093600083B7817F846083BF83B779
:102D6000816083BF7894889583B78E7F83BF0FB6C9
:102D7000F894A8958091600088618093600010921B
:102D800060000FBE80914605882309F4CCCF0E94D5
:102D90008412E6E7F2E0819181119BC22EE732E0D6
:102DA0002E173F07C1F7BFCF0E9451230E94B91DC4
:102DB0000E948412D82E81110E94EF1CA6E7B2E077
:102DC000E3ECF2E000E010E0B02ECD9081918C2594
:102DD00049F1E12CFF24F394982F9F21F1F00E94F8
:102DE000C70F882399F0E982BA82CF2081E009F4E5
:102DF00080E08B830E94FB1C8160782F9D838C83F5
:102E000049815A816B818D810E947C06F801ED53C6
:102E1000FD4F8081F826F0821AC0E394FF0C36E063
:102E2000E312DACF0F5F1F4F0830110569F68FEFFD
:102E30008E838F8318860E94FB1C8160782F9A876F
:102E400089874E815F8168858A850E947C06809192
:102E50006E03882309F4CFC080916D03E091CB020B
:102E6000E695E81BE0936903823059F4F0E0ED5AEF
:102E7000FE4FE4910E2F10E0F2E8EF2EF7E2FF2E66
:102E80006BC0863059F4F0E0E05BFE4FE4910E2F0A
:102E900010E0E2E7EE2EE7E2FE2E5EC0893061F43C
:102EA000E695F0E0E35BFE4FE4910E2F10E072EC4C
:102EB000E72E76E2F72E50C08F3061F4E695F0E011
:102EC000E65BFE4FE4910E2F10E066E2E62E66E22E
:102ED000F62E42C0853159F4F0E0E95BFE4FE491F3
:102EE0000E2F10E050EAE52E55E2F52E35C0883160
:102EF000F9F0833249F4E5E4F1E00591149148E1F9
:102F0000E42E47E2F42E28C08432C9F08532F1F471
:102F10008E2F63E00E948A32E92FF0E0EE5BFE4FD5
:102F2000E4910E2F10E037EFE32E33E2F32E14C0BE
:102F300008E210E02DE0E22E25E2F22E0DC004EFB3
:102F400011E09EECE92E94E2F92E06C000ED17E0A8
:102F500086E6E82E83E2F82E80916A03882361F0EA
:102F600010926A030E947B12909368038093670318
:102F700010926C0310926B030E947B12E091670326
:102F8000F09168039C012E1B3F0B2F3F3F4798F5A4
:102F9000209180022223B1F01092800220917E02C3
:102FA00030917F02821B930B8F3F9F4758F4205D27
:102FB0003A4830937F0220937E0280916F038860AD
:102FC00080936F03A0906B03B0906C030E0F1F1FD4
:102FD000109368030093670387E693E0F701099570
:102FE00080916B0390916C03892B29F4AB2819F025
:102FF00081E0809380028091D502882309F45AC130
:103000008091BF029091C0020E94E01CC29708F418
:103010004DC00E94FB1C9093C0028093BF0284E5C8
:1030200095E090935B0780935A070E94C70F88230F
:10303000C9F18DE791E00E94C428809181029091AE
:103040008202A0918302B091840287319105A8F495
:10305000FC01EE59FF4F0C94B83286E791E00BC0AB
:103060008DE691E008C085E691E005C08EE591E02F
:1030700002C087E591E00E94D228E5E8F2E00190E5
:103080000020E9F78F0101501109B5E8EB2EB2E0FD
:10309000FB2EE016F10650F4D7018D917D010E94C0
:1030A0004428F7CF85E891E00E94C4288091D5029A
:1030B000882309F4E4C0209152053091530521156D
:1030C000310509F4DCC08091BE028111D8C0082FFF
:1030D00010E07101082E02C0EE0CFF1C0A94E2F70A
:1030E000A9014E215F21452B11F48F5FF0CF909104
:1030F000BD029801A5E0220F331FAA95E1F790FDCC
:1031000012C08295880F807680933D01220F232F75
:10311000221F330B319520934001815E80933E0145
:103120001092410112C0E5E036952795EA95E1F746
:10313000220F220F220F20933D0110924001295FA0
:1031400020933E0183E08093410124E630E047E094
:1031500050E06BE371E088E70E94EC2E892B09F0C8
:103160008EC08091BD0280FD22C0A80175E0440F91
:10317000551F7A95E1F74C5A5A4F04E610E020E2C9
:1031800030E060E488E70E94132F892B09F077C0B4
:103190000E94D61EE094F0948091520590915305C0
:1031A000E822F922F0925305E092520568C080E2CD
:1031B000EDE9F2E0DF011D928A95E9F7A80135E01B
:1031C000440F551F3A95E1F7E2E0F2E0FC87EB8708
:1031D0000EEF11E066E0462E62E0562EAB85BC8510
:1031E0008D91BC87AB87F80191918F01BA01690F6E
:1031F000711D6C5A7A4F90E083569D4FFC0127E079
:10320000922E9F01281B390B722C01C0770C2A9536
:10321000EAF75B01812CD501CD905D01C720292DF6
:1032200028192770622E022E000C330BBC2D01C012
:10323000BB0F6A94EAF76B2E3195219531092770FF
:10324000332701C0C6942A95EAF76C28C0806C2801
:103250006082839428E08212DECF9A9431963FEF09
:103260009312CFCF8B859C854816590609F0B6CFAF
:1032700004E610E020E230E04DE952E082CF809198
:10328000D4028823B9F00E94EF1C0091D002109163
:10329000D1022091D2023091D302DC01CB01801BFC
:1032A000910BA20BB30B8F3F9F4FAF4FBF4710F453
:1032B0000E94BC1ED1100E94D61E0E94B91D909182
:1032C000C102891709F428CD0E94B91D8093C1025B
:1032D00023CD09BD19BD09B400FEFDCF8091D800F2
:1032E0008F7D8093D8008091E00082608093E00021
:1032F0008091E00081FDFCCF0E94512314CD089500
:1033000008958091240508958093EA027093EC0259
:103310006093EB0280914705843001F582E0809351
:10332000E9008FEF9091E800815095FD06C095ED82
:103330009A95F1F700008111F5CF8091E80085FFA3
:103340000DC040E050E063E070E08AEE92E00E9441
:1033500017298091E8008E778093E8000895BC01DA
:1033600084E00C948419BC0183E00C948419CF93FD
:10337000DF9320916F01222339F02091E80227FF8B
:1033800003C060E222E002C068E021E02093E9008F
:103390002FEF3091E800215035FD06C035ED3A950C
:1033A000F1F700002111F5CF2091E80025FF1DC0A5
:1033B000EC0180916F01811105C040E050E068E0B0
:1033C00070E003C070E040E050E0CE010E94172999
:1033D0008091E8008E778093E80080E2FE01A5E20C
:1033E000B5E001900D928A95E1F7DF91CF910895B4
:1033F000FC018081813021F4FB018081918105C035
:10340000823029F4FB01828193810C942407089572
:10341000FC018081813021F4FB018081918105C014
:10342000823029F4FB01828193810C943E07089538
:10343000CF93DF93FC012081223041F4FB01EC01AA
:10344000828193810E943E0781E08B87DF91CF913B
:1034500008951F920F920FB60F9211242F933F934E
:103460004F935F936F937F938F939F93AF93BF938C
:10347000CF93DF93EF93FF93C091E900CF708091DA
:10348000EC00D82FD17080FDD0E81092E900809137
:10349000F000877F8093F00078940E944329109277
:1034A000E9008091F00088608093F000CD2BCF7010
:1034B000C093E900FF91EF91DF91CF91BF91AF9160
:1034C0009F918F917F916F915F914F913F912F913C
:1034D0000F900FBE0F901F901895E8EDF0E08081DF
:1034E0008E7F80831092E2001092DA001092E10049
:1034F000A0EEB0E08C9181608C9380818F77808387
:1035000019BCA7EDB0E08C918E7F8C9380818F7E6B
:1035100080831092ED0208952091E4003091E5003F
:1035200095E64091EC00842F817040FF23C080918C
:10353000E80080FD1DC080914705882399F0853003
:1035400099F08091EB0085FD11C04091E40050910D
:10355000E5002417350729F3915011F09A01E1CFC6
:1035600084E0089582E0089583E0089581E008955D
:1035700080E008954091E80042FFDDCF08958091FA
:10358000490587FF11C08091E80082FD05C0809148
:1035900047058111F8CF11C08091E8008B770BC0EF
:1035A00080914705882349F08091E80080FFF8CF9B
:1035B0008091E8008E778093E8000895982F9730E7
:1035C00068F59093E900981739F07091EC0020911C
:1035D000ED005091F00003C0242F762F50E021FD24
:1035E00002C09F5FECCF3091EB003E7F3093EB0049
:1035F0003091ED003D7F3093ED003091EB00316074
:103600003093EB007093EC002093ED005093F000AA
:103610002091EE0027FDE5CF80E008958F70809324
:10362000E90081E00895CF92DF92EF92FF920F932D
:103630001F93CF93DF93C8EDD0E088818F7E88837E
:10364000E7EDF0E080818160808384E082BF81E0EB
:103650008093ED0288818E7F888302EE10E0F8016E
:1036600010821092DA0081EEC82ED12CF601108261
:1036700088818F77888388818068888388818F7D1F
:10368000888319BC10924705109248051092460590
:103690001092450590EEE92EF12CF70180818B7F89
:1036A000808388818160888342E060E080E00E94BE
:1036B000DE1AF60180818E7F8083F801808181602F
:1036C0008083808188608083F70180818E7F808302
:1036D000888180618883DF91CF911F910F91FF9046
:1036E000EF90DF90CF9008951F920F920FB60F9238
:1036F00011242F933F934F935F936F937F938F93F7
:103700009F93AF93BF93EF93FF938091E10082FF6C
:1037100009C08091E20082FF05C08091E1008B7FAB
:103720008093E1008091DA0080FF2AC08091D80068
:1037300080FF26C08091DA008E7F8093DA0080912E
:10374000D90080FF18C080E189BD82E189BD09B43C
:1037500000FEFDCF81E0809347058091ED0281114D
:103760000FC00E946D1A0E94131B8091E2008460BA
:103770008093E20005C019BC109247051092ED023B
:103780008091E10080FF17C08091E20080FF13C0AC
:103790008091E2008E7F8093E2008091E200806160
:1037A0008093E2008091D80080628093D80019BC99
:1037B00085E0809347058091E10084FF30C08091CF
:1037C000E20084FF2CC080E189BD82E189BD09B49B
:1037D00000FEFDCF8091D8008F7D8093D80080912E
:1037E000E1008F7E8093E1008091E2008F7E8093E4
:1037F000E2008091E20081608093E20080914805C0
:10380000882311F084E007C08091E30087FD02C0A7
:1038100081E001C083E08093470580914705809156
:10382000E10083FF27C08091E20083FF23C08091E5
:10383000E100877F8093E10082E08093470510924A
:1038400048058091E1008E7F8093E1008091E20045
:103850008E7F8093E2008091E20080618093E2009D
:1038600042E060E080E00E94DE1A8091F000886013
:103870008093F000FF91EF91BF91AF919F918F9155
:103880007F916F915F914F913F912F910F900FBE5C
:103890000F901F90189520914F05309150052617D5
:1038A000370748F06115710539F42091E8002E774B
:1038B0002093E80001C0B901FC0120E06115710509
:1038C00079F1809147058823F1F18530F1F18091FC
:1038D000E80083FD3CC08091E80082FD2EC080910D
:1038E000E80080FFEBCF2091F3008091F20090E0A0
:1038F000922B6115710551F08830910538F42191B2
:103900002093F100615071090196F3CF21E00897EF
:1039100009F020E08091E8008E778093E800CECF18
:103920002111CFCF0AC080914705882361F08530EF
:1039300061F08091E80083FD0AC08091E80082FF79
:10394000F2CF80E0089582E0089583E0089581E059
:10395000089587E797E790930108809300089AE01D
:1039600088E10FB6F894A895809360000FBE9093FD
:103970006000FFCF78941F920F920FB60F92112420
:103980008F939F93AF93BF938091E4029091E50250
:10399000A091E602B091E7020196A11DB11D8093AE
:1039A000E4029093E502A093E602B093E702BF9190
:1039B000AF919F918F910F900FBE0F901F90189510
:1039C0009C014FB7F8948091E4029091E502A09198
:1039D000E602B091E7024FBF821B930B08952FB709
:1039E000F8946091E4027091E5028091E602909172
:1039F000E7022FBF08952FB7F8948091E4029091C9
:103A0000E502A091E602B091E7022FBF08951F9250
:103A10000F920FB60F9211248F939F93AF93BF9382
:103A20008091E302811113C08091E4029091E5023C
:103A3000A091E602B091E7024196A11DB11D8093CD
:103A4000E4029093E502A093E602B093E702BF91EF
:103A5000AF919F918F910F900FBE0F901F9018956F
:103A600020916F012223C9F02091E80227FF15C0A1
:103A7000262F2695269526952E31C8F4FC01E20FB7
:103A8000F11D677081E090E001C0880F6A95EAF748
:103A900080959281892382830895FC010696228174
:103AA000621301C012823196E817F907C1F7089531
:103AB00020916F012223C1F02091E80227FF14C05A
:103AC000262F2695269526952E3130F5FC01E20FFE
:103AD000F11D677081E090E001C0880F6A95EAF7F8
:103AE0009281892B82830895FC0132962FEF30E07A
:103AF0004191641789F02F3F19F4411101C0232F20
:103B00003F5F3630A9F72F3F39F0FC01E20FF11D7E
:103B100027FDFA956283089508952091E10230917E
:103B2000E2022817390771F09093E2028093E102D4
:103B3000E091DF02F091E002309721F00084F185FE
:103B4000E02D099408952091DD023091DE022817BE
:103B5000390771F09093DE028093DD02E091DF027D
:103B6000F091E002309721F00680F781E02D099472
:103B700008950E94C70F882351F0E091DF02F09171
:103B8000E002309721F00190F081E02D099480E06F
:103B90000895CF93DF93EC0181E0898B9091DC0253
:103BA0008F81892B8093DC029091DB028885892BA1
:103BB0008093DB020E94581FEA81FB81CE010696AA
:103BC000309729F06C897D89DF91CF910994DF913D
:103BD000CF910895EF92FF920F931F93CF93DF93AE
:103BE000FC012285211136C0EC01E380F480F7E569
:103BF000FF1A26E12E9DC0012F9D900D1124DC019E
:103C0000AA5BBE4F1496ED91FC911597845B9E4F75
:103C1000309729F054966D917C915597099586E1DE
:103C20008E9D80018F9D100D11240A5B1E4FF8019F
:103C300087810E94511FF80180850E944A1F0E94BF
:103C4000581F188219861B861E821D821092DA0266
:103C50001092D902DF91CF911F910F91FF90EF90B9
:103C60000895EF92FF920F93CF93DF93C42FD22F3B
:103C7000FC0182818823D1F04093D8020E94FB1C72
:103C80009093D7028093D60280E28C0F883008F0A0
:103C90006DC0C77081E001C0880FCA95EAF7DF9157
:103CA000CF910F91FF90EF900C948E2D8091D802C0
:103CB00048134BC08091D6029091D7020E94E01C1D
:103CC000883C910508F041C0CD17C9F080E28C0F07
:103CD000883040F4C77081E001C0880FCA95EAF7C8
:103CE0000E94872D80E28D0F883048F481E09D2F5F
:103CF000977001C0880F9A95EAF70E948E2D0933BC
:103D000019F0E12CF12C03C080E5E82EF12C802F76
:103D10000E94C22DE114F10451F08FE99FE0019758
:103D2000F1F700C0000091E0E91AF108F3CF802F0D
:103D30000E94982D80E28D0F8830C0F4D77081E00A
:103D400001C0880FDA95EAF70AC080E28C0F88304C
:103D500068F4C77081E001C0880FCA95EAF7DF9167
:103D6000CF910F91FF90EF900C94872DDF91CF9121
:103D70000F91FF90EF9008958091D5029091D40219
:103D8000882389F0992369F062E070E087EC91E084
:103D90000E94EE28892B19F08091D4020895109288
:103DA000D4029091D40281E0892708958091D502B0
:103DB0008823F9F00E94EF1CDC01CB01805A954169
:103DC000AF4FBF4F8093D0029093D102A093D20205
:103DD000B093D3028091D40281110BC062E070E0F5
:103DE00085EC91E00E94EE28892B19F481E0809304
:103DF000D4028091D4020895CF93E82F20915A07DE
:103E000030915B072455354040915105642F70E097
:103E1000C9010E946631481B842FEE2351F066E0F1
:103E20000E948A32C82FC150A8F080E20E94442824
:103E3000FACFA901480F511D4115524018F080E0FA
:103E400020E030E0280F311D2C5A3A4F30935B07A9
:103E500020935A07CF9108959091CB0290FF04C010
:103E60009695981740F003C0811105C090E0961711
:103E700010F40C946C2D61E00C94232D882311F028
:103E8000FA0101C0FB01099480916603811110922F
:103E90006603089580959091DB0289238093DB026D
:103EA000089580959091DC0289238093DC02089527
:103EB0009091DC028091DB02892B20916503982F81
:103EC000922B9093EE02809166038823D9F0892B80
:103ED0008093EE0280916F01882331F08091E80297
:103EE00087FF02C08EE101C086E0E0EFF2E090E0E3
:103EF000815028F021912223D9F39F5FF9CF9111AE
:103F00000E94441FE091DF02F091E0023097A9F097
:103F100080916F01882359F08091E80287FF07C0E4
:103F20008091EE028093EF0286E08093EE020280A1
:103F3000F381E02D8EEE92E00994089580E090E008
:103F40000E94A31D80E090E00E948D1D1092DB0274
:103F5000109265030C94581F809163039091320373
:103F6000891719F08F5F8770FBCF08950F931F9308
:103F7000CF93DF938091310382958F7009F05DC0FC
:103F800080912E03882309F458C080916303109117
:103F9000320360912C0370912D03C0912F03D091B7
:103FA000300391E06F3F09F090E0292F06E0811780
:103FB00009F443C0209721F07F3F21F030E003C097
:103FC00031E001C0322F90E030FD34C0089FF00195
:103FD000099FF00D1124DF01AD5CBC4F11963C919F
:103FE0001197371327C03C91361324C012963C9189
:103FF000129731111FC013964D915C9114974C1B71
:104000005D0B483C5105B0F4809131038F708061A5
:1040100080933103E85CFC4F80818F7080618083E6
:104020008CE293E00E945707DF91CF911F910F918F
:104030000C94AC1F01968770BACFDF91CF911F917E
:104040000F9108958F929F92AF92BF92DF92EF925D
:10405000FF920F931F93CF93DF93809081029090F4
:104060008202A0908302B090840240913602509167
:1040700037026091380270913902842A952AA62A63
:10408000B72ACFE1D0E026E0929F7001112490E39F
:10409000D92E082F10E0D501C4010C2E04C0B6950E
:1040A000A795979587950A94D2F780FD04C021972C
:1040B00090F780E014C0DC9EF001DD9EF00D11242D
:1040C000EE0DFF1DE00FF11FEE0FFF1FE753FE4F38
:1040D000859194910E947610019749F38C2FDF917E
:1040E000CF911F910F91FF90EF90DF90BF90AF9015
:1040F0009F908F900895CF93DF93EC010E94222030
:1041000020E3829FC0011124FC0126E0D29FE00D34
:10411000F11D1124EC0FF11DEE0FFF1FE753FE4FB1
:10412000859194910E947610DF91CF910895FC01C2
:10413000808191810E947B20292F2F70E92FE295A9
:10414000EF704E2F50E0FA013297EE30F105B8F4DF
:10415000E758FF4F0C94B832803F99F018F4883E2E
:1041600070F40FC0843F59F40CC0883E50F0813F7A
:1041700031F407C0822F869586958695089580E054
:10418000089581E008959F92AF92BF92CF92DF92FF
:10419000EF92FF920F931F93CF93DF93CDB7DEB7CC
:1041A00061970FB6F894DEBF0FBECDBF8C0185E0DE
:1041B000F801DE011D9601900D928A95E1F7F80154
:1041C000E28090912C0360912D0340912F03509138
:1041D00030034115510531F06F3F31F481E09F3FCD
:1041E00019F403C081E001C080E0F82FF1709F2E28
:1041F00080FD1AC1F80130812181C380D4808CE216
:10420000A82E83E0B82EF0902E03F601E41BF50BE8
:10421000FF2009F4C6C080913103E83CF10508F0A5
:1042200091C0482F407F09F050C0621311C0931312
:104230000FC0FE2CE1100CC08F70806180933103A1
:10424000C5010E94570780913103F801858329C178
:10425000CD2831F02F3F31F481E03F3F19F403C006
:1042600081E001C080E080FD03C081E08E2502C0B6
:1042700080E090E0F82FF170FF2E80FF1CC080914D
:1042800063034091320356E0841709F4E8C090E0DC
:10429000589FF001599FF00D1124ED5CFC4F618196
:1042A000261306C06081631303C06281E61203C057
:1042B00001968770E9CFFE2CEE2009F4F2C08091C0
:1042C000310381608093310349C0621306C09313A8
:1042D00004C0E11002C0F80186C0C8010E94972006
:1042E000882351F1EE2041F120913103822F8295F4
:1042F0008F7090E0029774F080912C0390912D03C1
:1043000098878F831986DB86CA862C87CE0107960D
:104310000E94570786E0F801ACE2B3E001900D92ED
:104320008A95E1F70E94B61F0AC06217C9F0C8015A
:104330000E94972081111EC0C8010E945707FF24C8
:10434000F394AFC0482F407F81F78CE293E00E9446
:10435000570786E0F50111928A95E9F7F12CA1C083
:104360009313E5CFE110E3CFF8018583C8010E94E4
:10437000570754C0EE2001F320913103822F82951C
:104380008F7090E0029734F280912C0390912D036E
:104390009A8389831B82DD82CC822E83CE01019693
:1043A000B7CFE83CF105D0F5FE2CEE2029F26213E0
:1043B00027C0931325C02091310320FD18C0822F00
:1043C00082958F70482F50E04115510581F0F8011A
:1043D00025834F30510541F08F5F982F9295907F44
:1043E000822F8F70892B8583C8010E94570786E032
:1043F000F801ACE2B3E001900D928A95E1F751C06B
:10440000C8010E949720811185CF8091310381607E
:1044100080933103C8010E94570743C086E0F5012D
:1044200011928A95E9F73DC0EE2009F485CFC801C5
:104430000E949720F82E882309F47ECF86E0F801A9
:10444000ACE2B3E001900D928A95E1F780912C03E4
:1044500090912D030E947B200E94B61F22C03D87B1
:104460002E878D859E850E947B20292F22952F7077
:10447000223028F49F7039F0811105C00BC0243020
:1044800028F49F7049F4805E883020F0C8010E94B3
:1044900057079F2CF92C05C0F8019581907F99F75B
:1044A000F9CF8F2D61960FB6F894DEBF0FBECDBF4A
:1044B000DF91CF911F910F91FF90EF90DF90CF9000
:1044C000BF90AF909F900895292F220F920F990FC0
:1044D000890F682F669566956695982F977085E089
:1044E000689FB001112440E050E080E0FB01E40F40
:1044F000F51FE25FFC4F208130E0092E02C03695A7
:1045000027950A94E2F721703327042E01C0220F69
:104510000A94EAF7822B4F5F5F4F4530510531F720
:104520000895292F220F920F990F890FE82FE695F2
:10453000E695E695877051E001C0550F8A95EAF738
:1045400085E0E89FF0011124E25FFC4F20E030E0BD
:1045500070E04081CB01022E02C0969587950A94A7
:10456000E2F78170819584278523842781932F5FCB
:104570003F4F2530310569F70895609381027093AC
:10458000820280938302909384020C949E1F0F9367
:104590001F9341E050E060E070E004C0440F551FFD
:1045A000661F771F8A95D2F7409550956095709554
:1045B0008091810290918202A0918302B091840245
:1045C0008A019B01082319232A233B23C901B8012F
:1045D0001F910F910C94BD2220916403809582233A
:1045E00080936403982F977099F430E0482F082E39
:1045F000000C550B2417350759F09091E90292FDF4
:1046000007C08595859585950E94C7221092640301
:104610000895CF93C091E902C2FB992790F99817AA
:1046200099F080FBC2F9C093E9026091E80284E04E
:1046300090E00E94F3316C2F82E290E00E94F3310F
:1046400082E0CF910C94EC22CF9108950F931F93A9
:1046500041E050E060E070E004C0440F551F661F69
:10466000771F8A95D2F78091810290918202A09162
:104670008302B09184028A019B01082B192B2A2BFB
:104680003B2BC901B8011F910F910C94BD2260937F
:1046900036027093370280933802909339020C945B
:1046A0009E1F1092DC0280916F01882331F080916F
:1046B000E80287FF02C08EE101C086E0E0EFF2E091
:1046C000DF011D928A95E9F70C949E1F0895809151
:1046D000CF02882319F081508093CF026091CB02E2
:1046E0007091CC028091CD029091CE020C94602CFE
:1046F0008091CF02833018F48F5F8093CF02609156
:10470000CB027091CC028091CD029091CE020C949C
:10471000602CEDE6F3E0118282818460828308954B
:104720006091CB02669570E04BE050E08CE591E043
:104730000E94CD32892B19F481E080936E030E9490
:104740007B12909368038093670380916F0384606A
:1047500080936F03089530916B018091CB0280FFAD
:1047600016C0E0916A0163E0E69FF0011124ED5864
:10477000FC4F539A8BB1877F9BB198602FB7F89409
:10478000AF0163E0369F400D511D112414C080918C
:104790006C0190916D01891720F7E82FF0E0AF01CF
:1047A000440F551FE40FF51FED58FC4F1182108286
:1047B00012828F5FF0CFE417F50789F0319168E03E
:1047C0009BB9000000C037FF8BB9330F000000C059
:1047D00000C000C08BB900C06A9591F7ECCF2FBF25
:1047E0008FE594E00197F1F700C0000008957F92F3
:1047F0008F929F92AF92BF92CF92DF92EF92FF92F1
:104800000F931F93CF93DF93FC018280748081E02C
:104810008483EEEAF3E09490EDE2F4E0E491A12CDD
:10482000F5E0BF2ECC24CA94D12CE9190E2F10E04C
:1048300080916E01A81608F0A2C0EA2CF12C22E0AB
:10484000281568F0BE9CF001BF9CF00D1124EB5EB2
:10485000FB4F8091CC0280838091CD0281837110C7
:104860000AC0BE9CF001BF9CF00D1124EB5EFB4F13
:10487000138212826AC0BE9CE001BF9CD00D11243D
:10488000CB5EDB4F8B818823F9F081508B832FEF38
:10489000829FC00111246C8170E00E946631FB018F
:1048A000FF27E255FC4F8491E82FE9192FEFE29F93
:1048B000C0011124B8010E9466318091CE02689F28
:1048C000B00111247A8341C00E94C6312091CE02EA
:1048D0002695215830E0A901440F551F322F222779
:1048E000240F351F232F33278217930774F582E097
:1048F000881588F40E94C631B6010E94A4328883CC
:104900000E94C6312091CD022695622F70E00E9450
:10491000A432280F2983BE9CF001BF9CF00D112406
:10492000EB5EFB4F12828091CE02843120F0893CF5
:1049300018F088EC01C084E1BE9CF001BF9CF00D32
:104940001124EB5EFB4F8483838380916C0197017C
:10495000280F311DC901880F991F280F391F2D58A5
:104960003C4FBE9CF001BF9CF00D1124EB5EFB4F51
:104970004281618180810E948A2CA39459CFDF916A
:10498000CF911F910F91FF90EF90DF90CF90BF904C
:10499000AF909F908F907F900C94AB230F931F93B9
:1049A000CF93DF93EC0100E010E080916E01282F9F
:1049B00030E00217130724F590916C019801290F3C
:1049C000311DA901440F551F240F351F2D583C4F91
:1049D000869590E04C81081719071CF4442331F0A8
:1049E00002C0411103C04091CE0201C040E060917D
:1049F000CD028091CC020E948A2C0F5F1F4FD5CF31
:104A00000E94AB238C8190E00196817099278C8362
:104A1000DF91CF911F910F9108958F929F92AF9246
:104A2000BF92CF92DF92EF92FF920F931F93CF939B
:104A3000DF938C01FC014481C42FD0E09E01DE0194
:104A40000E947B329B01AC010E9446326B017C01CB
:104A5000E0E2F0E0EC1BFD0BA5E5B0E09B01AC0152
:104A60000E9446324B015C019F01DF010E94BE3271
:104A70009B01AC010E9451329B01AC012C0D3D1DEC
:104A80004E1D5F1DC501B4010E945932C22FD22FA5
:104A90002A3228F4F3E02F9F900111240DC025E560
:104AA00030E02C1B3109C901880F991F280F391FCD
:104AB00037FF02C02F5F3F4F35952795C22FC09516
:104AC000F12C85E5E82EED1A80916E01F816C8F4F8
:104AD000F1FC02C08E2D01C08D2F90916C012F2D05
:104AE00030E0290F311DA901440F551F240F351F38
:104AF0002D583C4F4C2F6091CD020E948A2CF3948C
:104B0000E3CF0E94AB23F8018481811102C091E0C0
:104B100003C0803219F49FEF90936901909169016D
:104B2000890FF8018483DF91CF911F910F91FF903E
:104B3000EF90DF90CF90BF90AF909F908F900895AF
:104B40001F93CF93DF93EC018C81811109C081E029
:104B50008C831092710392E09093680180936701B7
:104B600080916C0190916D01891770F4E82FF0E04D
:104B70009F01220F331FE20FF31FED58FC4F1182EC
:104B8000108212828F5FF0CF10E060916E011617D5
:104B9000C0F5E12FF0E070E0CF010E94A432209137
:104BA0006C01820F20917103022E000C330B90E0F8
:104BB000E217F307CCF020916801022E000C330BB2
:104BC0002E173F078CF09C01220F331F820F931F7B
:104BD0009C012D583C4F4091CE026091CD028091B6
:104BE000CC020E948A2C0BC0FC01EE0FFF1F8E0F1F
:104BF0009F1FFC01ED58FC4F1182108212821F5F33
:104C0000C4CF0E94AB238091670120917103280FCC
:104C10002093710390916801980F90936801191681
:104C20005CF4022E000C330B40916E0150E04150B9
:104C300051092417350734F081958093670181303D
:104C400009F41C82DF91CF911F9108957F928F927A
:104C50009F92AF92BF92CF92DF92EF92FF920F930B
:104C60001F93CF93DF93EC018A8180FF03C0BB24A5
:104C7000BA9402C0BB24B3948C8181110DC081E031
:104C8000B81206C080916E0181508093700302C0FB
:104C90001092700381E08C83A12C46E3842E9090C7
:104CA0006E01A91408F041C080916C01CA2CD12C6E
:104CB0008601080F111DC801880F991F080F191FC1
:104CC0000D581C4FF80111821082128234E0E32E3D
:104CD000F12C712C80917003870D87332CF0682D97
:104CE0000E949632892F02C087FD890D082E000C84
:104CF000990BC816D90691F48091CE028E9DA00121
:104D00008F9D500D112455954795559547959801C0
:104D10006091CD028091CC020E948A2C7B0CF1E044
:104D2000EF1AF108B9F6A394BACF0E94AB23809191
:104D3000700391E0B9120EC0811107C080916E011D
:104D40008150809370031C820FC081508093700348
:104D5000BC820AC090E0019660916E0170E00E94F2
:104D6000A432809370038C83DF91CF911F910F91B8
:104D7000FF90EF90DF90CF90BF90AF909F908F907B
:104D80007F900895FF920F931F93CF93DF93EC01D1
:104D9000F12C0FEF10E060916E01F616F0F48091A7
:104DA0006C012F2D30E0280F311DC901880F991F8C
:104DB000280F391F2D583C4F70E0C8010E94A432C3
:104DC000962F8C814091CE026091CD02F99E800D8C
:104DD00011240E948A2CF394DECF0E94AB239A8187
:104DE0008C8190FF02C08F5F01C081508C83DF9166
:104DF000CF911F910F91FF9008959091CB0290FF5A
:104E000016C090916C0120916D01921770F4E92FFA
:104E1000F0E0DF01AA0FBB1FEA0FFB1FED58FC4FAC
:104E20008183608342839F5FF0CF0C94AB2308950E
:104E30000F931F93CF93DF9300D01F92CDB7DEB7B0
:104E40008C018091720381110AC09E012F5F3F4F38
:104E500048E76FEF0E948A2C8A8180937203F801E1
:104E60008481813051F028F0823061F440917203E6
:104E70000AC08091720340E007C06091720340E075
:104E800080E003C040E080E060E00E94FD26F80181
:104E9000848190E0019663E070E00E94A4328483F4
:104EA0000F900F900F90DF91CF911F910F91089568
:104EB000CF93DF9300D01F92CDB7DEB79091CB0296
:104EC00090FF0AC09E012F5F3F4F0E948A2C4B81AA
:104ED00069818A810E94FD260F900F900F90DF91CB
:104EE000CF910895CF93DF93EC01EBECF2E0438197
:104EF00062818C810E9458278C818F5F8C83DF9127
:104F0000CF910895CF93DF93EC01EC81F0E0E2556F
:104F1000FC4F4491EBECF2E0628181810E945827C2
:104F20008C818F5F8C83DF91CF910895AF92BF9278
:104F3000CF92DF92EF92FF920F931F93CF93DF9365
:104F400000D01F92CDB7DEB7182FF62E042FE22E19
:104F50009091CB0290FF7EC0E92FE695AE2FB0E096
:104F6000AA5FBD4F8C9180936D039E7F923061F458
:104F70009E012F5F3F4F812F0E948A2C4B816981B8
:104F80008A810E94FD2643C0823019F40091CE022E
:104F90003EC0863019F41091CC0239C08930D9F363
:104FA0008931A9F5E9518E2F8170D82EE695F0E070
:104FB000E755FC4FA590B490C12CBB2460916E01C5
:104FC000C61618F52C2D30E0A29EC001A39E900DB0
:104FD000B29E900D112470E00E946631812FD11095
:104FE00002C0860F01C0861B90916C01290F311DF4
:104FF000A901440F551F240F351F2D583C4F402F3A
:105000006F2D0E948A2CC394D9CF0E94AB2380912C
:10501000CC02181308C08091CD02F81204C0809110
:10502000CE02081729F080916F03826080936F038E
:105030001093CC02F092CD020093CE02EE2051F0FC
:105040006091CB027091CC028091CD029091CE0202
:105050000E94602C0F900F900F90DF91CF911F91C5
:105060000F91FF90EF90DF90CF90BF90AF90089599
:10507000EBECF2E0438121E1421B08F440E021E047
:10508000628181810C949627CF93DF938A3011F44B
:1050900081E003C08D3029F480E0DF91CF910C9442
:1050A000FC1E682F80915A0790915B0726E0FC0157
:1050B000A4E5B7E001900D922A95E1F7603E30F04B
:1050C00026E0FC0111922A95E9F70AC0F6E06F9FED
:1050D000B001112464537A4F46E050E00E94D6316B
:1050E000C0915A07D0915B0746E050E0BE0184E5CD
:1050F00097E00E94DA32892B49F19E012455354010
:10510000A90185E0569547958A95E1F781E090E001
:10511000BC0102C0660F771F4A95E2F74091520525
:1051200050915305462B572B2B5F3F4F65E036952B
:1051300027956A95E1F702C0880F991F2A95E2F733
:10514000842B952B90935305809352059E012E54EA
:10515000354040915105642F70E0C9010E946631CD
:10516000481B463010F4240F311D211582E038070A
:1051700010F020E030E02C5A3A4F30935B07209338
:105180005A07DF91CF910895CF93DF93EC01FE0191
:105190008491882321F00E9444282196F8CFDF9142
:1051A000CF9108950E94C42881E00C94FC1EFC015C
:1051B000AC014C5F5F4F8FEF91E32191822728E094
:1051C00030E087FF03C0880F892701C0880F215076
:1051D0003109B9F7E417F50781F70895EF92FF92C7
:1051E0000F931F93CF93DF93EC017B0164E670E094
:1051F00088E70E943B2E8C01EC0EFD1ECE15DF05CC
:1052000061F017FD0AC0FE01849164E670E00E941F
:10521000BC2E8C012196892B89F30E94402FC80156
:10522000DF91CF911F910F91FF90EF900895EF9232
:10523000FF920F931F93CF93DF937C018B010E940A
:105240008C1A811119C0E70101151105A1F0809197
:10525000E80085FD0AC08091E8008E778093E80021
:105260000E948C1A882381F307C089918093F100F2
:1052700001501109E9CF80E0DF91CF911F910F918B
:10528000FF90EF9008951F93CF93DF93CDB7DEB7D4
:10529000AA970FB6F894DEBF0FBECDBFE9E4F5E0E4
:1052A00081E595E02091F10021938E179F07D1F7BA
:1052B00080914A05833009F461C030F4813071F087
:1052C000823009F49BC0B2C08A3009F487C08B30A9
:1052D00009F46CC0893009F0A9C020C0809149054B
:1052E000813A09F0A3C08091E800877F8093E800AD
:1052F00080914D0590914E05892B21F460E285E265
:1053000095E003C060E080E090E070E00E944B1CFC
:105310008091E8008B778093E80088C080914905F0
:10532000813209F083C080914D0590914E0502971E
:1053300008F07CC08091E800877F8093E80080912E
:10534000E80082FD05C0809147058111F8CF6EC04D
:105350002091F3008091F20090E0922B029731F4BB
:105360008091F100813011F0863021F48091F100BC
:10537000809324058091E8008B7754C08091490583
:10538000813A09F053C080914D0590914E05892BCB
:1053900009F04CC08091E800877F8093E8008091FD
:1053A000E80080FFFCCF80916F0137C080914905F4
:1053B0008132E1F580914D0590914E05892BB1F533
:1053C0008091E800877F8093E8000E94BF1A809157
:1053D0004B0580936F010E94512328C0809149059D
:1053E000813221F58091E800877F8093E8000E9458
:1053F000BF1A80914C058093230518C08091490500
:10540000813AA1F48091E800877F8093E800809141
:10541000E80080FFFCCF809123058093F10080910C
:10542000E8008E778093E8000E94BF1A8091E80020
:1054300083FFCEC18091490590914A05492F50E0E4
:105440004A30510508F0C4C1FA01E957FF4F0C94E6
:10545000B832803821F0823809F0BAC108C0809192
:10546000450590914605992389F082600FC080918F
:105470004D058F70873008F0ABC18093E9008091B3
:10548000EB0085FB882780F91092E9009091E800F5
:10549000977F9093E8008093F1001092F10065C12E
:1054A000282F2D7F09F094C1882319F0823061F0F4
:1054B0008FC180914B05813009F08AC1933009F08A
:1054C00080E0809346052EC080914B0581112AC053
:1054D00080914D058F702FEF280F263008F078C18E
:1054E0008093E9002091EB0020FF1CC0933021F451
:1054F0008091EB00806214C09091EB0090619093DA
:10550000EB0021E030E0A90102C0440F551F8A954D
:10551000E2F74093EA001092EA008091EB00886085
:105520008093EB001092E9008091E800877F20C112
:1055300081114EC110914B051F778091E300807857
:10554000812B8093E3008091E800877F8093E800BF
:105550000E94BF1A8091E80080FFFCCF8091E30099
:1055600080688093E300111102C082E001C083E0F3
:10557000809347052DC18058823008F029C1809161
:105580004B0590914C058C3D53E0950779F583E0F0
:105590008A838AE289834FB7F894DE01139620E06C
:1055A0003EE051E2E32FF0E050935700E49120FFFA
:1055B00003C0E295EF703F5FEF708E2F90E0EA300E
:1055C00010F0C79601C0C0968D939D932F5F243134
:1055D00049F74FBF8091E800877F8093E8006AE237
:1055E00070E0CE0101960E944B1CAEC040914D056B
:1055F00050914E05292F332723303105A9F068F447
:105600002130310509F4F3C02230310509F0E0C042
:105610008BE390E0EBE5F5E044C02132310521F168
:105620002232310571F1D4C0992781309105A1F062
:1056300058F0029709F0CCC0E8EAF5E0E4918E2F2B
:1056400090E0E8EAF5E02AC0E8ECF5E0E4918E2F7E
:1056500090E0E8ECF5E022C0E6EBF5E0E4918E2F77
:1056600090E0E6EBF5E01AC04115510509F4C4C01D
:105670004130510509F0ACC089E090E0E6E8F5E082
:1056800010C04115510509F4BCC04130510509F065
:105690009FC08DE690E0EEEAF4E003C0009709F4C5
:1056A00097C02091E800277F2093E80020914F05C4
:1056B000309150058217930708F49C0140E02115B2
:1056C000310589F180914705882309F43DC0853073
:1056D000D9F18091E80083FD37C08091E80082FD18
:1056E0002FC08091E80080FFEACF4091F3008091C5
:1056F000F20090E0942B2115310559F08830910586
:1057000040F444914093F1003196215031090196C3
:10571000F2CF41E0089709F040E08091E8008E77F1
:105720008093E800CCCF4111CDCF0AC080914705CE
:10573000882351F0853041F08091E80083FD04C05A
:105740008091E80082FFF2CF8091E8008B77809310
:10575000E8003EC08038E1F58091E800877F8093C3
:10576000E800809148058093F1008091E8008E77F1
:105770008093E8000E94BF1A2BC0811129C080913C
:105780004B0590914C059927029714F58091E800FC
:10579000877F8093E80010914B05109348050E9485
:1057A000BF1A111106C08091E30087FD02C081E09D
:1057B00001C084E08093470542E061EC81E00E94F3
:1057C000DE1A42E261EC82E00E94DE1A8091470517
:1057D0008091E80083FF1AC08091E800877F809362
:1057E000E8008091EB0080628093EB000FC082E1C3
:1057F00090E0E6E9F5E055CF89E090E0EDE6F5E0F0
:1058000050CF80E490E0EBE1F5E04BCFAA960FB6E5
:10581000F894DEBF0FBECDBFDF91CF911F910895E9
:10582000EBECF2E0438121E1420F08F44FEF21E07D
:10583000628181810C949627EBECF2E0628121E198
:10584000621B08F460E021E0438181810C9496277B
:10585000EBECF2E0628121E1620F08F46FEF21E0EE
:10586000438181810C949627EBECF2E0818121E069
:10587000438162818A500C949627EBECF2E081819F
:1058800021E043816281865F0C9496278091CB0250
:10589000282F269530E02115310519F4817082609A
:1058A00005C02B32310524F0817084658093CB02D2
:1058B0008091CE02893718F088E78093CE02089550
:1058C000CF92DF92EF92FF926B017C010E94462CF7
:1058D000B701A60188E090E0FF90EF90DF90CF90B5
:1058E0000C940532EBECF2E083E0808311828FEFC1
:1058F000828388E783831482ADE6B3E012968C91AD
:105900001297836012968C9360817181828193815A
:105910000C94602CAF92BF92CF92DF92EF92FF92E5
:105920000F931F93CF93DF93E82EF62EE9014937AB
:1059300008F048E7E42FF0E0F11006C0E45FF44F10
:10594000E4914E2F2E2F71C00F2D10E0E45FF44F25
:105950004491F42FC42ED12C26E0E29EC0011124E4
:105960002FEF30E0B9010E9466315BEA5603C001B7
:10597000579F900D11248E0D911D8E0D911D582F46
:10598000550F580FD901A01BB10BAC9DC001AD9DA7
:10599000900DBC9D900D1124E92FF59ED00111248E
:1059A000AB2FBB277901EA1AFB0AEC9CD001ED9CD6
:1059B000B00DFC9CB00D11245901A51AB108A09E90
:1059C0007001A19EF00CB09EF00C1124EF2CFF246E
:1059D0002E193F092C9D80012D9D100D3C9D100D11
:1059E0001124212F6230710591F048F46115710581
:1059F000E1F061307105B9F4242F4B2F16C06430EB
:105A0000710569F040F06630710579F00CC0242F03
:105A1000492FE12F0AC0492FEF2F2B2F06C0292F26
:105A2000E42F412F02C0292FEB2F49832883EA83DB
:105A3000DF91CF911F910F91FF90EF90DF90CF906A
:105A4000BF90AF9008959091CB0290FF3BC09170B2
:105A5000811102C0926006C08B3210F0946502C0C2
:105A6000880F982B9093CB0280916F038160809375
:105A70006F03662351F06091CB027091CC0280914C
:105A8000CD029091CE020E94602C6091CB0266956F
:105A900070E04BE050E08CE591E00E94CD32892B24
:105AA00019F00E94892302C00E94902381E0809314
:105AB0006A0320E04091CE026091CD028091CC0239
:105AC0000C94962708958091CB028695815009F415
:105AD0008AE261E00C94232D8091CB0286958F5F42
